:040000005EEF00F0BF
:100008005482FACF41F0FBCF42F0E9CF43F0EACF78
:1000180044F0E1CF45F0E2CF46F0D9CF47F0DACF50
:1000280048F0F3CF49F0F4CF4AF0F6CF4BF0F7CFD2
:100038004CF0F8CF4DF0F5CF4EF054C04FF055C00E
:1000480050F056C051F057C052F0F2AC0DD0A4A2F7
:1000580003D093EC08F008D0A4A403D0AEEC09F0C8
:1000680003D0A1B262EC0AF052C057F051C056F06A
:1000780050C055F04FC054F04EC0F5FF4DC0F8FFCA
:100088004CC0F7FF4BC0F6FF4AC0F4FF49C0F3FF6E
:1000980048C0DAFF47C0D9FF46C0E2FF45C0E1FFCC
:1000A80044C0EAFF43C0E9FF42C0FBFF41C0FAFF7A
:0800B800549211004CEF0AF014
:1010000000060708090A0B020400C2B2FED72150ED
:10101000D8A42106190E216012002050070B3E6E45
:10102000100E20602ED03EC03BF0010E3C6E3B2ADD
:1010300002D0D8903C363B2EFCD73C503D6E24501D
:101040003D140009D8B403D084A611D002D084B6D0
:101050000ED03E50010D010EF324D96E000EF42087
:10106000DA6EDF2A020EDF640CD03D50241A3E50A7
:10107000010D010EF324D96E000EF420DA6E000E7D
:10108000DF6E080E206009D0940E316E000E326EB5
:101090003EC033F0F7EC08F00BD0100E206008D003
:1010A000840E316E000E326E3EC033F0F7EC08F065
:1010B000202A100E206402D0000E206E2050070B54
:1010C0003E6E080E206002D01A8E01D01A9E3EA0FD
:1010D00002D0198401D019943EA202D0198201D005
:1010E00019923EA402D0198001D0199045EC09F064
:1010F0003E50010D010EF324F66E100EF420F76E33
:101100000800F5CF3BF0D8903B36D8903B363B28D3
:10111000C26E100E2018D8A402D0C28E01D0C29E7A
:10112000830EC06E1200A492A1B262EC0AF074CFDA
:1011300015F075CF16F00950155C0D6E0A50165853
:101140000E6E0B5017580F6E0C501858106E15C0BD
:1011500009F016C00AF017C00BF018C00CF01050C0
:101160000F1006E1B10E0D5C280E0E58D8A003D06A
:10117000000E2E6E12000D360E360D360E362E5027
:10118000D8A40BD00E502A6E0E30286E2A24296E59
:10119000000E256E060E266E12002E28D8B4120000
:1011A00028500E5CD8B002D02E6812000E50295C78
:1011B000D8B002D02E6812000E502A5CD8B003D0EE
:1011C000D880253203D0D8902530256E2E2A2606C9
:1011D0002650D8A41200080E266E060E2E6E25C0CC
:1011E00011F011A21200060E2F6E2D801200335046
:1011F000346E356AD8903436353631503424396EF1
:10120000325035203A6E2150D8B409D039C0D9FFB8
:101210003AC0DAFFC3CFDEFFC4CFDDFF120039C012
:10122000D9FF3AC0DAFFDECF37F0DDCF38F037C074
:1012300034F038C035F0060ED89034363536E82E06
:10124000FBD734C037F035C038F039C0D9FF3AC0C9
:10125000DAFFDE50375EDD50385AC3503726C450AF
:10126000382237C034F038C035F0060E366ED890CC
:1012700035323432362EFBD739C0D9FF3AC0DAFFC7
:1012800034C0DEFF35C0DDFF120019C031F0000EA2
:10129000326E070E326401D00CD08D9031A002D096
:1012A0008D8201D08D92D8903130316E8D80322A6E
:1012B000F0D71F2A070E1F6407D0000E1F6E23A051
:1012C00002D0868801D086981AC031F0000E326EA6
:1012D0000BD08D9031A002D08D8201D08D92D8900C
:1012E0003130316E8D80322A070E3264F2D78E8E05
:1012F00086988E9E1200C28E130EC16EBE0EC06EF8
:10130000C2802C0E926ECF0E936E900E946E060ECF
:10131000956E080E966E7F0E976E000E986EC28EBA
:10132000130EC16EBE0EC06EC28055EC0AF00AEC00
:101330000AF05AEC0AF0000E0001A46F070EA46533
:1013400001D01200A451010D010EF324D96E000E3C
:10135000F420DA6E000EDF6EA42BF0D7A494B2CF87
:101360001BF0B3CF1CF0725000081C24406E260EF8
:10137000406005D0B00E7126280E722206D0B00E45
:101380001B24716E280E1C20726E272A020E276401
:1013900003D0000E276E02D0714A722A302AEFEC79
:1013A00009F01200000E896E000E8A6E400E8B6EE0
:1013B000010E8C6E110E8D6E000E8E6E000E8F6EF5
:1013C000640E216E000E236E200E206E020E1A6E29
:1013D000080E196E000E246E24C022F0120030C0D8
:1013E0003FF0030E3F16D8A403D05EEC0AF01200C3
:1013F0003050030BE806D8A404D005EC08F000F048
:1014000012003050030B020AD8B4120024EC0AF088
:1014100000F01200410EB16EA082040E736EA49211
:10142000A3822E68000E2D6E0A0E706EA394A494F3
:10143000B2CF1BF0B3CF1CF0B00E1B24716E280E80
:101440001C20726EA384120024A202D0198C01D039
:10145000199C24A402D0198A01D0199A000E316E69
:1014600019BC24A002D0010E316E31B002D02390FD
:1014700001D023801200D0CF53F053C0A5F0030E4B
:101480000001A517D8A404D0D2EC09F0D082D080F6
:101490007BEC09F00400FED754905492000EF86ED5
:1014A000100EF76E00013BEF0AF0020ED36E400EF5
:1014B0009B6E1200D09EF28EF28C1200C2B2FED74A
:0C14C000C2821200A192174A182A1200E2
:020000040001F9
:06FFF80021F4C5F6F8F744
:00000001FF
