:040000005BEF00F0C2
:100008004D82FACF01F0FBCF02F0E9CF03F0EACF3F
:1000180004F0E1CF05F0E2CF06F0D9CF07F0DACF50
:1000280008F0F3CF09F0F4CF0AF0F6CF0BF0F7CFD2
:100038000CF0F8CF0DF0F5CF0EF04DC00FF04EC01C
:1000480010F04FC011F050C012F0F2BAF2A403D071
:100058002AECA1F006D0F2BC9DA003D09EB041ECE2
:10006800A1F012C050F011C04FF010C04EF00FC0F8
:100078004DF00EC0F5FF0DC0F8FF0CC0F7FF0BC028
:10008800F6FF0AC0F4FF09C0F3FF08C0DAFF07C093
:10009800D9FF06C0E2FF05C0E1FF04C0EAFF03C0C4
:1000A800E9FF02C0FBFF01C0FAFF4D921100ADEF5E
:0200B8009CF0BA
:10FEDE0000010000000A00000064000000E80300BA
:10FEEE000010270000A086010040420F0080969867
:10FEFE000000E1F50500CA9A3B0100000010000069
:10FF0E0000000100000010000000000100000010C1
:10FF1E00000000000100000010414447484E5355B8
:10FF2E005C5F6065696A7277787B7E34125469749F
:10FF3E00616E20426F696C65720035001E190144B6
:10FF4E0000521101020000000001FFFFFFFFFFFF42
:10FF5E004D414320416464726573732066726F6D08
:10FF6E0020454550524F4D3A20252E32583A252ED7
:10FF7E0032583A252E32583A252E32583A252E32FC
:10FF8E00583A252E3258200D0A000D0A0D0A5374C8
:10FF9E00617274696E67205379736C6F6720617438
:10FFAE0020256C750D0A00444E5320466F756E6405
:10FFBE0020257320696E2063616368652025756C4A
:10FFCE0000303132333435363738394142434445C7
:10FFDE00460025642E25642E25642E256400257585
:10FFEE00203A2025730D0A00286E756C6C29002EA0
:02FFFE00000001
:020000040001F9
:1000000048D3250E00016C19D8B434D020EE02F08C
:100010002950D9262A50DA22DE50DE10DE10D8B45C
:1000200013D020EE02F02950D9262A50DA2201D826
:1000300030D30500FA6EDE50FD6EDE50FE6EDE50EF
:10004000FF6EFA506C51120029C0D9FF2AC0DAFFA6
:10005000DECF2FF0DDCF30F02FC0D9FF30C0DAFF78
:100060006CC0DFFF29C0D9FF2AC0DAFFDE2A000EEC
:10007000DD220FD3000E0001656F2BC0F6FF2CC0F0
:10008000F7FF000EF86E0800F5502E0AD8A432D003
:100090002B4A2C2A000E6B6F000E6A6F1ED06AC0AE
:1000A00013F06BC014F0000E166E0A0E156EBDEC48
:1000B000A1F02BC0F6FF2CC0F7FF000EF86E080071
:1000C000F5501326000E1422D00E132400016A6F7F
:1000D000FF0E14206B6F2B4A2C2A2BC0F6FF2CC06E
:1000E000F7FF000EF86E0800F55015ECA2F0D8A04E
:1000F000BFD0D5D7000E00016B6F000E6A6FB8D06D
:100100006589B6D0658FDAD02DC0D9FF2EC0DAFF51
:10011000DFCF2FF0020EDE26DFCF30F0000EDD2223
:100120002FC0D9FF30C0DAFFDECF63F0DDCF64F03F
:1001300063516411D8A404D0F60E636FFF0E646F90
:10014000000E626F000E616F03D00001614B622BE5
:10015000615163252F6E62516421306E2FC0F6FF0E
:1001600030C0F7FF000EF86E0F0EF76403D00800E2
:10017000F55005D0F6CFE9FFF7CFEAFFEF500009C1
:10018000D8A4E3D700016A516B11D8B465D061518E
:100190006A5D62516B59D8B05FD06AC061F06BC0C4
:1001A00062F05AD020EE02F02950D9262A50DA22E5
:1001B000DE50DE10DE10D8B427D020EE02F0295039
:1001C000D9262A50DA2201D81BD00500FA6EDE505B
:1001D000FD6EDE50FE6EDE50FF6EFA5063C0F6FF1D
:1001E00064C0F7FF000EF86E0F0EF76403D008002E
:1001F000F55005D0F6CFE9FFF7CFEAFFEF50120038
:100200000001634B642B28D063C0F6FF64C0F7FF86
:10021000000EF86E29C0D9FF2AC0DAFFDECF2FF01A
:10022000DDCF30F02FC0D9FF30C0DAFF0F0EF764FA
:1002300003D00800F55005D0F6CFE9FFF7CFEAFF6D
:10024000EF50DF6E0001634B642B29C0D9FF2AC039
:10025000DAFFDE2A000EDD226107D8A062076129DD
:10026000A1E16229D8B415D29DD7C00E651326D05E
:100270002BC0F6FF2CC0F7FF2B4A2C2A000EF86E7D
:100280000800F5CF6CF000016C51000AD8B410D210
:10029000580AD8B437D73C0AD8B410D00D0AD8B40D
:1002A0000DD0050AD8B42CD71F0AD8B42DD7060A0A
:1002B000D8B4DBD70D0AD8B425D7EBD165C02FF061
:1002C000C00E2F16D8A441D065A919D02DC0D9FFD2
:1002D0002EC0DAFFDFCF2FF0040EDE26DFCF30F0A6
:1002E000000EDD222FC0D9FF30C0DAFFDECF66F06E
:1002F000DECF67F0DECF68F0DECF69F019D02DC019
:10030000D9FF2EC0DAFFDFCF2FF0020EDE26DFCFBF
:1003100030F0000EDD222FC0D9FF30C0DAFFDECF73
:1003200066F0DDCF67F0000E67BFFF0E686F696F84
:1003300069AF40D0030E6513691F681F671F666DA4
:10034000000E67236823692335D065A919D02DC015
:10035000D9FF2EC0DAFFDFCF2FF0040EDE26DFCF6D
:1003600030F0000EDD222FC0D9FF30C0DAFFDECF23
:1003700066F0DECF67F0DECF68F0DECF69F01AD02E
:100380002DC0D9FF2EC0DAFFDFCF2FF0020EDE2600
:10039000DFCF30F0000EDD222FC0D9FF30C0DAFFF2
:1003A000DECF31F0DDCF32F031C066F032C067F021
:1003B000686B696B6A516B11D8A44BD06651671199
:1003C00068116911D8A445D06A4B6B2B42D0010E3D
:1003D0006C6F0A0E6C19D8B447D06C51040DDF0E47
:1003E000F324F66EFE0EF420F76EF86A000EF82283
:1003F0000900F550665D0900F55067590900F55090
:1004000068590900F5506959D8A02ED06C2BE1D756
:10041000010E6C6F080E6C19D8B426D06C51040D07
:10042000070EF324F66EFF0EF420F76EF86A000E46
:10043000F8220900F550665D0900F550675909007A
:10044000F55068590900F5506959D8A00DD06C2BAA
:10045000E1D76551C00B000AD8B4B9D7800AD8B427
:10046000D7D7400AD8B4B3D7800E6CBF7F0E2F6E9B
:100470006A516C5D6B51800A2F58D8B003D06AC0A6
:100480006CF010D06B51800A2F6E6C516A5D800E3B
:100490006CBF7F0E2F58D8B005D06C516A6F6B6B54
:1004A0006ABF6B0765C02FF0030E2F16D8B4E8D0D3
:1004B00020EE02F02950D9262A50DA22DE50DE1032
:1004C000DE10D8B413D020EE02F02950D9262A50DD
:1004D000DA2201D8D5D00500FA6EDE50FD6EDE506E
:1004E000FE6EDE50FF6EFA502D0E120029C0D9FFAD
:1004F0002AC0DAFFDECF2FF0DDCF30F02FC0D9FFDA
:1005000030C0DAFF2D0EDF6EB4D06AC02FF06BC0A2
:1005100030F0D8902F363036D8902F363036DF0E68
:100520002F24F66EFE0E3020F76EF86A000EF822C9
:100530000900F5CF17F00900F5CF18F00900F5CF45
:1005400019F00A00F5CF1AF066C013F067C014F076
:1005500068C015F069C016F0B6EC9BF013C020F02F
:1005600014C021F015C022F016C023F00A0E246E2C
:10057000000E256E000E266E000E276E1DEC9DF0FF
:100580002050300F00016C6F48D066C013F067C078
:1005900014F068C015F069C016F06AC02FF06BC087
:1005A00030F0D8902F363036D8902F363036070EB0
:1005B0002F24F66EFF0E3020F76EF86A000EF82238
:1005C0000900F5CF17F00900F5CF18F00900F5CFB5
:1005D00019F00A00F5CF1AF0B6EC9BF013500F0B90
:1005E0000001606F6051010DCF0EF324F66EFF0E17
:1005F000F420F76EF86A000EF8220800F5CF6CF0D0
:100600000CD000016551C00B000AD8B47ED7800A17
:10061000D8B4BBD7400AD8B478D720EE02F029501E
:10062000D9262A50DA22DE50DE10DE10D8B413D0DC
:1006300020EE02F02950D9262A50DA2201D820D003
:100640000500FA6EDE50FD6EDE50FE6EDE50FF6E6F
:10065000FA506C51120029C0D9FF2AC0DAFFDECF50
:100660002FF0DDCF30F02FC0D9FF30C0DAFF6CC0E3
:10067000DFFF29C0D9FF2AC0DAFFDE2A000EDD2203
:1006800000016A07D8A06B076A29BBE16B29D8A4CF
:10069000B8D72BC0F6FF2CC0F7FF2B4A2C2A000E30
:1006A000F86E0800F5CF6CF000016C51D8A4A9D405
:1006B000000E2A6E000E296E1200000E0001FE6F61
:1006C000000EFD6F000EFC6F000EFB6F000E266E1D
:1006D000140E256E000E286E000E276E42EC9FF061
:1006E00025C0FDF026C0FEF00001FD51FE11D8A48A
:1006F0001200A3ECA2F0480E136E020E146E000E50
:10070000166E140E156EEEEC9EF0020148390F0BBA
:10071000040AD8A41200FF0E58150001DE6F000E67
:10072000020159150001DF6F000E02015A15000188
:10073000E06F000E02015B150001E16FDEC0E1F029
:10074000E06BDF6BDE6B22EE58F0000EDE14E26F22
:10075000FF0EDE14E36F000EDE14E46F000EDE14F5
:10076000E56FE4C0E5F0E3C0E4F0E2C0E3F0E26B83
:1007700058C2E6F059C2E7F05AC2E8F05BC2E9F0AD
:10078000E7C0E6F0E8C0E7F0E9C0E8F0E96B000E8A
:10079000E615EA6FFF0EE715EB6F000EE815EC6F3C
:1007A000000EE915ED6F22EE58F0000EDE14EE6F2C
:1007B000000EDE14EF6F000EDE14F06FFF0EDE147D
:1007C000F16F190E05D0D890F133F033EF33EE33DB
:1007D000E82EF9D7EA51EE11F26FEB51EF11F36FFA
:1007E000EC51F011F46FED51F111F56FE251F2118E
:1007F000F66FE351F311F76FE451F411F86FE5511F
:10080000F511F96FDE51F6110201586F0001DF5149
:10081000F7110201596F0001E051F81102015A6FFE
:100820000001E151F91102015B6FFF0E5415000147
:10083000DE6F000E020155150001DF6F000E020190
:1008400056150001E06F000E020157150001E16F1F
:10085000DEC0E1F0E06BDF6BDE6B22EE54F0000EE9
:10086000DE14E26FFF0EDE14E36F000EDE14E46FA1
:10087000000EDE14E56FE4C0E5F0E3C0E4F0E2C092
:10088000E3F0E26B54C2E6F055C2E7F056C2E8F07E
:1008900057C2E9F0E7C0E6F0E8C0E7F0E9C0E8F0E9
:1008A000E96B000EE615EA6FFF0EE715EB6F000E21
:1008B000E815EC6F000EE915ED6F22EE54F0000E16
:1008C000DE14EE6F000EDE14EF6F000EDE14F06F1C
:1008D000FF0EDE14F16F190E05D0D890F133F0330E
:1008E000EF33EE33E82EF9D7EA51EE11F26FEB5108
:1008F000EF11F36FEC51F011F46FED51F111F56F51
:10090000E251F211F66FE351F311F76FE451F41174
:10091000F86FE551F511F96FDE51F6110201546FD0
:100920000001DF51F7110201556F0001E051F8118C
:100930000201566F0001E151F9110201576F54296C
:1009400007E1552905E1562903E15729D8B41200DA
:10095000005158190AE10151591907E102515A1978
:1009600004E103515B19D8B4A1D0585159115A115F
:100970005B11D8B49BD0582907E1592905E15A29C0
:1009800003E15B29D8B492D0585159115A115B1127
:10099000D8B428D0FF0E00110001DE6FFF0E020157
:1009A00001110001DF6FFF0E020102110001E06F73
:1009B000000E020103110001E16F02015851000114
:1009C000DE1910E1020159510001DF190BE10201AA
:1009D0005A510001E01906E102015B510001E119E1
:1009E000D8B464D00201585159115A115B11D8B4CE
:1009F00028D0FF0E00110001DE6FFF0E0201011171
:100A00000001DF6F000E020102110001E06F000E15
:100A1000020103110001E16F020158510001DE19CA
:100A200010E1020159510001DF190BE102015A5195
:100A30000001E01906E102015B510001E119D8B49F
:100A400035D00201585159115A115B11D8B425D033
:100A5000FF0E00110001DE6F020101510001DF6F86
:100A6000020102510001E06F020103510001E16F38
:100A7000020158510001DE1910E102015951000133
:100A8000DF190BE102015A510001E01906E10201F0
:100A90005B510001E119D8B409D00201580505E104
:100AA000E00E5B1959115A11D8A4120002014A51E3
:100AB0000001DF6FDE6B22EE4AF0DECFE0F0DDCF2B
:100AC000E1F0E1C0E0F0E16BFF0EE017000EE1178E
:100AD000DE51E01102014A6F0001DF51E111020114
:100AE0004B6F48510F0B0001DE6FD890DE37D89066
:100AF000DE35FA6F020148510F0B0001DE6F050E63
:100B0000DE6101D01200020148510F0B0001DE6FBF
:100B1000050EDE6574D0EC0EFA25136E146AFF0E16
:100B20001422FBECA0F012000201585159115A1185
:100B30005B11D8B412000001FA51DE6FDF6BDE1FCB
:100B4000DF1FDE4BDF2B02014A510001DE25FB6F68
:100B500002014B510001DF21FC6FFBC025F0FCC0FE
:100B600026F0000E286E000E276E42EC9FF025C086
:100B7000FDF026C0FEF00001FD51FE11D8A41200C8
:100B8000480EB96F020EBA6F12EC98F01200000115
:100B9000FA51DE6FDF6BDE1FDF1FDE4BDF2B020142
:100BA0004A510001DE25FB6F02014B510001DF219C
:100BB000FC6FFBC013F0FCC014F0F6EC98F013C00F
:100BC000FDF014C0FEF0FBC025F0FCC026F0FDC017
:100BD00027F0FEC028F042EC9FF025C0FDF026C0B3
:100BE000FEF0FDC0D5F0FEC0D6F06DEC93F0120023
:100BF0004AC213F04BC214F0FBECA0F01200020149
:100C00005151010AD8B490D7100AD8B4C0D7F0D740
:100C1000000E0001836F8A0E136E000E146E000E1C
:100C2000166E1C0E156EEEEC9EF013C080F014C014
:100C300081F01C0E000180198111D8A41200000E51
:100C4000826F800E886F040E896F080E866F865142
:100C5000D8B43CD020EE06F08851D9268951DA224A
:100C6000DE5098192DE1DE5099192AE1DE509A19CB
:100C700027E1DE509B19D8A423D020EE0AF088513A
:100C8000D9268951DA22DE508C191AE1DE508D19ED
:100C9000D8A416D020EE0CF08851D9268951DA223A
:100CA000000EDF6E20EE92F088C0E1FF89C0E2FF07
:100CB000050EDBCFE3FFE806FCE2010E826F06D0F3
:100CC0000D0E8827000E89238607C1D70201005127
:100CD000011102110311D8B438D2FF0E0001A21580
:100CE000606F000EA315616F000EA415626F000EF9
:100CF000A515636F60C063F0626B616B606B20EE83
:100D0000A2F0000EDE14646FFF0EDE14656F000E9D
:100D1000DE14666F000EDE14676F66C067F065C094
:100D200066F064C065F0646BA2C068F0A3C069F0AF
:100D3000A4C06AF0A5C06BF069C068F06AC069F031
:100D40006BC06AF06B6B000E68156C6FFF0E691557
:100D50006D6F000E6A156E6F000E6B156F6F20EED3
:100D6000A2F0000EDE14706F000EDE14716F000E24
:100D7000DE14726FFF0EDE14736F190E05D0D8905B
:100D80007333723371337033E82EF9D76C517011AD
:100D9000746F6D517111756F6E517211766F6F5165
:100DA0007311776F64517411786F65517511796F94
:100DB000665176117A6F675177117B6F60517811A8
:100DC0007C6F615179117D6F62517A117E6F635131
:100DD0007B117F6F0201005100017C190FE10201BC
:100DE000015100017D190AE10201025100017E1941
:100DF00005E10201035100017F19D8A4A6D1825157
:100E0000D8A4CED0800E886F040E896F800E846FB8
:100E1000040E856F080E876F8751D8B41AD020EE64
:100E20000CF08451D9268551DA2210EE0CF088514D
:100E3000E1268951E222DE50E65CD8B004D084C0BD
:100E400088F085C089F00D0E8427000E8523870762
:100E5000E3D720EE0CF08851D9268951DA22000E12
:100E6000DF6E20EE92F088C0E1FF89C0E2FF050E40
:100E7000DBCFE3FFE806FCE2FF0E9815606F000E83
:100E80009915616F000E9A15626F000E9B15636FC6
:100E900060C063F0626B616B606B20EE98F0000ED7
:100EA000DE14646FFF0EDE14656F000EDE14666FD5
:100EB000000EDE14676F66C067F065C066F064C040
:100EC00065F0646B98C068F099C069F09AC06AF0E8
:100ED0009BC06BF069C068F06AC069F06BC06AF0D3
:100EE0006B6B000E68156C6FFF0E69156D6F000E51
:100EF0006A156E6F000E6B156F6F20EE98F0000E86
:100F0000DE14706F000EDE14716F000EDE14726F4F
:100F1000FF0EDE14736F190E05D0D8907333723341
:100F200071337033E82EF9D76C517011746F6D51B5
:100F30007111756F6E517211766F6F517311776FFA
:100F400064517411786F65517511796F665176111E
:100F50007A6F675177117B6F605178117C6F6151A7
:100F600079117D6F62517A117E6F63517B117F6FB2
:100F700020EE06F08851D9268951DA227CC0DEFFA6
:100F80007DC0DEFF7EC0DEFF7FC0DEFF20EE0AF008
:100F90008851D9268951DA228CC0DEFF8DC0DDFF51
:100FA00091059011D8A41200920E256E000E266EA7
:100FB000080E286E060E276E53EC90F00001836F2A
:100FC0008305D8A4120020EE92F010EE9CF0050EDE
:100FD000DBCFE3FFE806FCE2920E136E000E146E08
:100FE000730E156E020E166E000E186E060E176E3C
:100FF000D7EC9FF098C0A2F099C0A3F09AC0A4F0DB
:101000009BC0A5F0FF0E020100150001606F000EED
:10101000020101150001616F000E020102150001BD
:10102000626F000E020103150001636F60C063F080
:10103000626B616B606B000E020100150001646F52
:10104000FF0E020101150001656F000E020102157D
:101050000001666F000E020103150001676F66C094
:1010600067F065C066F064C065F0646B00C268F04C
:1010700001C269F002C26AF003C26BF069C068F095
:101080006AC069F06BC06AF06B6B000E68156C6F1C
:10109000FF0E69156D6F000E6A156E6F000E6B15F1
:1010A0006F6F000E020100150001706F000E02014B
:1010B00001150001716F000E020102150001726F2F
:1010C000FF0E020103150001736F190E05D0D890B1
:1010D0007333723371337033E82EF9D76C5170115A
:1010E000746F6D517111756F6E517211766F6F5112
:1010F0007311776F64517411786F65517511796F41
:10110000665176117A6F675177117B6F6051781154
:10111000986F61517911996F62517A119A6F635189
:101120007B119B6F020E916F000E906F8A0E136EF3
:10113000000E146E000E166E1C0E156E74ECA0F0F0
:1011400029EC9AF00001836F12000E0E0001836FEC
:1011500012001CD0010E0101216F000E1E6F12D073
:10116000000E0101216F010E1E6F05D0236F1CD0F0
:10117000000E0101216F010E226F010EF7D7000E44
:101180000101216F000E226F000EF0D73C50000AC3
:10119000D8B4E0D7010AD8B4E3D7030AD8B4E8D763
:1011A000010AD8B4ECD7D6D701012151D8A409D06F
:1011B0001E51D8A406D02251D8A403D02351D8B4AC
:1011C000120022EE7DF011EE25F02F0EDBCFE3FFB3
:1011D000E806FCE2CDC245F1CEC246F1CFC247F1EE
:1011E000D0C248F10001B1BF35D2B15104E1F10ED6
:1011F000B05DD8A02FD239ECA0F0130403E1020EA9
:101200001418D8A427D2AAECA1F0060AD8A422D296
:10121000AAECA1F097EC9EF00201CD51131809E160
:10122000CE51141806E1CF51151803E1D05116180C
:10123000D8A410D239ECA0F039ECA0F097EC9EF0D5
:1012400097EC9EF013C025F114C026F115C027F1CC
:1012500016C028F10101252907E1262905E12729E2
:1012600003E12829D8B4F6D1250506E17F0E281917
:1012700026112711D8B4EED197EC9EF013C01AF1C5
:1012800014C01BF115C01CF116C01DF101011A2973
:1012900007E11B2905E11C2903E11D29D8B4DAD196
:1012A0001A0506E17F0E1D191B111C11D8B4D2D1ED
:1012B00097EC9EF0000E136E010E146E000E166E6B
:1012C000100E156EEEEC9EF0000E136E010E146EF5
:1012D000730E156E020E166E000E186E060E176E49
:1012E0007DEC9AF013501410D8B41CD0000E136E7D
:1012F000010E146E580E156EFF0E166E000E186E4F
:10130000060E176E7DEC9AF013501410D8B40AD064
:10131000000E136E010E146E18EC9FF01350141093
:10132000D8A498D1000E146E400E136EFBECA0F002
:10133000000E146E800E136EFBECA0F097EC9EF086
:10134000630E131809E1530E141806E1820E1518E6
:1013500003E1630E1618D8A47DD10001100EB0274A
:10136000FF0EB123DAD0AAECA1F00101196FAAECAB
:10137000A1F00101246F24510001B26FB36B020E82
:10138000B227000EB323B251B05FB351B15BADD001
:1013900097EC9EF013C029F114C02AF115C02BF16F
:1013A00016C02CF1BAD097EC9EF013C02DF114C0EA
:1013B0002EF115C02FF116C030F1AFD0000E010193
:1013C0001F6F25D097EC9EF013C010F114C011F1DF
:1013D00015C012F116C013F1020E01011F6115D0E4
:1013E0001F51040D0C0EF326000EF422250EF324DB
:1013F000D96E010EF420DA6E10C1DEFF11C1DEFFDE
:1014000012C1DEFF13C1DEFF1F2B040E245F040E8A
:101410002461D8D782D0000E206F25D097EC9EF0A3
:1014200013C014F114C015F115C016F116C017F150
:10143000020E0101206115D02051040D140EF32677
:10144000000EF422250EF324D96E010EF420DA6E7C
:1014500014C1DEFF15C1DEFF16C1DEFF17C1DEFFBE
:10146000202B040E245F040E2461D8D756D0030E1F
:10147000246553D097EC9EF013C049F114C04AF193
:1014800015C04BF116C04CF149C1B2F04AC1B3F0DE
:101490004BC1B4F04CC1B5F00001D890B533B433B2
:1014A000B333B233B2C04DF1B3C04EF1B4C04FF15B
:1014B000B5C050F10AD097EC9EF013C051F114C0A2
:1014C00052F115C053F116C054F1040E0101245F0E
:1014D00024D0AAECA1F00101186F24071ED024C16A
:1014E00013F0146AFBECA0F018D001011951010AA5
:1014F000D8B44ED7020AD8B456D7050AD8B45ED7A6
:101500002C0AD8B488D7190AD8B4B1D7060AD8B4E7
:10151000E0D7030AD8B4CFD7E2D70001B1BF9AD041
:10152000B15103E1B005D8A095D01DD701012151DB
:10153000D8B40DD021EE25F012EEADF02F0EDBCF9A
:10154000E3FFE806FCE2E8ECA2F0010E3C6E0101CC
:101550001E51D8B41200E4ECA2F012000101235194
:10156000D8B4120049C1D1F24AC1D2F24BC1D3F270
:101570004CC1D4F24DC1D5F24EC1D6F24FC1D7F213
:1015800050C1D8F2ADC200F2AEC201F2AFC202F257
:10159000B0C203F2B9C204F2BAC205F2BBC206F28B
:1015A000BCC207F2BDC208F2BEC209F2BFC20AF253
:1015B000C0C20BF2B5C210F2B6C211F2B7C212F23B
:1015C000B8C213F2C9C214F2CAC215F2CBC216F2E3
:1015D000CCC217F2B1C20CF2B2C20DF2B3C20EF21B
:1015E000B4C20FF20201C151C211C311C411D8B467
:1015F00016D0C1C218F2C2C219F2C3C21AF2C4C2D2
:101600001BF2C551C611C711C811D8B408D0C5C244
:101610001CF2C6C21DF2C7C21EF2C8C21FF2030EE0
:101620003C6E120001012251D8B41200000E0201DA
:10163000D16F000ED26F000ED36F000ED46F000E6C
:10164000D56F000ED66F000ED76F000ED86F000E4C
:101650003C6E120001011851020AD8B467D7070A7C
:10166000D8B47CD7030AD8A41200DCD7000E00013E
:101670007C6F010E7E6F000E7D6F000E806F080E76
:101680007F6F060E816F040E826F010E846F000E55
:10169000836F850E136E000E146E730E156E020EA0
:1016A000166E000E186E060E176ED7EC9FF0FF0E2A
:1016B000020100150001606F000E0201011500011A
:1016C000616F000E020102150001626F000E02013F
:1016D00003150001636F60C063F0626B616B606B48
:1016E000000E020100150001646FFF0E02010115DA
:1016F0000001656F000E020102150001666F000E09
:10170000020103150001676F66C067F065C066F0EF
:1017100064C065F0646B00C268F001C269F002C287
:101720006AF003C26BF069C068F06AC069F06BC010
:101730006AF06B6B000E68156C6FFF0E69156D6FAC
:10174000000E6A156E6F000E6B156F6F000E0201B2
:1017500000150001706F000E020101150001716F8C
:10176000000E020102150001726FFF0E0201031547
:101770000001736F190E05D0D89073337233713333
:101780007033E82EF9D76C517011746F6D5171116F
:10179000756F6E517211766F6F517311776F64515F
:1017A0007411786F65517511796F665176117A6F82
:1017B000675177117B6F605178118B6F615179118F
:1017C0008C6F62517A118D6F63517B118E6FFF0E9A
:1017D0002D14606F000E2E14616F000E2F14626FB7
:1017E000000E3014636F60C063F0626B616B606BFE
:1017F000000E2D14646FFF0E2E14656F000E2F1453
:10180000666F000E3014676F66C067F065C066F0E3
:1018100064C065F0646B2DC068F02EC069F02FC005
:101820006AF030C06BF069C068F06AC069F06BC0E4
:101830006AF06B6B000E68156C6FFF0E69156D6FAB
:10184000000E6A156E6F000E6B156F6F000E2D1473
:10185000706F000E2E14716F000E2F14726FFF0E3A
:101860003014736F190E05D0D890733372337133FF
:101870007033E82EF9D76C517011746F6D5171117E
:10188000756F6E517211766F6F517311776F64516E
:101890007411786F65517511796F665176117A6F91
:1018A000675177117B6F60517811956F6151791194
:1018B000966F62517A11976F63517B11986F000E8A
:1018C0008F6F000E906F000E916F000E926F000EE2
:1018D000936F000E946F580E256EFF0E266E080E45
:1018E000286E060E276E53EC90F000017C6F7C058D
:1018F000D8A413D07D0E136E000E146E000E166E5B
:101900001C0E156E74ECA0F029EC9AF000017C6FAF
:101910007C05D8A402D0050E12007C511200000EE6
:101920000001D26F000ED36F040ED46FB1BF12004E
:10193000B15104E10D0EB05DD8A0120039ECA0F059
:1019400013C0C5F014C0C6F0390EF66EFF0EF76E68
:10195000000EF86E0900F5500001C51904E10900F8
:10196000F550C619D8A4A9D097EC9EF039ECA0F098
:1019700013C0CAF014C0CBF039ECA0F013C0BBF018
:1019800014C0BCF039ECA0F00001F40EB027FF0E3B
:10199000B123B1BF92D0B15120E1B005D8B01DD074
:1019A0008CD0D251010D000EF324D96E010EF4201B
:1019B000DA6EAAECA1F0DF6E0001D22BC907C929AB
:1019C000D8A4EFD7D251010D000EF324D96E010E29
:1019D000F420DA6E2E0EDF6ED22BAAECA1F00001FD
:1019E000C96FC951D8A4EAD7FF0EB26FFF0EB36F0B
:1019F000D251B46FB56BB251B427B351B523000EB9
:101A0000B425D96E010EB521DA6E000EDF6E97ECAB
:101A10009EF00001D251B26FB36B050EB227000EDB
:101A2000B323B251B05FB351B15B43D039ECA0F0F6
:101A300039ECA0F013C0C7F014C0C8F039ECA0F026
:101A400097EC9EF013C0C1F014C0C2F015C0C3F0F3
:101A500016C0C4F039ECA0F013C0CCF014C0CDF027
:101A60000001C705C811D8A40DD097EC9EF013C093
:101A7000BDF014C0BEF015C0BFF016C0C0F015D048
:101A8000AAECA1F00001CC07D8A0CD07CC29F8E141
:101A9000CD29D8A4F5D70E0ECC25B26F000ECD21DE
:101AA000B36FB251B05FB351B15B0001CA07D8A0A8
:101AB000CB07CA51CB11D8A4B9D7000ECE6F040EF4
:101AC000CF6F080ED16FD151D8B424D020EE0CF0D6
:101AD000CE51D926CF51DA2210EE0CF0D351E126A7
:101AE000D451E222DE50E65CDE50E658DE50E65885
:101AF000E650800ABA6FDE50800ABA59D8B004D0D6
:101B0000CEC0D3F0CFC0D4F0100ECE27000ECF231E
:101B1000D107D9D7000ED06F070ED06501D01200C3
:101B2000D3C0D9FFD4C0DAFFDECF13F0DDCF14F07D
:101B3000000E156E010E166EB4EC9FF013501410CB
:101B4000D8A43AD0000E136E000E146EC3EC9EF0B3
:101B5000000120EE0CF0D351D926D451DA2213C063
:101B6000DEFF14C0DEFF15C0DEFF16C0DEFF20EE74
:101B700003F0D351D926D451DA22BDC0DEFFBEC056
:101B8000DEFFBFC0DEFFC0C0DEFF20EE07F0D35196
:101B9000D926D451DA22C1C0DEFFC2C0DEFFC3C0E5
:101BA000DEFFC4C0DEFF20EE0BF0D351D926D451A6
:101BB000DA22010EDF6E1200100E0001D327000E94
:101BC000D423D02BA9D702012491249524996AEC1F
:101BD0009FF0000E0201276F000E266F000E3F6E71
:101BE000000E3E6E000ED26E0E01FDB5FDD7D2A6E0
:101BF00005D0FDD702012493E6EC9CF060BCFAD737
:101C0000000E0E01FE6F00F000F000F0A00E0E01BD
:101C1000FE6FFDA1FED7010EA06F00F0B20E0E0107
:101C2000A26F00F0400E0E01A36F00F0120E0E0125
:101C3000A46F00F00C0E0E01A76F120EA66F00F03D
:101C4000000E0E01976F000E0001866F000E856F6B
:101C5000140E0E01E56F160EE46F1F0EE76FE669B6
:101C6000000EE96F000EE86F140EEB6F150EEA6FB1
:101C7000000E7B6E000E7A6E140EE36F160EE26F8E
:101C8000140EED6F150EEC6F050EAB6FEE0EAA6F16
:101C9000BCECA2F013C087F014C088F05E0E000107
:101CA0006D6FFF0E6E6F87C0F6FF88C0F7FF000EE6
:101CB000F86E0800F5506F6F706B010E87257B6F13
:101CC000000E88217C6F7BC0F6FF7CC0F7FF000E02
:101CD000F86E0800F550716F726B020E87257D6FEC
:101CE000000E88217E6F7DC0F6FF7EC0F7FF000EDC
:101CF000F86E0800F550736F746B030E87257F6FC5
:101D0000000E8821806F7FC0F6FF80C0F7FF000EB5
:101D1000F86E0800F550756F766B040E8725816F9D
:101D2000000E8821826F81C0F6FF82C0F7FF000E8F
:101D3000F86E0800F550776F786B050E8725836F76
:101D4000000E8821846F83C0F6FF84C0F7FF000E69
:101D5000F86E0800F550796F7A6B57ECA0F087C0E9
:101D6000F6FF88C0F7FF000EF86E0800F5CF84FE7E
:101D700000F0010E000187257B6F000E88217C6F2B
:101D80007BC0F6FF7CC0F7FF000EF86E0800F5CFB1
:101D900085FE00F0020E000187257B6F000E882172
:101DA0007C6F7BC0F6FF7CC0F7FF000EF86E08006A
:101DB000F5CF82FE00F0030E000187257B6F000E39
:101DC00088217C6F7BC0F6FF7CC0F7FF000EF86EA9
:101DD0000800F5CF83FE00F0040E000187257B6F1D
:101DE000000E88217C6F7BC0F6FF7CC0F7FF000EE1
:101DF000F86E0800F5CF80FE00F0050E0001872583
:101E00007B6F000E88217C6F7BC0F6FF7CC0F7FFE4
:101E1000000EF86E0800F5CF81FE00F0AB0E0E014B
:101E2000D86F040ED26E85C015F086C016F0000E75
:101E300096ECA1F0010E166E100E156E100E96ECBB
:101E4000A1F01D0E166E4A0E156E140E96ECA1F042
:101E500081ECA1F0590E0E01FB6F000E166E120EF2
:101E6000156E120E96ECA1F01200000E0001A76F85
:101E700002010051011102110311D8A404D0110E66
:101E80003518D8A40DD1000506E17F0E0319011104
:101E90000211D8B405D1312807E1322805E13328F1
:101EA00003E13428D8B4A0D0000E31100001996F9E
:101EB000000E32109A6F000E33109B6FFF0E34101D
:101EC0009C6F992907E19A2905E19B2903E19C2947
:101ED000D8B48AD0000E3110996F000E32109A6F6C
:101EE000FF0E33109B6FFF0E34109C6F992907E192
:101EF0009A2905E19B2903E19C29D8B475D0000EED
:101F00003110996FFF0E32109A6FFF0E33109B6FD6
:101F1000FF0E34109C6F992907E19A2905E19B294E
:101F200003E19C29D8B460D03150020100190001AE
:101F3000996F32500201011900019A6F335002016A
:101F4000021900019B6F34500201031900019C6FBC
:101F500002010C51000199159D6F02010D51000104
:101F60009A159E6F02010E5100019B159F6F020191
:101F70000F5100019C15A06F9D519E119F11A01142
:101F8000D8A409D031C0A1F032C0A2F033C0A3F070
:101F900034C0A4F008D010C2A1F011C2A2F012C245
:101FA000A3F013C2A4F0A1C013F0A2C014F0A3C008
:101FB00015F0A4C016F06AEC9EF013C0A5F014C092
:101FC000A6F00001A551A611D8A413D0A1C02DF0F0
:101FD000A2C02EF0A3C02FF0A4C030F036EC8BF0DE
:101FE0000001A76FA7511200580E0001A56FFF0E48
:101FF000A66FA5C025F0A6C026F0080E286E000E1C
:10200000276E53EC90F00001A76FA705D8A448D025
:10201000450E146E000E136EAAECA2F0000E146EA4
:10202000000E136EAAECA2F0000E136E400E146E9A
:10203000550E156EAA0E166E32ECA2F0400EDFECB5
:10204000A2F03550DFECA2F0000E146E000E136EFD
:10205000AAECA2F000C213F001C214F002C215F003
:1020600003C216F032ECA2F031C013F032C014F00B
:1020700033C015F034C016F032ECA2F000C254F2B6
:1020800001C255F202C256F203C257F231C058F2F1
:1020900032C059F233C05AF234C05BF235C051F24B
:1020A0000001A7511200000E2B6E000E2C6E0201D3
:1020B00024B502D0020E120042504310D8B40CD006
:1020C00042C0D9FF43C0DAFFDECF29F0DDCF2AF0CE
:1020D00029A002D0030E12000C0E0E01E25D1A0EB2
:1020E000E359D8A00FD0D2A602D0040E120051ECB2
:1020F00094F00C0E0E01E25D1A0EE359D8A002D046
:10210000030E120074EC92F013C02BF014C02CF0EC
:102110002B502C10D8A402D0030E12002BC0D9FFD4
:102120002CC0DAFFDECF29F0DDCF2AF0010E291214
:10213000000E2A122BC0D9FF2CC0DAFF29C0DEFF07
:102140002AC0DDFF20EE02F02B50D9262C50DA22D7
:10215000DECFE2FEDDCFE3FED5ECA2F0060EEFEC23
:10216000A2F025C0F6FF26C0F7FF000EF86E0F0E96
:10217000F76403D00800F55005D0F6CFE9FFF7CF9C
:10218000EAFFEF50EFECA2F0010E2524296E000EBD
:1021900026202A6E29C0F6FF2AC0F7FF000EF86E2F
:1021A0000F0EF76403D00800F55005D0F6CFE9FF15
:1021B000F7CFEAFFEF50EFECA2F0020E2524296ED4
:1021C000000E26202A6E29C0F6FF2AC0F7FF000E57
:1021D000F86E0F0EF76403D00800F55005D0F6CF67
:1021E000E9FFF7CFEAFFEF50EFECA2F0030E252452
:1021F000296E000E26202A6E29C0F6FF2AC0F7FF9E
:10220000000EF86E0F0EF76403D00800F55005D0ED
:10221000F6CFE9FFF7CFEAFFEF50EFECA2F0040EA4
:102220002524296E000E26202A6E29C0F6FF2AC01A
:10223000F7FF000EF86E0F0EF76403D00800F5509C
:1022400005D0F6CFE9FFF7CFEAFFEF50EFECA2F0B1
:10225000050E2524296E000E26202A6E29C0F6FFC1
:102260002AC0F7FF000EF86E0F0EF76403D00800C7
:10227000F55005D0F6CFE9FFF7CFEAFFEF50EFECCE
:10228000A2F00E018451EFECA2F00E018551EFECAB
:10229000A2F00E018251EFECA2F00E018351EFEC9F
:1022A000A2F00E018051EFECA2F00E018151EFEC93
:1022B000A2F02850EFECA2F02750EFECA2F02B0E8A
:1022C000F6ECA2F0010E12003A6EFF0E0001A86FAC
:1022D000FF0EA96FFF0EAA6FFF0EAB6F000EAD6F62
:1022E000440EAC6F000EAF6F430EAE6F0FEC9EF05E
:1022F000396E3904D8A4F6D0000E136E060E146E93
:10230000010E156E010E166E32ECA2F0CDC213F066
:10231000CEC214F0CFC215F0D0C216F032ECA2F04B
:10232000000E136E800E146E000E156E000E166EEB
:1023300032ECA2F0030E3A18D8A40BD0000E136EA4
:10234000000E146E000E156E000E166E32ECA2F02A
:102350000AD0ADC213F0AEC214F0AFC215F0B0C2D5
:1023600016F032ECA2F0000E136E000E146E000E8A
:10237000156E000E166E32ECA2F0000E136E000EFB
:10238000146E000E156E000E166E32ECA2F0000EEA
:10239000136E000E146E000E156E000E166E32ECEB
:1023A000A2F0730E136E020E146E000E166E060E61
:1023B000156E74ECA0F0000E156ECA0E146E3FEC94
:1023C000A2F0630E136E530E146E820E156E630E22
:1023D000166E32ECA2F00C0EDFECA2F03B0E136E88
:1023E000FF0E146E18EC9FF01350DFECA2F03B0EC2
:1023F000136EFF0E146E8FEC9FF02A0EDFECA2F02E
:10240000040EDFECA2F0000E136E000E146E000E30
:10241000156E000E166E32ECA2F0350EDFECA2F057
:10242000010EDFECA2F03A50DFECA2F0030E3A18F6
:10243000D8A420D0320EDFECA2F0040EDFECA2F024
:10244000ADC213F0AEC214F0AFC215F0B0C216F0B8
:1024500032ECA2F0360EDFECA2F0040EDFECA2F0BC
:10246000D9C213F0DAC214F0DBC215F0DCC216F0E8
:1024700032ECA2F0370EDFECA2F0040EDFECA2F09B
:10248000010EDFECA2F0030EDFECA2F0060EDFEC93
:10249000A2F00F0EDFECA2F0390EDFECA2F0020E7C
:1024A000DFECA2F0020E146E000E136EAAECA2F086
:1024B0003D0EDFECA2F0070EDFECA2F0010EDFEC28
:1024C000A2F0730E136E020E146E000E166E060E40
:1024D000156E74ECA0F0FF0EDFECA2F099EC97F013
:1024E000010E1200000E1200000E176E140E451899
:1024F000D8A4EBD0000E146E000E136E120017500D
:102500000A0D000EF324D96E030EF420DA6E0301D7
:10251000DFB4DAD017500A0D000EF324D96E030E83
:10252000F420DA6E000EDE6E000EDD6E17500A0D1E
:10253000000EF324D96E030EF420DA6EDECF15F010
:10254000DDCF16F0040E1512000E161217500A0DEC
:10255000000EF324D96E030EF420DA6E15C0DEFFF0
:1025600016C0DDFF17500A0D040EF326000EF422EC
:10257000000EF324D96E030EF420DA6EFF0EDE6E29
:102580001F0EDD6E17500A0D060EF326000EF42204
:10259000000EF324D96E030EF420DA6E000EDE6E08
:1025A000000EDD6E17500A0D080EF326000EF42201
:1025B000000EF324D96E030EF420DA6E42C0DEFF63
:1025C00043C0DDFF42504310D8B454D017500A0D19
:1025D000000E156E030E166EF3501526F4501622DB
:1025E00020EE06F04250D9264350DA2215C0DEFF15
:1025F00016C0DDFF20EE04F04250D9264350DA2207
:10260000DECF15F0DDCF16F0070E1526000E1622D0
:1026100017500A0D020EF326000EF422000EF324CA
:10262000D96E030EF420DA6E15C0DEFF16C0DDFF92
:1026300017500A0D020EF326000EF422000EF324AA
:10264000D96E030EF420DA6EDECF15F0DDCF16F072
:1026500015A028D017500A0D020EF326000EF42202
:10266000000EF324D96E030EF420DA6EDE2A000E7B
:10267000DD2218D017500A0D020EF326000EF422A8
:10268000000EF324D96E030EF420DA6E160EDE6E01
:10269000140EDD6E17500A0D000EF324406E030E6B
:1026A000F420416E17500A0D000EF324426E030E03
:1026B000F420436E452A17500A0D000EF324136EC2
:1026C000030EF420146E1200172A130E176417D786
:1026D000000E146E000E136E1200000E0001DB6F70
:1026E0006B0E136E020E146E000E166E080E156E33
:1026F000EEEC9EF0020171517211D8B405D00001C8
:10270000D551D611D8A4C9D002016D510001D86F9E
:10271000D76B22EE6DF0DECFD9F0DDCFDAF0DAC084
:10272000D9F0DA6BFF0ED917000EDA17D751D9118D
:1027300002016D6F0001D851DA1102016E6F6B5109
:102740000001D86FD76B6BC2D9F06CC2DAF0DAC077
:10275000D9F0DA6BFF0ED917000EDA17D751D9115D
:102760000201406F0001D851DA110201416F6F512F
:102770000001D86FD76B22EE6FF0DECFD9F0DDCF3E
:10278000DAF0DAC0D9F0DA6BFF0ED917000EDA17DB
:10279000D751D91102016F6F0001D851DA1102012E
:1027A000706F0D0E0001DB6FC1ECA2F013C0DCF006
:1027B00014C0DDF04CD0DCC0F6FFDDC0F7FF000E2A
:1027C000F86E02016D510900F51837E16E510900EC
:1027D000F518D8A432D077ECA2F002016F5113188B
:1027E00028E170511418D8A424D0F80E6F250001E8
:1027F000B06FFF0E020170210001B16F020EDC25E7
:10280000D76F000EDD21D86FD7C0F6FFD8C0F7FF15
:10281000000EF86E01D80DD00500FA6E0900F550D3
:10282000FD6E0900F550FE6E0900F550FF6EFA507E
:102830001200010E0001DB6F0FD0DCC015F0DDC00F
:1028400016F0ADECA0F015C0DCF016C0DDF0000114
:10285000DC51DD11D8A4AFD70D0EDB19D8A41200BE
:1028600058C2A8F059C2A9F05AC2AAF05BC2ABF094
:1028700054C2ACF055C2ADF056C2AEF057C2AFF084
:10288000050E02016F250001B06F000E02017021DC
:102890000001B16F18EC97F012000A0E0001DB6F17
:1028A000120020EE04F04250D9264350DA22DECF47
:1028B00019F0DDCF1AF020EE02F04050D926415039
:1028C000DA22DECF1BF0DDCF1CF01B1E1C1E1B4AC4
:1028D0001C2A19501B24216E1A501C20226ED890DD
:1028E00021341F6E2234206E01D000F0D2AA07D00E
:1028F0001F06D8A020061F502010D8A4F6D7D2BAA1
:102900009BD0140E0E01F56F160EF46F20EE02F040
:102910004050D9264150DA22DECFF0FEDDCFF1FE65
:1029200020EE04F04250D9264350DA22DECFF2FEE8
:10293000DDCFF3FED298D28A21C013F022C014F06A
:10294000000E166E280E156EBDECA1F013C01FF020
:1029500014C020F001D000F0D2AA07D01F06D8A0E2
:1029600020061F502010D8A4F6D7D2BA65D042C096
:1029700023F043C024F020EE02F04050D92641500D
:10298000DA22DECF1DF0DDCF1EF04AD020EE02F0BD
:102990002350D9262450DA22DECF19F0DDCF1AF0E9
:1029A0001DC01BF01EC01CF01B1E1C1E1B4A1C2A37
:1029B00019501B261A501C2220EE02F02350D92653
:1029C0002450DA221BC0DEFF1CC0DDFF20EE04F025
:1029D0002350D9262450DA22DECF19F0DDCF1AF0A9
:1029E0001DC01BF01EC01CF01B1E1C1E1B4A1C2AF7
:1029F00019501B261A501C2220EE04F02350D92611
:102A00002450DA221BC0DEFF1CC0DDFF20EE08F0E0
:102A10002350D9262450DA22DECF23F0DDCF24F054
:102A200023502410D8A4B2D7160E21240E01E26F31
:102A3000140E2220E36F1200FF001200000E0001AE
:102A4000B56F000EB46F000EB86F39ECA0F013C074
:102A5000AEF014C0AFF039ECA0F013C0B0F014C069
:102A6000B1F0000120EE0CF0A851D926A951DA22CC
:102A7000DECF31F0DECF32F0DECF33F0DECF34F018
:102A800020EE09F0A851D926A951DA22DF50356E7F
:102A900035EC8FF00001B86FB805D8A488D020EECF
:102AA00002F0A851D926A951DA22DECFAAF0DDCF53
:102AB000ABF0EC0EAA25B66FFF0EAB21B76F20EE80
:102AC00002F0A851D926A951DA22DECFAAF0DDCF33
:102AD000ABF0A8C0D9FFA9C0DAFFDF500F0BAC6F75
:102AE000AD6BD890AC37AD37D890AC37AD37AC1FA5
:102AF000AD1FAC4BAD2BAA51AC25B66FAB51AD2180
:102B0000B76F000E146E000E136EAAECA2F0000E4A
:102B1000146E000E136EAAECA2F0AEC013F0AFC09C
:102B200014F0AAECA2F0B0C013F0B1C014F0AAECFB
:102B3000A2F0F80E0001B625196EFF0EB7211A6E2D
:102B4000D2EC99F00001B86FB805D8A430D0000ECF
:102B5000B56F220EB46F000EB36F220EB26FB2C00B
:102B600025F0B3C026F0B6C027F0B7C028F0000E9D
:102B70002A6E000E296E66EC99F025C0B4F026C0CE
:102B8000B5F0B40E136E000E146E000E166E020E2B
:102B9000156E000E186E240E176EB0EC9DF0B6C0C8
:102BA00037F0B7C038F01CEC9BF00001B86FB8519B
:102BB0001200000E136E000E146EC3EC9EF013C0D4
:102BC000B1F014C0B2F015C0B3F016C0B4F00201F9
:102BD0002A510001B15D02012B510001B2590201DD
:102BE0002C510001B359B451800AB06F02012D512C
:102BF000800A0001B059D8B066D073D0040E02012B
:102C0000D16F000ED26F000ED36F000ED46F010E85
:102C100037D0020E0201D119D211D311D411D8A488
:102C200003D0020E3D6E05D0D107000ED25BD35B00
:102C3000D45B020ED519D611D711D811D8A402D061
:102C4000030E1ED0D507000ED65BD75BD85B49D0EC
:102C500037EC9CF00009D8B444D00A0E0201D16FC1
:102C6000000ED26F000ED36F000ED46FFF0ED56F23
:102C7000FF0ED66FFF0ED76F7F0ED86F000E1FD0DE
:102C80003D6E2FD0E8ECA2F00009D8B42AD01E0E79
:102C90000201D16F000ED26F000ED36F000ED46F01
:102CA0000F0ED56F000ED66F000ED76F000ED86FC7
:102CB000030E3C18D8A402D0020E01D0010E3C6EC7
:102CC000A6D7000EDDD73D50000AD8B497D7010A29
:102CD000D8B49FD7030AD8B4BBD7010AD8B4D2D787
:102CE000F0D7010E0001B12502012A6F000E00018C
:102CF000B22102012B6F000E0001B32102012C6FE3
:102D0000000E0001B42102012D6F120015C01FF04A
:102D100016C020F0216A226A16D0000E246E000E22
:102D2000236EDAECA2F0246EDAECA2F0236E2350CC
:102D30001F2624502022000E2122000E2222020EE5
:102D4000135E000E145A1450E8E1020E135CD8B062
:102D5000E4D713501410D8B43BD0000E246E000EEC
:102D6000236EDAECA2F0246E000E236E23501F2691
:102D700024502022000E2122000E222229D01FC022
:102D800017F020C018F021C019F022C01AF0110E5F
:102D900005D0D8901A32193218321732E82EF9D7E6
:102DA000FF0E1F141B6EFF0E20141C6E000E21144C
:102DB0001D6E000E22141E6E17501B241F6E18501D
:102DC0001C20206E19501D20216E1A501E20226ECC
:102DD0001FC017F020C018F021C019F022C01AF04F
:102DE000110E05D0D8901A32193218321732E82E47
:102DF000F9D71750181019101A10D8A4C0D71FC02F
:102E000017F020C018F021C019F022C01AF0171EC8
:102E1000181E191E1A1E17C01FF018C020F019C066
:102E200021F01AC022F01FC013F020C014F01200CD
:102E3000000E3B6E000E3A6E000E396E0001A85176
:102E40000201001975E10001A9510201011970E1A7
:102E50000001AA51020102196BE10001AB5102010C
:102E60000319D8A41200ACC031F0ADC032F0AEC02E
:102E700033F0AFC034F0010E356E35EC8FF03B6EA1
:102E80003B04D8A41200030E146E030E136EAAECBA
:102E9000A2F0000E146E000E136EAAECA2F0000E4B
:102EA000136E000E146E000E156E000E166E32ECD0
:102EB000A2F0C6ECA2F013C015F014C016F0CBECD3
:102EC000A2F0140E0001B025196E000EB1211A6E89
:102ED000D2EC99F0000E266E220E256E180E00011F
:102EE000B025276E000EB121286E000E2A6E000E4E
:102EF000296E66EC99F025C039F026C03AF0390EFB
:102F0000136E000E146E000E166E020E156E000E7D
:102F1000186E240E176EB0EC9DF0180E0001B0254F
:102F2000376E000EB121386E1CEC9BF03B6E120028
:102F30001200000E0001736FE2ECA1F013C076F0F6
:102F400014C077F000017651706F6F6B76C071F02E
:102F500077C072F072C071F0726BFF0E7117000EC5
:102F600072176F517111766F70517211776F760E03
:102F7000136E000E146E000E166E020E156E000E0D
:102F8000186E260E176EB0EC9DF000017651706F32
:102F90006F6B76C071F077C072F072C071F0726BB7
:102FA000FF0E7117000E72176F517111766F70510D
:102FB0007211776F110E7625746F000E7721756F81
:102FC000000E266E1A0E256E080E7625276E000E50
:102FD0007721286E74C029F075C02AF066EC99F04C
:102FE00025C074F026C075F0000174517511D8A485
:102FF00002D074697569740E136E000E146E000EA3
:10300000166E020E156E000E186E280E176EB0ECBE
:103010009DF076C037F077C038F01CEC9BF00001D3
:10302000736F1200000E0001BF6FC00E136E000E12
:10303000146E000E166E040E156EEEEC9EF000017E
:1030400020EE10F0B951D926BA51DA22DE2832E149
:10305000DE2830E1DE282EE1DE28D8B412002AD0A6
:10306000B9C0A8F0BAC0A9F01EEC95F00001BF6F7E
:103070001200000E146E040E136EFBECA0F0B9C02B
:1030800013F0BAC014F0000E166E140E156EEEECAE
:103090009EF0B9C0D9FFBAC0DAFF0001DF500F0BB4
:1030A000050AD8A4120039ECA0F013C042F214C0F3
:1030B00043F212000001C051BC6FBB6BC0C0BDF039
:1030C000C1C0BEF0BEC0BDF0BE6BFF0EBD17000E8E
:1030D000BE17BB51BD13BC51BE13BE51030AD8B4B9
:1030E00004D00B0AD8A4120005D0BD51030AD8A4FD
:1030F0001200BFD7BD51000AD8B4B2D72A0AD8B43B
:10310000AFD7D60AD8A41200ABD7000E176E000EA8
:10311000186E13501410D8B412004550D8B41200D1
:1031200013C017F014C018F020EE08F01750D9267D
:103130001850DA22DE50DE10D8A418D020EE06F0A7
:103140001750D9261850DA22DECF40F0DDCF41F0FB
:1031500040504110D8B40AD020EE08F04050D92693
:103160004150DA22000EDE6E000EDD6E20EE06F01B
:103170001750D9261850DA22DE50DE10D8A418D005
:1031800020EE08F01750D9261850DA22DECF42F090
:10319000DDCF43F042504310D8B40AD020EE06F001
:1031A0004250D9264350DA22000EDE6E000EDD6E4C
:1031B00017C0D9FF18C0DAFF000EDE6E000EDD6EFC
:1031C00020EE06F01750D9261850DA22000EDE6ED7
:1031D000000EDD6E20EE08F01750D9261850DA22C6
:1031E000000EDE6E000EDD6E45061200000E206E33
:1031F000000E216E000E226E000E236E54C224F0CB
:1032000055C225F056C226F057C227F058C228F002
:1032100059C229F05AC22AF05BC22BF051C22CF0DD
:10322000000E2D6E13C02EF014C02FF00C0E1F6E6A
:10323000D8901F301F6E240E1D6E000E1E6E15D00E
:103240001DC0D9FF1EC0DAFFDECF15F0DDCF16F0AE
:103250001550202616502122000E2222000E232275
:103260001F06020E1D26000E1E221F50D8A4E8D7EE
:1032700020C015F021C016F022C017F023C018F0AE
:10328000110E05D0D8901832173216321532E82EAA
:10329000F9D7FF0E2014196EFF0E21141A6E000EBE
:1032A00022141B6E000E23141C6E15501924206E60
:1032B00016501A20216E17501B20226E18501C2009
:1032C000236E20C013F021C014F012007ACF60F0FA
:1032D0007BCF61F020EE02F04250D9264350DA2233
:1032E000DECF2BF0DDCF2CF025502B2626502C22C4
:1032F000010E2B247A6E000E2C207B6E27C013F05B
:1033000028C014F029C015F02AC016F086EC96F0FB
:1033100013C062F014C063F00001646B656B60C0A1
:103320007AFF61C07BFFFF0E62152B6E000E6315E6
:103330002C6E000E64152D6E000E65152E6E2DC0C0
:103340002EF02CC02DF02BC02CF02B6AFF0E62C08B
:103350002FF063C030F064C031F065C032F030C08F
:103360002FF031C030F032C031F0326A2F14336E9A
:10337000000E3014346E000E3114356E000E32140F
:10338000366E2B503310626F2C503410636F2D50FB
:103390003510646F2E503610656F62C025F063C023
:1033A00026F01200D89019341B6E1A341C6E01D00E
:1033B00000F0D2AA07D01B06D8A01C061B501C1078
:1033C000D8A4F6D7D2BA42D0E2CEF4FEE3CEF5FED0
:1033D0007ACFF0FE7BCFF1FE19507A241D6E1A5081
:1033E0007B201E6E160E1D5C140E1E58D8A006D033
:1033F000EB0E1D241D6EEB0E1E201E6E1DC0F2FE78
:103400001EC0F3FED298D28A19C013F01AC014F06D
:10341000000E166E280E156EBDECA1F013C01BF049
:1034200014C01CF001D000F0D2AA07D01B06D8A00F
:103430001C061B501C10D8A4F6D7D2BA07D01950BE
:103440000E01E2271A50E323010E1200FF000C0EBA
:103450001200FF0E0E01E2251B6EFF0EE3211C6E13
:10346000020124B502D0020E12004550D8A402D0A9
:10347000030E1200FE0E176EFF0E186E42C0D9FF2B
:1034800043C0DAFFDECF19F0DDCF1AF0175019165E
:1034900018501A1642C0D9FF43C0DAFF19C0DEFF28
:1034A0001AC0DDFF20EE04F04250D9264350DA2244
:1034B0001BC0DEFF1CC0DDFF42C0D9FF43C0DAFFE6
:1034C000DECF17F0DDCF18F0020E1712000E181223
:1034D00042C0D9FF43C0DAFF17C0DEFF18C0DDFFCE
:1034E000D2B603D0010E456405D07E0EF6ECA2F0F4
:1034F000020E1200F7EC9BF0120042D013C0D9FF6D
:1035000014C0DAFFDF50196E15C0F6FF16C0F7FFC2
:10351000000EF86E0F0EF76403D00800F55005D0CA
:10352000F6CFE9FFF7CFEAFFEF501918D8B424D04F
:1035300015C0F6FF16C0F7FF000EF86E0F0EF76409
:1035400003D00800F55005D0F6CFE9FFF7CFEAFF2A
:10355000EF50196E1A6A191E1A1E194A1A2A13C038
:10356000D9FF14C0DAFFDF501B6E1B501924136EF5
:10357000000E1A20146E1200134A142A154A162A35
:103580001706D8A018061728B9E11828D8A4B6D766
:10359000000E146E000E136E1200020124A312001E
:1035A0001AECA0F0E10E136E020E146E000E166EF1
:1035B0000E0E156EEEEC9EF00201ED51DE6FDD6B2E
:1035C00022EEEDF0DECFDFF2DDCFE0F2E0C2DFF29F
:1035D000E06BFF0EDF17000EE017DD51DF11ED6F1E
:1035E000DE51E011EE6F06D008EC86F022D05DECE3
:1035F00083F01FD022EEEDF0DECFDDF2DDCFDEF284
:103600000201DE51080AD8B407D0890AD8B40CD018
:10361000070AD8B40CD00DD0DD51000AD8B4E7D7D2
:10362000060AD8B4E1D705D0DD51000A02D0DD5139
:10363000DD0AE6EC9CF01200140E372400016D6FD9
:10364000000E38206E6F6D51676F666B6DC068F04D
:103650006EC069F069C068F0696BFF0E6817000EF4
:103660006917665168116D6F675169116E6F6D0E44
:10367000136E000E146E000E166E020E156E000E06
:10368000186E100E176EB0EC9DF0000E266E0E0E2A
:10369000256E000E286E140E276E000E2A6E000E88
:1036A000296E66EC99F025C06BF026C06CF06B0EAD
:1036B000136E000E146E000E166E020E156E000EC6
:1036C000186E180E176EB0EC9DF029EC9AF0000100
:1036D0006A6F6A511200000E0201006F000E016F46
:1036E000000E026F000E036F000E0C6F000E0D6FC8
:1036F000000E0E6F000E0F6F000E106F000E116F98
:10370000000E126F000E136F000E136E010E136485
:1037100001D00ED01350040D040EF324D96E020E06
:10372000F420DA6EDE6ADE6ADE6ADD6A132AEED71C
:10373000000E146E010E146401D00ED01450040D4E
:10374000180EF324D96E020EF420DA6EDE6ADE6AF9
:10375000DE6ADD6A142AEED7000E0201206F000E29
:10376000216F000E226F000E236F1200000E1B6EE1
:10377000000E1C6E000E1D6E000E1E6E17501810EF
:1037800019101A10D8B42AD0010E1F6E06D0D89086
:103790001736183619361A361F2A1AAEF8D7D890A7
:1037A0001B361C361D361E361750135C1850145825
:1037B000195015581A501658D8A009D01750135E32
:1037C0001850145A1950155A1A50165A1B80D8906E
:1037D0001A321932183217321F2EE1D71BC013F0DC
:1037E0001CC014F01DC015F01EC016F0120042C01F
:1037F000D9FF43C0DAFFDECF13F0DDCF14F013A200
:1038000034D0FD0E136EFF0E146E42C0D9FF43C0BC
:10381000DAFFDECF15F0DDCF16F013501516145079
:10382000161642C0D9FF43C0DAFF15C0DEFF16C02E
:10383000DDFF20EE02F04050D9264150DA22DECFE3
:10384000E4FEDDCFE5FE20EE04F04050D9264150E5
:10385000DA22DECFE6FEDDCFE7FE00F000F0D28612
:103860002D0EF6ECA2F0010E1200030E120000C2A3
:10387000ADF201C2AEF202C2AFF203C2B0F24CEC42
:10388000A2F03B6E3B500201CD6FCE6BCF6BD06B85
:10389000CFC2D0F2CEC2CFF2CDC2CEF2CD6B4CECC5
:1038A000A2F03B6E3B500201CD13CFC2D0F2CEC28C
:1038B000CFF2CDC2CEF2CD6B4CECA2F03B6E3B50C2
:1038C0000201CD13CFC2D0F2CEC2CFF2CDC2CEF222
:1038D000CD6B4CECA2F03B6E3B500201CD13010EC0
:1038E00064EC91F01200196E000E1A6E000E1B6E41
:1038F000000E1C6E000E1D6EE2ECA0F00009D8A4B4
:103900001FD019C0B4FE000E0E01B26FB28100F0DC
:1039100000F0E2ECA0F0FF0AD8A409D0FD0E1A6E68
:10392000FF0E1B6EFF0E1C6EFF0E1D6E0DD00E01E6
:10393000B291B8CE1AF0B9CE1BF01C6A1D6A04D041
:103940001A681B681C681D681AC015F01BC016F0A9
:103950001CC017F01DC018F01200A00EF66E3A0E33
:10396000F76E010EF86E02EE7DF010EE60F00900C9
:10397000F5CFEEFFE550E150FAE1E80EF66E450EA8
:10398000F76E010EF86E0900F5CF4BF00900F5CF88
:103990004CF004EE00F0E80EEE6AE806FDE103EEFE
:1039A00000F0C80EEE6AE806FDE102EE00F07D0EC2
:1039B000EE6AE806FDE100EE3CF00B0EEE6AE8066A
:1039C000FDE14D904D92000187EFA2F0020124939A
:1039D0000E01FE514009FE6FFF0E136EFF0E146EB6
:1039E0003EC015F03FC016F0135015261450162295
:1039F000E851155CE9511658D8A012D0FF0E136E8D
:103A0000FF0E146E3EC015F03FC016F01350152681
:103A1000145016221550EA5D1650EB59D8B005D057
:103A2000EACEECFEEBCEEDFE06D0FF0E3E24EC6FB0
:103A3000FF0E3F20ED6FFB8D120024502510261045
:103A40002710D8B424D0010E286E06D0D890243682
:103A5000253626362736282A27AEF8D72450205C6C
:103A6000255021582650225827502358D8A008D036
:103A70002450205E2550215A2650225A2750235A7E
:103A8000D8902732263225322432282EE7D720C07C
:103A900020F021C021F022C022F023C023F0120028
:103AA0000000000000000000000000000000000016
:103AB0000000000000000000000000000000000006
:103AC00000000000100E0000100E000000000000BA
:103AD00000000000000000000000000000000000E6
:103AE00000000000000000000000000000000000D6
:103AF000000000000A000000100E0000000000009E
:103B00003DEC9EF0CDEC9AF0D9EC95F0EF0E136EF3
:103B1000020E146EC3EC9EF002017951EF5D7A51F2
:103B2000F0597B51F159F251800A0001FF6F0201F7
:103B30007C51800A0001FF59D8A009D013ECA1F0F4
:103B40000A0E02017927000E7A237B237C23EFC221
:103B500032F2F0C233F2F1C234F2F2C235F21200A4
:103B6000E2CE1BF0E3CE1CF020EE02F04250D9264C
:103B70004350DA22DECF19F0DDCF1AF017501926A4
:103B800018501A22010E19240E01E26F000E1A209D
:103B9000E36F09D013C0D9FF14C0DAFFDF50EFEC98
:103BA000A2F0134A142A1506D8A016061528F2E129
:103BB0001628D8A4EFD71BC0E2FE1CC0E3FE1200FB
:103BC00013C0D9FF14C0DAFF84CEDFFF134A142AD2
:103BD00013C0D9FF14C0DAFF85CEDFFF134A142AC1
:103BE00013C0D9FF14C0DAFF82CEDFFF134A142AB4
:103BF00013C0D9FF14C0DAFF83CEDFFF134A142AA3
:103C000013C0D9FF14C0DAFF80CEDFFF134A142A95
:103C100013C0D9FF14C0DAFF81CEDFFF1200000EFF
:103C2000366EA8C031F0A9C032F0AAC033F0ABC0E4
:103C300034F0110E356E35EC8FF0366E3604D8A4A4
:103C40001AD0D5ECA2F0ACC013F0ADC014F0AAECC1
:103C5000A2F0AEC013F0AFC014F0AAECA2F0000EB8
:103C6000146E000E136EAAECA2F0000E146E000E7D
:103C7000136EAAECA2F036501200A19A60A807D0E9
:103C8000130E73EC9CF00201248981ECA1F060B06A
:103C9000609060B2609260A614D0609640C013F04D
:103CA00041C014F085EC98F04550D8B40AD00C0E01
:103CB0000E01E25D1A0EE359D8B051EC94F0F7EC26
:103CC0009BF060AC1200020124B3120024830E01A9
:103CD000FB9D1200800E1B6E040E1C6E000E1D6EEE
:103CE000070E1D6401D01ED020EE06F01B50D92611
:103CF0001C50DA221350DE180FE11450DE180CE1CC
:103D00001550DE1809E11650DE18D8A405D01BC0E6
:103D100013F01CC014F012000D0E1B26000E1C2206
:103D20001D2ADED7000E136E000E146E1200000E58
:103D3000176E000E186E000E196E000E1A6E02013C
:103D40003B5104E1040E3A5DD8A013D0DAECA2F0A6
:103D50001A6EDAECA2F0196EDAECA2F0186EDAEC58
:103D6000A2F0176E040E02013A5F000E3B5B249135
:103D700001D0248117C013F018C014F019C015F039
:103D80001AC016F01200000EF2BE010E176EF29E5F
:103D90002EC218F02FC219F030C21AF031C21BF037
:103DA00017A002D0F28E01D0F29E13501410D8B496
:103DB0000CD013C0D9FF14C0DAFF18C0DEFF19C041
:103DC000DEFF1AC0DEFF1BC0DEFF18C013F019C0F3
:103DD00014F01AC015F01BC016F01200000E186E79
:103DE000000E176E13C019F014C01AF013D0DAECDD
:103DF000A2F019C0D9FF1AC0DAFFDF6E194A1A2AD9
:103E0000174A182A1506D8A0160602013A07D8A0A4
:103E10003B07249102013A513B11D8B404D015500C
:103E20001610D8A4E4D717C013F018C014F012006D
:103E300013C017F014C018F002D0174A182A17C080
:103E4000F6FF18C0F7FF000EF86E0F0EF76403D0F0
:103E50000800F55005D0F6CFE9FFF7CFEAFFEF50A5
:103E60000009D8A4EAD713C015F014C016F0151E27
:103E7000161E154A162A17501524136E18501620B0
:103E8000146E12007ACF2DF07BCF2EF025C013F0E8
:103E900026C014F027C015F028C016F086EC96F066
:103EA00013C02FF014C030F0316A326A2DC07AFF8F
:103EB0002EC07BFF2F502A6E296AFF0E30142B6E06
:103EC000000E31142C6E29502B10256E2A502C1008
:103ED000266E1200000E166E000E156E000E136E8A
:103EE000030E146E000E456E000E426E000E436E01
:103EF000000E406E000E416E0AD015501324D96E8C
:103F000016501420DA6E000EDF6E154A162A16506F
:103F100005E1C80E155CD8B01200EFD71200000EF4
:103F2000166E000E156E0ED013C0F6FF14C0F7FF0C
:103F3000000EF86E0800F550EFECA2F0134A142AB8
:103F4000154A162A13C0F6FF14C0F7FF000EF86ECC
:103F50000800F5500009D8B412000E01E2291F0E26
:103F6000E359D8B01200E0D704D0134A142A154AF6
:103F7000162A13C0D9FF14C0DAFFDF50176E15C020
:103F8000D9FF16C0DAFFDF5000081724186E18504A
:103F9000D8A407D013C0D9FF14C0DAFFDF50D8A4CB
:103FA000E4D71850136E146A13BE1406120015C01D
:103FB0001CF016C01DF013C01AF014C01BF010D076
:103FC0001CC0D9FF1DC0DAFFDF50196E1C4A1D2A24
:103FD0001AC0D9FF1BC0DAFF19C0DFFF1A4A1B2A1B
:103FE0001706D8A018061728EBE11828D8B4120035
:103FF000E7D7180E8D6E000E8C6E000E896E000EC7
:104000008E6E000E8A6E000E8F6E010E8B6E000E8D
:10401000966E7E0E976E2C0E926E000E986EDF0ED0
:10402000936E900E946E000E956EC150F00B0309C6
:10403000C16E12003EC07AFF3FC07BFFDAECA2F0F7
:104040003E6EDAECA2F03F6EDAECA2F002013A6FBB
:10405000DAECA2F002013B6FDAECA2F002013C6F55
:10406000DAECA2F002013D6F040E3A5F000E3B5BFA
:104070001200000E166E000E156E02013B5104E197
:10408000020E3A5DD8A00DD0DAECA2F0166EDAEC92
:10409000A2F0156E020E02013A5F000E3B5B249106
:1040A00001D0248115C013F016C014F01200000EC8
:1040B000356E000E366EEC0E376E450E386E010E04
:1040C000396E6F0E336E000E346E350E296E000E93
:1040D0002A6E6DC02BF06EC02CF0330E2D6E000ECC
:1040E0002E6E00EC80F0120013C017F014C018F010
:1040F00009D017C0D9FF18C0DAFFDF50EFECA2F0EB
:10410000174A182A1506D8A01606152803E11628FE
:10411000D8B412000E01E2291F0EE359D8B01200E4
:10412000E8D7D70ED76E4E0ED66ED650D7CF16F034
:10413000176A16C017F0166A1610476E1750486EA9
:10414000F294F28AF00E136E450E146E010E156E87
:104150008EECA2F09F0ED56E1200C1ECA2F0320ED2
:104160001324176E000E1420186E050E1526000E6F
:1041700016221750155C18501658D8B005D015C027
:1041800015F016C016F01200000E156E000E166E19
:104190001200000E156E070E156401D00CD01550DC
:1041A000010D800EF324D96E040EF420DA6E000E99
:1041B000DF6E152AF0D7730E136E020E146EE0EC4C
:1041C0009DF01200000E136E000E146E090E1464A2
:1041D00001D003D000F0142AF9D75A0E146E01D082
:1041E00000F00E018AA102D0142EFAD71450D8B4D0
:1041F00013681350120002013A51135C3B511458DA
:10420000D8A004D03AC213F03BC214F013501410DB
:10421000D8B4120013507A2614507B2213503A5F00
:1042200014503B5B1200800E136E040E146E000ED1
:10423000156E070E156401D0120020EE0CF013501D
:10424000D9261450DA22DF2A0D0E1326000E14226E
:10425000152AEFD7F2944850D76E47C0D6FF020117
:10426000F351F411F511D8B4120001D81200050071
:10427000FA6EF351FD6EF451FE6EF551FF6EFA5079
:1042800012009E904A50CF6E49C0CEFF0201464BAD
:10429000472B475104E1140E465DD8A01200F4EC00
:1042A000A1F0000E0201476F000E466F1200F2EC03
:1042B000A2F0F9EC9FF0B7ECA2F095ECA2F059EC6B
:1042C000A2F064ECA2F06FECA2F06CECA1F091EC27
:1042D000A0F006ECA2F01200010ECF6EB00ECE6E72
:1042E000CECF49F0CFCF4AF09E909D80EE0E136E58
:1042F000450E146E010E156E9CECA2F0310ECD6EC3
:104300001200110E73EC9CF015C01EF016C01FF0C9
:1043100017C020F018C021F01FA404D0020124858A
:10432000010E120002012495000E1200176E17C034
:10433000B4FE15C07EFE16C07FFEF2CF18F0000E50
:10434000F26E7ECEB6FE7FCEB7FE18C0F2FFE2EC74
:10435000A0F01200000E136E02013A513B11D8B4C6
:1043600009D0DAECA2F0136E02013A07D8A03B079D
:10437000249101D024811350120013501502F3CF61
:1043800017F0F4CF18F013501602F35018261450FB
:104390001502F350182617C013F018C014F01200BD
:1043A000E00E02012E6FC20E2F6F1E0E306F4D0EEB
:1043B000316FFE0E136E440E146E010E156E9CECE2
:1043C000A2F0120022EE28F0DECF15F0DDCF16F0BD
:1043D000151E161E154A162A0E01E2511524136EDB
:1043E000E3511620146E12000201F651F711F81174
:1043F000D8B4120001D812000500FA6EF651FD6E15
:10440000F751FE6EF851FF6EFA501200E3EC8DF09A
:10441000C9ECA0F0ECECA2F0F5ECA2F0D0ECA1F02D
:10442000B1ECA2F024ECA2F01200156E000E146E96
:104430003A0E156005D02F0E156402D0010E146ED1
:1044400014C013F013301200790E136E020E146EA6
:10445000C3EC9EF00A0E02017927000E7A237B231B
:104460007C2312001650EFECA2F01550EFECA2F0F6
:104470001450EFECA2F01350EFECA2F0120003D0B6
:10448000000EDFECA2F01406D8A015061428F8E1FF
:104490001528D8B41200F4D74B50010B136ED890E6
:1044A0004B321350D8B402D04C504B1A4B507F0BA8
:1044B0001200000EBD6E000E796E000EB66E000E7C
:1044C000BE6E000EBF6E1200010EC26E100EC16EE7
:1044D000860EC06E000EC36E000EC46E1200670E14
:1044E000CB6E000ECC6E9E92050ECA6E1200EC0EC4
:1044F00002014A25136EFF0E4B21146E1200010EAD
:1045000002012E27000E2F2330233123120057ECF7
:10451000A1F0F28EF28C80EC9DF0FDD713C0F3F287
:1045200014C0F4F215C0F5F21200800EC76E210E11
:10453000C66E000EC86E120013C0F6F214C0F7F279
:1045400015C0F8F21200D0ECA2F013C044F214C06F
:1045500045F212001450EFECA2F01350EFECA2F071
:10456000120081ECA1F00009D8A41200FAD7020EC3
:10457000D36E400E9B6E1200520E136EFF0E146E21
:104580001200480E136EFF0E146E120044C213F098
:1045900045C214F0120015C07AFF16C07BFF12004E
:1045A0007ACF13F07BCF14F01200E2CE28F2E3CEE4
:1045B00029F2120061CF7EFE0E017E511200136EB1
:1045C0001350EFECA2F01200040E64EC91F0120014
:1045D000030E64EC91F012006BEC9BF01200E8CF3C
:1045E00061FF1200D09E1200404112001200120022
:0245F0001200B7
:06FFF80020F4C7FFF8F73A
:00000001FF
