:040000005BEF00F0C2
:100008004D82FACF01F0FBCF02F0E9CF03F0EACF3F
:1000180004F0E1CF05F0E2CF06F0D9CF07F0DACF50
:1000280008F0F3CF09F0F4CF0AF0F6CF0BF0F7CFD2
:100038000CF0F8CF0DF0F5CF0EF04DC00FF04EC01C
:1000480010F04FC011F050C012F0F2BAF2A403D071
:10005800B7ECB3F006D0F2BC9DA003D09EB0CEECB6
:10006800B3F012C050F011C04FF010C04EF00FC0E6
:100078004DF00EC0F5FF0DC0F8FF0CC0F7FF0BC028
:10008800F6FF0AC0F4FF09C0F3FF08C0DAFF07C093
:10009800D9FF06C0E2FF05C0E1FF04C0EAFF03C0C4
:1000A800E9FF02C0FBFF01C0FAFF4D921100D9EF32
:0200B800ABF0AB
:10FEC60000010000000A00000064000000E80300D2
:10FED6000010270000A086010040420F008096987F
:10FEE6000000E1F50500CA9A3B0100000010000081
:10FEF60000000100000010000000000100000010DA
:10FF0600000000000100000010414447484E5355D0
:10FF16005C5F6065696A7277787B7E34123500D0E3
:10FF260037014400A42B017B00AC5D015469746168
:10FF36006E20426F696C657200005558001022FFF2
:10FF4600FFFFFFFFFF4D41432041646472657373F9
:10FF56002066726F6D20454550524F4D3A20252E32
:10FF660032583A252E32583A252E32583A252E3214
:10FF7600583A252E32583A252E3258200D0A000DB1
:10FF86000A0D0A5374617274696E67205379736C33
:10FF96006F6720617420256C750D0A00444E53204E
:10FFA600466F756E6420257320696E2063616368F1
:10FFB600652025756C006E74702E6D6963726F63B3
:10FFC6006869702E636F6D003031323334353637E1
:10FFD60038394142434445460025642E25642E2582
:10FFE600642E2564002575203A2025730D0A002805
:09FFF6006E756C6C29002E0000F0
:020000040001F9
:10000000000E0101006F20EE2DF03B50D9263C5030
:10001000DA22DF50046F20EE2EF03B50D9263C5000
:10002000DA22DF50036F3BC0D9FF3CC0DAFFDECFDE
:1000300013F0DDCF14F000ECB5F00009D8B4C7EF31
:1000400089F0090E0101036F6AECB5F0C7EF89F082
:1000500020EE02F03B50D9263C50DA222AC2DEFFC5
:100060002BC2DEFF2CC2DEFF2DC2DEFF20EE06F02B
:100070003B50D9263C50DA2254C2DEFF55C2DDFF88
:1000800020EE14F03B50D9263C50DA22DE6ADE6ABC
:10009000DE6ADD6A22EE58F010EE08F03B50E126F1
:1000A0003C50E222DECFE6FFDECFE6FFDECFE6FF0A
:1000B000DECFE6FF20EE08F03B50D9263C50DA2296
:1000C000DECFF4F0DECFF5F0DECFF6F0DECFF7F0E6
:1000D000010E0001F425F86F000EF521F96F000EF6
:1000E000F621FA6F000EF721FB6F20EE0CF03B506B
:1000F000D9263C50DA22F8C0DEFFF9C0DEFFFAC094
:10010000DEFFFBC0DEFF020162510001F56FF46B00
:1001100022EE62F0DECFF6F0DDCFF7F0F7C0F6F0BA
:10012000F76BFF0EF617000EF717F451F613F551A3
:10013000F71320EE18F03B50D9263C50DA22F6C0D7
:10014000DEFFF7C0DDFF20EE1CF03B50D9263C500F
:10015000DA224BC0DEFF4CC0DDFF20EE38F03B5012
:10016000D9263C50DA22120EDF6E20EE33F03B50DF
:10017000D9263C50DA22020EDE6E000EDD6E20EE35
:1001800035F03B50D9263C50DA22020EDE6E000ECE
:10019000DD6E20EE37F03B50D9263C50DA22030EBC
:1001A000DF6E3BC0A8F03CC0A9F061EC8DF09AD0A6
:1001B000000E046F3BC013F03CC014F090ECA8F0AC
:1001C000F1EF89F001010351000AD8B4F1D7030A15
:1001D000D8B43ED7F1EF89F022EE58F010EE08F0D7
:1001E0003B50E1263C50E222DECFE6FFDECFE6FFC9
:1001F000DECFE6FFDECFE6FF010E0201582500014B
:10020000F46F000E020159210001F56F000E02018A
:100210005A210001F66F000E02015B210001F76F09
:1002200020EE0CF03B50D9263C50DA22F4C0DEFF21
:10023000F5C0DEFFF6C0DEFFF7C0DEFF020162514F
:100240000001F56FF46B22EE62F0DECFF6F0DDCF49
:10025000F7F0F7C0F6F0F76BFF0EF617000EF71782
:10026000F451F613F551F71320EE18F03B50D92650
:100270003C50DA22F6C0DEFFF7C0DDFF20EE1CF0B6
:100280003B50D9263C50DA224BC0DEFF4CC0DDFF8C
:1002900020EE33F03B50D9263C50DA22020EDE6EBF
:1002A000000EDD6E20EE35F03B50D9263C50DA22B0
:1002B000020EDE6E000EDD6E20EE37F03B50D926CA
:1002C0003C50DA22030EDF6E20EE38F03B50D92688
:1002D0003C50DA22120EDF6E3BC0A8F03CC0A9F001
:1002E00061EC8DF0030ECCEF88F020EE33F03B5044
:1002F000D9263C50DA22000EDE6E000EDD6E20EEB6
:1003000010F03B50D9263C50DA22DECFF4F0DECF9D
:10031000F5F0DECFF6F0DECFF7F0010E0001F425A8
:10032000F86F000EF521F96F000EF621FA6F000E3E
:10033000F721FB6F02015C510001F8190FE1020186
:100340005D510001F9190AE102015E510001FA193B
:1003500005E102015F510001FB19D8A4A1D020EEF4
:1003600010F03B50D9263C50DA22DECFF4F0DECF3D
:10037000F5F0DECFF6F0DECFF7F0010EF425F86FE2
:10038000000EF521F96F000EF621FA6F000EF7212D
:10039000FB6F20EE10F03B50D9263C50DA22F8C01B
:1003A000DEFFF9C0DEFFFAC0DEFFFBC0DEFF20EE9D
:1003B00038F03B50D9263C50DA22100EDF6E22EE88
:1003C00058F010EE08F03B50E1263C50E222DECF20
:1003D000E6FFDECFE6FFDECFE6FFDECFE6FF010E73
:1003E000020158250001F46F000E0201592100019D
:1003F000F56F000E02015A210001F66F000E020196
:100400005B210001F76F20EE0CF03B50D9263C50E9
:10041000DA22F4C0DEFFF5C0DEFFF6C0DEFFF7C073
:10042000DEFF020162510001F56FF46B22EE62F013
:10043000DECFF6F0DDCFF7F0F7C0F6F0F76BFF0E8A
:10044000F617000EF717F451F613F551F71320EED7
:1004500018F03B50D9263C50DA22F6C0DEFFF7C038
:10046000DDFF20EE1CF03B50D9263C50DA224BC079
:10047000DEFF4CC0DDFF3BC0A8F03CC0A9F061EC42
:100480008DF00009D8B4F1EF89F0AAD220EE39F04E
:100490003B50D9263C50DA22030EDF6EF1EF89F093
:1004A00022EE5CF010EE10F03B50E1263C50E222D0
:1004B000DECFE6FFDECFE6FFDECFE6FFDECFE6FFF4
:1004C00020EE38F03B50D9263C50DA22140EDF6E75
:1004D0003BC0A8F03CC0A9F061EC8DF00009D8B495
:1004E000F1EF89F0000E0101046F3BC013F03CC036
:1004F00014F090ECA8F0F1EF89F020EE33F03B50CF
:10050000D9263C50DA22000EDE6E000EDD6E20EEA3
:1005100010F03B50D9263C50DA22DECFF4F0DECF8B
:10052000F5F0DECFF6F0DECFF7F0010E0001F42596
:10053000F86F000EF521F96F000EF621FA6F000E2C
:10054000F721FB6F02015C510001F8190FE1020174
:100550005D510001F9190AE102015E510001FA1929
:1005600005E102015F510001FB19D8A48DD020EEF6
:1005700010F03B50D9263C50DA22DECFF4F0DECF2B
:10058000F5F0DECFF6F0DECFF7F0010EF425F86FD0
:10059000000EF521F96F000EF621FA6F000EF7211B
:1005A000FB6F20EE10F03B50D9263C50DA22F8C009
:1005B000DEFFF9C0DEFFFAC0DEFFFBC0DEFF20EE8B
:1005C00038F03B50D9263C50DA22100EDF6E22EE76
:1005D00058F010EE08F03B50E1263C50E222DECF0E
:1005E000E6FFDECFE6FFDECFE6FFDECFE6FF010E61
:1005F000020158250001F46F000E0201592100018B
:10060000F56F000E02015A210001F66F000E020183
:100610005B210001F76F20EE0CF03B50D9263C50D7
:10062000DA22F4C0DEFFF5C0DEFFF6C0DEFFF7C061
:10063000DEFF020162510001F56FF46B22EE62F001
:10064000DECFF6F0DDCFF7F0F7C0F6F0F76BFF0E78
:10065000F617000EF717F451F613F551F71320EEC5
:1006600018F03B50D9263C50DA22F6C0DEFFF7C026
:10067000DDFF20EE1CF03B50D9263C50DA224BC067
:10068000DEFF4CC0DDFFACD122EE5CF010EE10F0CE
:100690003B50E1263C50E222DECFE6FFDECFE6FF14
:1006A000DECFE6FFDECFE6FF20EE38F03B50D92666
:1006B0003C50DA22040EDF6E3BC0A8F03CC0A9F02B
:1006C00061EC8DF00009D8B4F1EF89F0000E010162
:1006D000046F3BC013F03CC014F090ECA8F0F1EFB5
:1006E00089F0000E0101046F3BC013F03CC014F010
:1006F00090ECA8F0F1EF89F020EE37F03B50D926CE
:100700003C50DA22DF50D8B427D03BC0A8F03CC020
:10071000A9F061EC8DF00009D8B4F1EF89F020EE7A
:1007200038F03B50D9263C50DA22DFA40BD0000E23
:100730000101046F3BC013F03CC014F090ECA8F032
:10074000F1EF89F020EE38F03B50D9263C50DA2208
:10075000DFA8F1EF89F044D120EE38F03B50D926E4
:100760003C50DA22040EDF6E3BC0A8F03CC0A9F07A
:1007700061EC8DF00009D8B4F1EF89F0000E0101B1
:10078000046F3BC013F03CC014F090ECA8F0F1EF04
:1007900089F0000E0101046F3BC013F03CC014F05F
:1007A00090ECA8F0F1EF89F001010351000AD8B4F0
:1007B00098D7030AD8B410D5070AD8B49ED6010A30
:1007C000D8B493D50C0AD8B4E4D7030AD8B4E1D787
:1007D000060AD8B491D7F1EF89F03BC0D9FF3CC0ED
:1007E000DAFF02015651DE1803E15751DE18D8A492
:1007F000F1EF89F020EE33F03B50D9263C50DA225D
:10080000000EDE6E000EDD6E20EE02F03B50D926AB
:100810003C50DA222A51DE1848E12B51DE1845E11E
:100820002C51DE1842E12D51DE18D8A42FD620EE2F
:1008300006F03B50D9263C50DA225451DE1835E1FF
:100840005551DE18D8A422D620EE10F03B50D92600
:100850003C50DA22DECFF4F0DECFF5F0DECFF6F05A
:10086000DECFF7F0010E0001F425F86F000EF52140
:10087000F96F000EF621FA6F000EF721FB6F0201EF
:100880005C510001F81911E102015D510001F919F3
:100890000CE102015E510001FA1907E102015F510A
:1008A0000001FB19D8A4F2D59BD0F0D520EE02F0C0
:1008B0003B50D9263C50DA2202012A51DE1809E1C8
:1008C0002B51DE1806E12C51DE1803E12D51DE1804
:1008D000D8A4F1EF89F020EE06F03B50D9263C5029
:1008E000DA225451DE1803E15551DE18D8A4F1EF95
:1008F00089F020EE0CF03B50D9263C50DA225851BA
:10090000DE1809E15951DE1806E15A51DE1803E1FB
:100910005B51DE18D8A4F1EF89F020EE10F03B50C7
:10092000D9263C50DA22DECFF4F0DECFF5F0DECF70
:10093000F6F0DECFF7F0010E0001F425F86F000E9F
:10094000F521F96F000EF621FA6F000EF721FB6F0B
:1009500002015C510001F8190FE102015D51000133
:10096000F9190AE102015E510001FA1905E10201DB
:100970005F510001FB19D8A4F1EF89F020EE10F0CF
:100980003B50D9263C50DA22DECFF4F0DECFF5F032
:10099000DECFF6F0DECFF7F0010EF425F86F000E93
:1009A000F521F96F000EF621FA6F000EF721FB6FAB
:1009B00020EE10F03B50D9263C50DA22F8C0DEFF82
:1009C000F9C0DEFFFAC0DEFFFBC0DEFF20EE33F031
:1009D0003B50D9263C50DA22000EDE6E000EDD6E52
:1009E000040E0101046F52D520EE33F03B50D9269E
:1009F0003C50DA22000EDE6E000EDD6E20EE38F086
:100A00003B50D9263C50DA22010EDF6E20EE33F047
:100A10003B50D9263C50DA22020EDE6E000EDD6E0F
:100A200020EE35F03B50D9263C50DA22020EDE6E25
:100A3000000EDD6E20EE37F03B50D9263C50DA2216
:100A4000050EDF6E050E046F3BC0A8F03CC0A9F098
:100A500061EC8DF0F1EF89F03BC0D9FF3CC0DAFFCB
:100A600002015651DE1803E15751DE18D8A4F1EF08
:100A700089F020EE0CF03B50D9263C50DA22585138
:100A8000DE1809E15951DE1806E15A51DE1803E17A
:100A90005B51DE18D8A4F1EF89F020EE02F03B5054
:100AA000D9263C50DA22DE6ADE6ADE6ADD6A20EE92
:100AB00006F03B50D9263C50DA22000EDE6E000EC6
:100AC000DD6E20EE10F03B50D9263C50DA22DE6A73
:100AD000DE6ADE6ADD6A20EE14F03B50D9263C5017
:100AE000DA22DE6ADE6ADE6ADD6A20EE08F03B505A
:100AF000D9263C50DA22DE6ADE6ADE6ADD6A20EE42
:100B00000CF03B50D9263C50DA22DE6ADE6ADE6AFF
:100B1000DD6A20EE18F03B50D9263C50DA22000E58
:100B2000DE6E000EDD6E20EE1CF03B50D9263C50F0
:100B3000DA22B40EDE6E050EDD6E010E2DD320EE30
:100B400037F03B50D9263C50DA22DF50D8B408D0D9
:100B50003BC0A8F03CC0A9F061EC8DF0F1EF89F04A
:100B600020EE38F03B50D9263C50DA22040EDF6EDE
:100B70003BC0A8F03CC0A9F061EC8DF00009D8B4EE
:100B8000F1EF89F020EE02F03B50D9263C50DA22FA
:100B9000DE6ADE6ADE6ADD6A20EE06F03B50D926A8
:100BA0003C50DA22000EDE6E000EDD6E20EE10F0FC
:100BB0003B50D9263C50DA22DE6ADE6ADE6ADD6A04
:100BC00020EE14F03B50D9263C50DA22DE6ADE6A71
:100BD000DE6ADD6A20EE08F03B50D9263C50DA226E
:100BE000DE6ADE6ADE6ADD6A20EE0CF03B50D92652
:100BF0003C50DA22DE6ADE6ADE6ADD6A20EE18F038
:100C00003B50D9263C50DA22000EDE6E000EDD6E1F
:100C100020EE1CF03B50D9263C50DA22B40EDE6E9A
:100C2000050EDD6E010EB8D201010351000AD8B4E1
:100C3000DBD6040AD8B43AD6010AD8B4CED50C0A09
:100C4000D8B40AD7030AD8B407D7060AD8B477D7D6
:100C5000C8D320EE02F03B50D9263C50DA220201E4
:100C60002A51DE1809E12B51DE1806E12C51DE185D
:100C700003E12D51DE18D8A4B4D320EE0CF03B5084
:100C8000D9263C50DA225851DE1809E15951DE18B4
:100C900006E15A51DE1803E15B51DE18D8A4A1D356
:100CA00020EE14F03B50D9263C50DA225C51DE5C39
:100CB0005D51DE585E51DE585F51DE58D8B091D399
:100CC00020EE10F03B50D9263C50DA22DECFF4F073
:100CD000DECFF5F0DECFF6F0DECFF7F0010E00014B
:100CE000F425F86F000EF521F96F000EF621FA6F6A
:100CF000000EF721FB6F02015C510001F85D02015B
:100D00005D510001F95902015E510001FA590201D9
:100D10005F510001FB59D8A064D320EE10F03B5086
:100D2000D9263C50DA22DECFF4F0DDCFF5F022EE0A
:100D30005CF0DECFF6F0DDCFF7F0F61FF71FF64BD5
:100D4000F72BF451F6250101016F0001F551F72150
:100D50000101026F01C1F4F002C1F5F00001F41FBE
:100D6000F51FF44BF52B20EE25F03B50D9263C50D7
:100D7000DA22DECFF6F0DDCFF7F0F451F627F551A9
:100D8000F72320EE25F03B50D9263C50DA22F6C05E
:100D9000DEFFF7C0DDFF20EE27F03B50D9263C50A8
:100DA000DA22DECFF4F0DDCFF5F0010101510001D0
:100DB000F427010102510001F52320EE27F03B50FA
:100DC000D9263C50DA22F4C0DEFFF5C0DDFF22EE6A
:100DD0005CF0FF0EDE24F46FFF0EDE20F56FFF0ED9
:100DE000DE20F66FFF0EDE20F76F20EE14F03B5092
:100DF000D9263C50DA22F4C0DEFFF5C0DEFFF6C093
:100E0000DEFFF7C0DEFF22EE5CF010EE10F03B508C
:100E1000E1263C50E222DECFE6FFDECFE6FFDECF6A
:100E2000E6FFDECFE6FF20EE27F03B50D9263C5010
:100E3000DA22DE50DE10D8A41DD020EE29F03B507F
:100E4000D9263C50DA22020EDE18D8A429D020EE92
:100E500029F03B50D9263C50DA22000EDF6E20EEFE
:100E600033F03B50D9263C50DA22000EDE6E000EE5
:100E7000DD6E16D020EE27F03B50D9263C50DA220A
:100E800010EE2AF03B50E1263C50E222DECFE6FF96
:100E9000DDCFE5FF3BC0A8F03CC0A9F061EC8DF0D0
:100EA000020144514511D8B49CD222EE58F010EE04
:100EB00008F03B50E1263C50E222DECFE6FFDECFD9
:100EC000E6FFDECFE6FFDECFE6FF44C2E7F045C235
:100ED000E8F0F3ECA5F085D220EE38F03B50D926AF
:100EE0003C50DA22010EDF6E050E0101046F3BC09B
:100EF000A8F03CC0A9F061EC8DF073D220EE2AF08E
:100F00003B50D9263C50DA22000EDE6E000EDD6E1C
:100F100022EE5CF010EE10F03B50E1263C50E22255
:100F2000DECFE6FFDECFE6FFDECFE6FFDECFE6FF79
:100F300020EE0CF03B50D9263C50DA22DECFF4F004
:100F4000DECFF5F0DECFF6F0DECFF7F0010E0001D8
:100F5000F425F86F000EF521F96F000EF621FA6FF7
:100F6000000EF721FB6F20EE0CF03B50D9263C50D1
:100F7000DA22F8C0DEFFF9C0DEFFFAC0DEFFFBC0F8
:100F8000DEFF20EE39F03B50D9263C50DA22040E29
:100F9000DF6E20EE33F03B50D9263C50DA22020EB1
:100FA000DE6E000EDD6E20EE35F03B50D9263C5053
:100FB000DA22020EDE6E000EDD6E20EE37F03B50C0
:100FC000D9263C50DA22050EDF6E20EE38F03B5079
:100FD000D9263C50DA22110EDF6E090E0101046F92
:100FE0003BC0A8F03CC0A9F061EC8DF0FAD120EE36
:100FF00038F03B50D9263C50DA22040EDF6E3BC05D
:10100000A8F03CC0A9F061EC8DF0000E0101046F66
:101010003BC013F03CC014F090ECA8F0E2D120EEFD
:1010200037F03B50D9263C50DA22DF50D8B407D0F5
:101030003BC0A8F03CC0A9F061EC8DF0D2D120EE0D
:1010400038F03B50D9263C50DA22040EDF6E3BC00C
:10105000A8F03CC0A9F061EC8DF00009D8B4C1D172
:10106000000E0101046F3BC013F03CC014F090EC83
:10107000A8F0B7D101010351000AD8B42DD7040A52
:10108000D8B4E7D5020AD8B4ACD1010AD8B436D75F
:101090000E0AD8B4ACD7030AD8B4A9D7060AD8B474
:1010A000BED79FD120EE38F03B50D9263C50DA22F3
:1010B000100EDF6E3BC0A8F03CC0A9F061EC8DF0D3
:1010C0000009D8B48ED1080E67D020EE33F03B5023
:1010D000D9263C50DA22020EDE6E000EDD6E20EEC6
:1010E00037F03B50D9263C50DA22010EDF6E060E57
:1010F0008AD020EE38F03B50D9263C50DA22100E30
:10110000DF6E3BC0A8F03CC0A9F061EC8DF040D090
:1011100020EE37F03B50D9263C50DA22DF50D8B4CD
:1011200007D03BC0A8F03CC0A9F061EC8DF059D1CC
:1011300020EE38F03B50D9263C50DA22040EDF6E08
:101140003BC0A8F03CC0A9F061EC8DF00009D8B418
:1011500048D1000E0101046F3BC013F03CC014F0F5
:1011600090ECA8F03ED101010351040AD8B4ADD7E8
:10117000020AD8B497D7010AD8B4BBD70B0AD8B49F
:10118000C7D72FD13BC0A8F03CC0A9F061EC8DF0CF
:101190000009D8B426D10A0E010135D020EE37F06F
:1011A0003B50D9263C50DA22DF50D8B407D03BC0A0
:1011B000A8F03CC0A9F061EC8DF013D120EE38F01E
:1011C0003B50D9263C50DA22040EDF6E3BC0A8F01B
:1011D0003CC0A9F061EC8DF00009D8B402D1000E3A
:1011E0000101046F3BC013F03CC014F090ECA8F078
:1011F000F8D001010351060AD8B4C4D70A0AD8B4FA
:10120000CDD7EFD00A0E046FECD001010351040AD0
:10121000D8B4F8D7E6D020EE02F03B50D9263C50A7
:10122000DA2202012A51DE1809E12B51DE1806E10B
:101230002C51DE1803E12D51DE18D8A4D2D020EEB7
:1012400006F03B50D9263C50DA225451DE1803E117
:101250005551DE18D8A4C5D0000E0101046F3BC063
:1012600013F03CC014F090ECA8F0BBD020EE37F0A7
:101270003B50D9263C50DA22DF50D8B407D03BC0CF
:10128000A8F03CC0A9F061EC8DF0ABD020EE38F0B6
:101290003B50D9263C50DA22040EDF6E3BC0A8F04A
:1012A0003CC0A9F061EC8DF00009D8B49AD0000ED2
:1012B0000101046F3BC013F03CC014F090ECA8F0A7
:1012C00090D001010351040AD8B4A5D7030AD8B4B9
:1012D000A2D70B0AD8B4CAD784D0000E0101046F7C
:1012E0003BC013F03CC014F090ECA8F07AD020EE94
:1012F00033F03B50D9263C50DA22020EDE6E000E4F
:10130000DD6E20EE35F03B50D9263C50DA22020E3D
:10131000DE6E000EDD6E20EE37F03B50D9263C50DD
:10132000DA22030EDF6E20EE38F03B50D9263C5017
:10133000DA22020EDF6E3BC0A8F03CC0A9F061ECDF
:101340008DF0020E010118D0010E006F4AD020EE80
:1013500002F03B50D9263C50DA22DE6ADE6ADE6AB1
:10136000DD6A20EE06F03B50D9263C50DA22000E12
:10137000DE6E000EDD6E010E046FE6D70101035133
:10138000010AD8B4B4D7030AD8B4E1D72AD020EEE2
:101390002DF03B50D9263C50DA22DF50000AD8B459
:1013A000EDD7010AD8B4E2EF80F0030AD8B4D4EF45
:1013B00083F0010AD8B438D4070AD8B45BD6010A3E
:1013C000D8B4D1D6030AD8B414D7010AD8B409D0F6
:1013D0000F0AD8B41AD7010AD8B473D7030AD8B4FD
:1013E0007CD720EE2EF03B50D9263C50DA220D0E51
:1013F000DF6E20EE2DF03B50D9263C50DA2204C19E
:10140000DFFF01010051120048D3250E00016C19C5
:10141000D8B434D020EE02F02950D9262A50DA224E
:10142000DE50DE10DE10D8B413D020EE02F02950CA
:10143000D9262A50DA2201D830D30500FA6EDE50C0
:10144000FD6EDE50FE6EDE50FF6EFA506C511200E3
:1014500029C0D9FF2AC0DAFFDECF2FF0DDCF30F070
:101460002FC0D9FF30C0DAFF6CC0DFFF29C0D9FF21
:101470002AC0DAFFDE2A000EDD220FD3000E0001A3
:10148000656F2BC0F6FF2CC0F7FF000EF86E08004A
:10149000F5502E0AD8A432D02B4A2C2A000E6B6F9E
:1014A000000E6A6F1ED06AC013F06BC014F0000EFD
:1014B000166E0A0E156E5FECB4F02BC0F6FF2CC052
:1014C000F7FF000EF86E0800F5501326000E1422E8
:1014D000D00E132400016A6FFF0E14206B6F2B4A8D
:1014E0002C2A2BC0F6FF2CC0F7FF000EF86E080068
:1014F000F550C9ECB4F0D8A0BFD0D5D7000E00018C
:101500006B6F000E6A6FB8D06589B6D0658FDAD080
:101510002DC0D9FF2EC0DAFFDFCF2FF0020EDE265E
:10152000DFCF30F0000EDD222FC0D9FF30C0DAFF50
:10153000DECF63F0DDCF64F063516411D8A404D032
:10154000F50E636FFF0E646F000E626F000E616F29
:1015500003D00001614B622B615163252F6E6251F4
:101560006421306E2FC0F6FF30C0F7FF000EF86E1A
:101570000F0EF76403D00800F55005D0F6CFE9FF51
:10158000F7CFEAFFEF500009D8A4E3D700016A5172
:101590006B11D8B465D061516A5D62516B59D8B096
:1015A0005FD06AC061F06BC062F05AD020EE02F0EA
:1015B0002950D9262A50DA22DE50DE10DE10D8B4A7
:1015C00027D020EE02F02950D9262A50DA2201D85D
:1015D0001BD00500FA6EDE50FD6EDE50FE6EDE5052
:1015E000FF6EFA5063C0F6FF64C0F7FF000EF86E9E
:1015F0000F0EF76403D00800F55005D0F6CFE9FFD1
:10160000F7CFEAFFEF5012000001634B642B28D0A4
:1016100063C0F6FF64C0F7FF000EF86E29C0D9FF63
:101620002AC0DAFFDECF2FF0DDCF30F02FC0D9FF98
:1016300030C0DAFF0F0EF76403D00800F55005D074
:10164000F6CFE9FFF7CFEAFFEF50DF6E0001634B03
:10165000642B29C0D9FF2AC0DAFFDE2A000EDD2262
:101660006107D8A062076129A1E16229D8B415D227
:101670009DD7C00E651326D02BC0F6FF2CC0F7FFF8
:101680002B4A2C2A000EF86E0800F5CF6CF00001F2
:101690006C51000AD8B410D2580AD8B437D73C0AD3
:1016A000D8B410D00D0AD8B40DD0050AD8B42CD7B0
:1016B0001F0AD8B42DD7060AD8B4DBD70D0AD8B480
:1016C00025D7EBD165C02FF0C00E2F16D8A441D07E
:1016D00065A919D02DC0D9FF2EC0DAFFDFCF2FF0BA
:1016E000040EDE26DFCF30F0000EDD222FC0D9FF42
:1016F00030C0DAFFDECF66F0DECF67F0DECF68F015
:10170000DECF69F019D02DC0D9FF2EC0DAFFDFCFB0
:101710002FF0020EDE26DFCF30F0000EDD222FC0CC
:10172000D9FF30C0DAFFDECF66F0DDCF67F0000E04
:1017300067BFFF0E686F696F69AF40D0030E651316
:10174000691F681F671F666D000E67236823692382
:1017500035D065A919D02DC0D9FF2EC0DAFFDFCF53
:101760002FF0040EDE26DFCF30F0000EDD222FC07A
:10177000D9FF30C0DAFFDECF66F0DECF67F0DECF14
:1017800068F0DECF69F01AD02DC0D9FF2EC0DAFF85
:10179000DFCF2FF0020EDE26DFCF30F0000EDD228D
:1017A0002FC0D9FF30C0DAFFDECF31F0DDCF32F00D
:1017B00031C066F032C067F0686B696B6A516B11BB
:1017C000D8A44BD06651671168116911D8A445D0CF
:1017D0006A4B6B2B42D0010E6C6F0A0E6C19D8B499
:1017E00047D06C51040DC70EF324F66EFE0EF420A4
:1017F000F76EF86A000EF8220900F550665D0900E0
:10180000F55067590900F55068590900F5506959B4
:10181000D8A02ED06C2BE1D7010E6C6F080E6C197E
:10182000D8B426D06C51040DEF0EF324F66EFE0EE4
:10183000F420F76EF86A000EF8220900F550665D94
:101840000900F55067590900F55068590900F5502D
:101850006959D8A00DD06C2BE1D76551C00B000A97
:10186000D8B4B9D7800AD8B4D7D7400AD8B4B3D738
:10187000800E6CBF7F0E2F6E6A516C5D6B51800ABB
:101880002F58D8B003D06AC06CF010D06B51800ACA
:101890002F6E6C516A5D800E6CBF7F0E2F58D8B0D2
:1018A00005D06C516A6F6B6B6ABF6B0765C02FF018
:1018B000030E2F16D8B4E8D020EE02F02950D92616
:1018C0002A50DA22DE50DE10DE10D8B413D020EE1B
:1018D00002F02950D9262A50DA2201D8D5D00500A5
:1018E000FA6EDE50FD6EDE50FE6EDE50FF6EFA5078
:1018F0002D0E120029C0D9FF2AC0DAFFDECF2FF04B
:10190000DDCF30F02FC0D9FF30C0DAFF2D0EDF6EF3
:10191000B4D06AC02FF06BC030F0D8902F3630367C
:10192000D8902F363036C70E2F24F66EFE0E30209C
:10193000F76EF86A000EF8220900F5CF17F00900DB
:10194000F5CF18F00900F5CF19F00A00F5CF1AF01D
:1019500066C013F067C014F068C015F069C016F0D7
:1019600015ECAEF013C020F014C021F015C022F029
:1019700016C023F00A0E246E000E256E000E266E91
:10198000000E276EC1ECAFF02050300F00016C6FDD
:1019900048D066C013F067C014F068C015F069C085
:1019A00016F06AC02FF06BC030F0D8902F3630366A
:1019B000D8902F363036EF0E2F24F66EFE0E3020E4
:1019C000F76EF86A000EF8220900F5CF17F009004B
:1019D000F5CF18F00900F5CF19F00A00F5CF1AF08D
:1019E00015ECAEF013500F0B0001606F6051010D4C
:1019F000CE0EF324F66EFF0EF420F76EF86A000E9A
:101A0000F8220800F5CF6CF00CD000016551C00B36
:101A1000000AD8B47ED7800AD8B4BBD7400AD8B45D
:101A200078D720EE02F02950D9262A50DA22DE504B
:101A3000DE10DE10D8B413D020EE02F02950D926E3
:101A40002A50DA2201D820D00500FA6EDE50FD6E51
:101A5000DE50FE6EDE50FF6EFA506C51120029C04F
:101A6000D9FF2AC0DAFFDECF2FF0DDCF30F02FC054
:101A7000D9FF30C0DAFF6CC0DFFF29C0D9FF2AC010
:101A8000DAFFDE2A000EDD2200016A07D8A06B070C
:101A90006A29BBE16B29D8A4B8D72BC0F6FF2CC0AC
:101AA000F7FF2B4A2C2A000EF86E0800F5CF6CF0D9
:101AB00000016C51D8A4A9D4000E2A6E000E296E24
:101AC0001200000E0001D06FA8C0D9FFA9C0DAFF34
:101AD000DECFAAF0DDCFABF0AA51AD6FAC6BA8C0E2
:101AE000D9FFA9C0DAFFDECFAEF0DDCFAFF0AFC0D7
:101AF000AEF0AF6BFF0EAE17000EAF17AC51AE11CC
:101B0000D36FAD51AF11D46F20EE06F0A851D92696
:101B1000A951DA22DECFAAF0DDCFABF0AA51AD6F2A
:101B2000AC6B20EE06F0A851D926A951DA22DECFFF
:101B3000AEF0DDCFAFF0AFC0AEF0AF6BFF0EAE17C3
:101B4000000EAF17AC51AE11D56FAD51AF11D66FBE
:101B500020EE10F0A851D926A951DA22DECFAAF042
:101B6000DECFABF0DECFACF0DECFADF0FF0EAA15CE
:101B7000AE6F000EAB15AF6F000EAC15B06F000E60
:101B8000AD15B16FAEC0B1F0B06BAF6BAE6B20EE08
:101B900010F0A851D926A951DA22000EDE14B26F36
:101BA000FF0EDE14B36F000EDE14B46F000EDE14F1
:101BB000B56FB4C0B5F0B3C0B4F0B2C0B3F0B26B9F
:101BC00020EE10F0A851D926A951DA22DECFB6F0C6
:101BD000DECFB7F0DECFB8F0DECFB9F0B7C0B6F0E9
:101BE000B8C0B7F0B9C0B8F0B96B000EB615BA6F8F
:101BF000FF0EB715BB6F000EB815BC6F000EB91500
:101C0000BD6F20EE10F0A851D926A951DA22000E9E
:101C1000DE14BE6F000EDE14BF6F000EDE14C06F48
:101C2000FF0EDE14C16F190E05D0D890C133C0333A
:101C3000BF33BE33E82EF9D7BA51BE11C26FBB51C4
:101C4000BF11C36FBC51C011C46FBD51C111C56F6D
:101C5000B251C211C66FB351C311C76FB451C41191
:101C6000C86FB551C511C96FAE51C611D76FAF510D
:101C7000C711D86FB051C811D96FB151C911DA6FFE
:101C800020EE0CF0A851D926A951DA22DECFAAF015
:101C9000DECFABF0DECFACF0DECFADF0FF0EAA159D
:101CA000AE6F000EAB15AF6F000EAC15B06F000E2F
:101CB000AD15B16FAEC0B1F0B06BAF6BAE6B20EED7
:101CC0000CF0A851D926A951DA22000EDE14B26F09
:101CD000FF0EDE14B36F000EDE14B46F000EDE14C0
:101CE000B56FB4C0B5F0B3C0B4F0B2C0B3F0B26B6E
:101CF00020EE0CF0A851D926A951DA22DECFB6F099
:101D0000DECFB7F0DECFB8F0DECFB9F0B7C0B6F0B7
:101D1000B8C0B7F0B9C0B8F0B96B000EB615BA6F5D
:101D2000FF0EB715BB6F000EB815BC6F000EB915CE
:101D3000BD6F20EE0CF0A851D926A951DA22000E71
:101D4000DE14BE6F000EDE14BF6F000EDE14C06F17
:101D5000FF0EDE14C16F190E05D0D890C133C03309
:101D6000BF33BE33E82EF9D7BA51BE11C26FBB5193
:101D7000BF11C36FBC51C011C46FBD51C111C56F3C
:101D8000B251C211C66FB351C311C76FB451C41160
:101D9000C86FB551C511C96FAE51C611DB6FAF51D8
:101DA000C711DC6FB051C811DD6FB151C911DE6FC1
:101DB000DF91DF93DF95DF97DF510F0B5009DF6F66
:101DC00020EE1AF0A851D926A951DA22DECFAAF0C6
:101DD000DDCFABF0AA51AD6FAC6B20EE1AF0A8517D
:101DE000D926A951DA22DECFAEF0DDCFAFF0AFC0F9
:101DF000AEF0AF6BFF0EAE17000EAF17AC51AE11C9
:101E0000E16FAD51AF11E26F000EE46F000EE36FB2
:101E1000000EE66F000EE56F20EE38F0A851D926CF
:101E2000A951DA22DF50AA6F060EAA17D8A409D04A
:101E300020EE2CF0A851D926A951DA22DE04D8A42C
:101E400005D0000ED26F000ED16FA9D020EE2AF07F
:101E5000A851D926A951DA22DECFD1F0DDCFD2F0B8
:101E6000D151D211D8B49BD020EE18F0A851D92668
:101E7000A951DA22DE50DE10D8A40AD020EE18F0E4
:101E8000A851D926A951DA22010EDE6E000EDD6EB0
:101E900020EE18F0A851D926A951DA22D151DE5CE2
:101EA000D251DE58D8B00AD020EE18F0A851D92669
:101EB000A951DA22DECFD1F0DDCFD2F020EE1CF036
:101EC000A851D926A951DA22D151DE5CD251DE586F
:101ED000D8B00AD020EE1CF0A851D926A951DA2298
:101EE000DECFD1F0DDCFD2F020EE25F0A851D926FB
:101EF000A951DA22DECFCAF0DDCFCBF020EE25F0FB
:101F0000A851D926A951DA22DECFAAF0DDCFABF055
:101F1000D151AA27D251AB2320EE25F0A851D926C2
:101F2000A951DA22AAC0DEFFABC0DDFF20EE2AF005
:101F3000A851D926A951DA22DECFAAF0DDCFABF025
:101F4000D1C0ACF0D2C0ADF0AC1FAD1FAC4BAD2BCF
:101F5000AA51AC27AB51AD2320EE27F0A851D926CA
:101F6000A951DA22ACC0DEFFADC0DDFF20EE27F0C4
:101F7000A851D926A951DA22DE50DE10D8A40FD0FC
:101F800020EE38F0A851D926A951DA2210EE38F007
:101F9000A851E126A951E222E7500809DF6E20EEA0
:101FA00038F0A851D926A951DA22DF50E06F140E7B
:101FB000D125CE6F000ED221CF6F20EE02F0A851B6
:101FC000D926A951DA22DECF31F0DECF32F0DECFD2
:101FD00033F0DECF34F0060E356E8EEC9EF000014D
:101FE000D06FD005D8A44AD0D30E136E000E146E55
:101FF000000E166E140E156EB8ECB2F00001D15141
:10200000D211D8B40AD0CAC013F0CBC014F0D1C0DA
:1020100015F0D2C016F0B8ECB2F0060E0001CE25D5
:10202000CC6F000ECF21CD6F000E266E1A0E256EDE
:10203000080ECE25276E000ECF21286ECCC029F0C9
:10204000CDC02AF06DECABF025C0CCF026C0CDF0B1
:10205000CC0E136E000E146E000E166E020E156E70
:10206000000E186E320E176EF4ECAFF0CEC037F0E3
:10207000CFC038F07BECADF00001D06FD005D8B404
:1020800025D020EE37F0A851D926A951DA2210EE3A
:1020900037F0A851E126A951E222E750AA6FAA29F8
:1020A000DF6E20EE33F0A851D926A951DA22DE5096
:1020B000DE10D8A433D020EE33F0A851D926A95190
:1020C000DA22020EDE6E000EDD6E28D020EE10F059
:1020D000A851D926A951DA22DECFAAF0DECFABF083
:1020E000DECFACF0DECFADF0D151AA25AE6FD2512C
:1020F000AB21AF6F000EAC21B06F000EAD21B16F00
:1021000020EE10F0A851D926A951DA22AEC0DEFF88
:10211000AFC0DEFFB0C0DEFFB1C0DEFFD0511200A5
:10212000000E0201AE6F000EAD6F000EAC6F000E20
:10213000AB6F000E266E140E256E000E286E000E7C
:10214000276E86ECB1F025C0ADF226C0AEF20201DA
:10215000AD51AE11D8A4120056ECB5F0680E136E56
:10216000020E146E000E166E140E156E32ECB1F0E7
:10217000020168390F0B040AD8A41200FF0E78156B
:102180008E6F000E79158F6F000E7A15906F000E0E
:102190007B15916F8EC291F2906B8F6B8E6B22EEDE
:1021A00078F0000EDE14926FFF0EDE14936F000EB7
:1021B000DE14946F000EDE14956F94C295F293C2F4
:1021C00094F292C293F2926B78C296F279C297F22D
:1021D0007AC298F27BC299F297C296F298C297F2AD
:1021E00099C298F2996B000E96159A6FFF0E97158B
:1021F0009B6F000E98159C6F000E99159D6F22EE37
:1022000078F0000EDE149E6F000EDE149F6F000E3D
:10221000DE14A06FFF0EDE14A16F190E05D0D8904A
:10222000A133A0339F339E33E82EF9D79A519E11E4
:10223000A26F9B519F11A36F9C51A011A46F9D5140
:10224000A111A56F9251A211A66F9351A311A76F6F
:102250009451A411A86F9551A511A96F8E51A61183
:10226000786F8F51A711796F9051A8117A6F9151A2
:10227000A9117B6FFF0E74158E6F000E75158F6F91
:10228000000E7615906F000E7715916F8EC291F249
:10229000906B8F6B8E6B22EE74F0000EDE14926FDB
:1022A000FF0EDE14936F000EDE14946F000EDE142A
:1022B000956F94C295F293C294F292C293F2926B8C
:1022C00074C296F275C297F276C298F277C299F20A
:1022D00097C296F298C297F299C298F2996B000E43
:1022E00096159A6FFF0E97159B6F000E98159C6FB1
:1022F000000E99159D6F22EE74F0000EDE149E6F95
:10230000000EDE149F6F000EDE14A06FFF0EDE14B1
:10231000A16F190E05D0D890A133A0339F339E33FF
:10232000E82EF9D79A519E11A26F9B519F11A36F6E
:102330009C51A011A46F9D51A111A56F9251A211A2
:10234000A66F9351A311A76F9451A411A86F955133
:10235000A511A96F8E51A611746F8F51A711756FBA
:102360009051A811766F9151A911776F742907E1E7
:10237000752905E1762903E17729D8B412000051C7
:1023800078190AE10151791907E102517A1904E13A
:1023900003517B19D8B471D0785179117A117B111E
:1023A000D8B46BD0782907E1792905E17A2903E1CE
:1023B0007B29D8B462D0785179117A117B11D8B4C5
:1023C00019D0FF0E00118E6FFF0E01118F6FFF0EDF
:1023D0000211906F000E0311916F78518E190AE16E
:1023E00079518F1907E17A51901904E17B519119C4
:1023F000D8B443D0785179117A117B11D8B419D05F
:10240000FF0E00118E6FFF0E01118F6F000E021173
:10241000906F000E0311916F78518E190AE1795176
:102420008F1907E17A51901904E17B519119D8B4C1
:1024300024D0785179117A117B11D8B416D0FF0EBF
:1024400000118E6F01518F6F0251906F0351916F88
:1024500078518E190AE179518F1907E17A51901953
:1024600004E17B519119D8B408D0780505E1E00E5C
:102470007B1979117A11D8A412006A518F6F8E6B73
:1024800022EE6AF0DECF90F2DDCF91F291C290F2AF
:10249000916BFF0E9017000E91178E5190116A6F7D
:1024A0008F5191116B6F68510F0B8E6FD8908E37D3
:1024B000D8908E35AA6F68510F0B8E6F050E8E6106
:1024C00001D0120068510F0B8E6F050E8E65BDD0C6
:1024D000EC0EAA25136E146AFF0E142271ECB3F0F1
:1024E00012000201785179117A117B11D8B41200CF
:1024F000AA518E6F8F6B8E1F8F1F8E4B8F2B6A5141
:102500008E25AB6F6B518F21AC6FABC225F0ACC287
:1025100026F0000E286E000E276E86ECB1F025C066
:10252000ADF226C0AEF20201AD51AE11D8A4120038
:10253000680E0001B96F020EBA6F19ECAAF0120012
:102540000201AA518E6F8F6B8E1F8F1F8E4B8F2BA8
:102550006A518E25AB6F6B518F21AC6FABC213F0FC
:10256000ACC214F0FDECAAF013C0ADF214C0AEF290
:10257000ABC225F0ACC226F0ADC227F0AEC228F047
:1025800086ECB1F025C0ADF226C0AEF2ADC2D5F0FA
:10259000AEC2D6F0C6ECA2F012000201AA518E6FB4
:1025A0008F6B8E1F8F1F8E4B8F2B6A518E25AB6FBB
:1025B0006B518F21AC6FABC213F0ACC214F0FDECC9
:1025C000AAF013C0ADF214C0AEF2ABC225F0ACC29B
:1025D00026F0ADC227F0AEC228F086ECB1F025C0DF
:1025E000ADF226C0AEF20201AD51AE11D8A4120078
:1025F000782907E1792905E17A2903E17B29D8B413
:102600001200785179117A117B11D8B4120074C27A
:102610003AF275C23BF276C23CF277C23DF23AC260
:1026200005F13BC206F13CC207F13DC208F1ABC265
:1026300009F1ACC20AF161EC98F012006AC213F021
:102640006BC214F071ECB3F0120002017151010A77
:10265000D8B447D7070AD8B4A0D7170AD8B470D7C8
:10266000EDD7000E0001836F8A0E136E000E146EFC
:10267000000E166E1C0E156E32ECB1F013C080F019
:1026800014C081F01C0E000180198111D8A4120021
:10269000000E826F040E886F030E896F080E866F1E
:1026A0008651D8B43CD020EE06F08851D926895105
:1026B000DA22DE5098192DE1DE5099192AE1DE5018
:1026C0009A1927E1DE509B19D8A423D020EE0AF0F6
:1026D0008851D9268951DA22DE508C191AE1DE5050
:1026E0008D19D8A416D020EE0CF08851D926895126
:1026F000DA22000EDF6E20EE92F088C0E1FF89C082
:10270000E2FF050EDBCFE3FFE806FCE2010E826F7D
:1027100006D00D0E8827000E89238607C1D7020137
:102720000051011102110311D8B438D2FF0E00017B
:10273000A215606F000EA315616F000EA415626FE5
:10274000000EA515636F60C063F0626B616B606B18
:1027500020EEA2F0000EDE14646FFF0EDE14656F33
:10276000000EDE14666F000EDE14676F66C067F041
:1027700065C066F064C065F0646BA2C068F0A3C079
:1027800069F0A4C06AF0A5C06BF069C068F06AC0C7
:1027900069F06BC06AF06B6B000E68156C6FFF0E12
:1027A00069156D6F000E6A156E6F000E6B156F6FF9
:1027B00020EEA2F0000EDE14706F000EDE14716FBA
:1027C000000EDE14726FFF0EDE14736F190E05D04B
:1027D000D8907333723371337033E82EF9D76C515C
:1027E0007011746F6D517111756F6E517211766F3A
:1027F0006F517311776F64517411786F6551751152
:10280000796F665176117A6F675177117B6F6051DE
:1028100078117C6F615179117D6F62517A117E6FF1
:1028200063517B117F6F0201005100017C190FE1A0
:102830000201015100017D190AE10201025100016A
:102840007E1905E10201035100017F19D8A4A6D128
:102850008251D8A4CED0040E886F030E896F040E67
:10286000846F030E856F080E876F8751D8B41AD016
:1028700020EE0CF08451D9268551DA2210EE0CF0AE
:102880008851E1268951E222DE50E65CD8B004D0BE
:1028900084C088F085C089F00D0E8427000E852342
:1028A0008707E3D720EE0CF08851D9268951DA2228
:1028B000000EDF6E20EE92F088C0E1FF89C0E2FFDB
:1028C000050EDBCFE3FFE806FCE2FF0E9815606F14
:1028D000000E9915616F000E9A15626F000E9B1520
:1028E000636F60C063F0626B616B606B20EE98F0A9
:1028F000000EDE14646FFF0EDE14656F000EDE1432
:10290000666F000EDE14676F66C067F065C066F024
:1029100064C065F0646B98C068F099C069F09AC0B3
:102920006AF09BC06BF069C068F06AC069F06BC068
:102930006AF06B6B000E68156C6FFF0E69156D6F9A
:10294000000E6A156E6F000E6B156F6F20EE98F01B
:10295000000EDE14706F000EDE14716F000EDE14B8
:10296000726FFF0EDE14736F190E05D0D89073339B
:10297000723371337033E82EF9D76C517011746F64
:102980006D517111756F6E517211766F6F517311B8
:10299000776F64517411786F65517511796F665155
:1029A00076117A6F675177117B6F605178117C6F68
:1029B000615179117D6F62517A117E6F63517B1184
:1029C0007F6F20EE06F08851D9268951DA227CC02B
:1029D000DEFF7DC0DEFF7EC0DEFF7FC0DEFF20EEBB
:1029E0000AF08851D9268951DA228CC0DEFF8DC0C9
:1029F000DDFF91059011D8A41200920E256E000EF5
:102A0000266E080E286E060E276EACEC9FF00001B5
:102A1000836F8305D8A4120020EE92F010EE9CF094
:102A2000050EDBCFE3FFE806FCE2920E136E000E0C
:102A3000146E840E156E020E166E000E186E060EC3
:102A4000176E1BECB2F098C0A2F099C0A3F09AC028
:102A5000A4F09BC0A5F0FF0E020100150001606FFD
:102A6000000E020101150001616F000E0201021546
:102A70000001626F000E020103150001636F60C068
:102A800063F0626B616B606B000E02010015000168
:102A9000646FFF0E020101150001656F000E020157
:102AA00002150001666F000E020103150001676F39
:102AB00066C067F065C066F064C065F0646B00C214
:102AC00068F001C269F002C26AF003C26BF069C02B
:102AD00068F06AC069F06BC06AF06B6B000E681535
:102AE0006C6FFF0E69156D6F000E6A156E6F000E2C
:102AF0006B156F6F000E020100150001706F000E64
:102B0000020101150001716F000E020102150001A2
:102B1000726FFF0E020103150001736F190E05D0CD
:102B2000D8907333723371337033E82EF9D76C5108
:102B30007011746F6D517111756F6E517211766FE6
:102B40006F517311776F64517411786F65517511FE
:102B5000796F665176117A6F675177117B6F60518B
:102B60007811986F61517911996F62517A119A6F4A
:102B700063517B119B6F020E916F000E906F8A0E56
:102B8000136E000E146E000E166E1C0E156EB8EC51
:102B9000B2F088ECACF00001836F12000E0E000161
:102BA000836F12001CD0010E0101216F000E1E6FF9
:102BB00012D0000E0101216F010E1E6F05D0236F90
:102BC0001DD0000E0101216F010E226F010EF7D7FB
:102BD000000E0101216F000E226F000EF0D70201DE
:102BE0004851000AD8B4DFD7010AD8B4E2D7030AA3
:102BF000D8B4E7D7010AD8B4EBD7D5D70101215112
:102C0000D8A409D01E51D8A406D02251D8A403D0EC
:102C10002351D8B4120023EE7BF011EE25F02F0ED5
:102C2000DBCFE3FFE806FCE2E6C245F1E7C246F18E
:102C3000E8C247F1E9C248F10001B1BF36D2B15153
:102C400004E1F10EB05DD8A030D27DECB2F01304F7
:102C500003E1020E1418D8A428D24CECB4F0060AF2
:102C6000D8A423D24CECB4F0DBECB0F00201E65176
:102C7000131809E1E751141806E1E851151803E1AA
:102C8000E9511618D8A411D27DECB2F07DECB2F067
:102C9000DBECB0F0DBECB0F013C025F114C026F192
:102CA00015C027F116C028F10101252907E12629C1
:102CB00005E1272903E12829D8B4F7D1250506E144
:102CC0007F0E281926112711D8B4EFD1DBECB0F014
:102CD00013C01AF114C01BF115C01CF116C01DF170
:102CE00001011A2907E11B2905E11C2903E11D291E
:102CF000D8B4DBD11A0506E17F0E1D191B111C117A
:102D0000D8B4D3D1DBECB0F0000E136E010E146E0C
:102D1000000E166E100E156E32ECB1F0000E136E32
:102D2000010E146E840E156E020E166E000E186ED5
:102D3000060E176EDCECACF013501410D8B41CD097
:102D4000000E136E010E146E450E156EFF0E166EFC
:102D5000000E186E060E176EDCECACF0135014105B
:102D6000D8B40AD0000E136E010E146E5CECB1F0F4
:102D700013501410D8A499D1000E146E400E136E87
:102D800071ECB3F0000E146E800E136E71ECB3F0A4
:102D9000DBECB0F0630E131809E1530E141806E1D2
:102DA000820E151803E1630E1618D8A47ED1000117
:102DB000100EB027FF0EB123DAD04CECB4F00101B5
:102DC000196F4CECB4F00101246F24510001B26F73
:102DD000B36B020EB227000EB323B251B05FB351F2
:102DE000B15BADD0DBECB0F013C029F114C02AF117
:102DF00015C02BF116C02CF1BAD0DBECB0F013C02B
:102E00002DF114C02EF115C02FF116C030F1AFD046
:102E1000000E01011F6F25D0DBECB0F013C010F1E4
:102E200014C011F115C012F116C013F1020E010108
:102E30001F6115D01F51040D0C0EF326000EF42255
:102E4000250EF324D96E010EF420DA6E10C1DEFFD8
:102E500011C1DEFF12C1DEFF13C1DEFF1F2B040E06
:102E6000245F040E2461D8D782D0000E206F25D0B5
:102E7000DBECB0F013C014F114C015F115C016F15D
:102E800016C017F1020E0101206115D02051040D6A
:102E9000140EF326000EF422250EF324D96E010E33
:102EA000F420DA6E14C1DEFF15C1DEFF16C1DEFFAD
:102EB00017C1DEFF202B040E245F040E2461D8D737
:102EC00056D0030E246553D0DBECB0F013C049F1AB
:102ED00014C04AF115C04BF116C04CF149C1B2F013
:102EE0004AC1B3F04BC1B4F04CC1B5F00001D89069
:102EF000B533B433B333B233B2C04DF1B3C04EF1D6
:102F0000B4C04FF1B5C050F10AD0DBECB0F013C043
:102F100051F114C052F115C053F116C054F1040E12
:102F20000101245F24D04CECB4F00101186F240798
:102F30001ED024C113F0146A71ECB3F018D0010153
:102F40001951010AD8B44ED7020AD8B456D7050A87
:102F5000D8B45ED72C0AD8B488D7190AD8B4B1D758
:102F6000060AD8B4E0D7030AD8B4CFD7E2D7000115
:102F7000B1BF9BD0B15103E1B005D8A096D01DD709
:102F800001012151D8B40ED021EE25F012EEC6F089
:102F90002F0EDBCFE3FFE806FCE2A1ECB5F0010E5B
:102FA0000201486F01011E51D8B412009DECB5F02A
:102FB000120001012351D8B4120049C1EAF24AC1FA
:102FC000EBF24BC1ECF24CC1EDF24DC1EEF24EC151
:102FD000EFF24FC1F0F250C1F1F2C6C200F2C7C227
:102FE00001F2C8C202F2C9C203F2D2C204F2D3C2D1
:102FF00005F2D4C206F2D5C207F2D6C208F2D7C291
:1030000009F2D8C20AF2D9C20BF2CEC210F2CFC274
:1030100011F2D0C212F2D1C213F2E2C214F2E3C230
:1030200015F2E4C216F2E5C217F2CAC20CF2CBC224
:103030000DF2CCC20EF2CDC20FF20201DA51DB1159
:10304000DC11DD11D8B416D0DAC218F2DBC219F2E5
:10305000DCC21AF2DDC21BF2DE51DF11E011E11118
:10306000D8B408D0DEC21CF2DFC21DF2E0C21EF2EC
:10307000E1C21FF2030E486F120001012251D8B4C1
:103080001200000E0201EA6F000EEB6F000EEC6FF3
:10309000000EED6F000EEE6F000EEF6F000EF06F82
:1030A000000EF16F000E486F120001011851020A64
:1030B000D8B466D7070AD8B47CD7030AD8A41200BC
:1030C000DCD7000E0001FC6F000EFD6F000EFE6FDE
:1030D000000E02012A6F000E2B6F000E2C6F000EE7
:1030E0002D6F000E456F000E446F540E136E020ECE
:1030F000146E000E166E140E156E32ECB1F0000E4A
:103100003B6E000E3C6E020156515711D8B41200AE
:1031100054515511D8B41200545101010C6F0B6B6E
:1031200054C20DF155C20EF10EC10DF10E6BFF0E22
:103130000D17000E0E170B510D110201546F0101F6
:103140000C510E110201556F565101010C6F0B6BA2
:1031500022EE56F0DECF0DF1DDCF0EF10EC10DF1F6
:103160000E6BFF0E0D17000E0E170B510D11020105
:10317000566F01010C510E110201576F3DC0FDF059
:103180003EC0FEF01DD0FDC0D9FFFEC0DAFFDE500C
:103190000201561909E1DE505719D8A405D0FDC027
:1031A0003BF0FEC03CF01AD0000120EE2FF0FD51A4
:1031B000D926FE51DA22DECFFDF0DDCFFEF0FC2B6A
:1031C0000001FD51FE11D8B409D0FC51800A010163
:1031D0000B6F4550800A0B5DD8A0D5D73B503C10F3
:1031E000D8B4120020EE06F03B50D9263C50DA222B
:1031F00002015451DE1804E15551DE18D8B40CD048
:1032000020EE02F03B50D9263C50DA22DE50DE1090
:10321000DE10DE10D8A4120005C12AF206C12BF27E
:1032200007C12CF208C12DF260390F0B01010B6FA1
:103230000C6BD8900B370C37D8900B370C370B1F13
:103240000C1F0B4B0C2B09510B250201446F010184
:103250000A510C210201456F5AECA7F0E806D8A4E8
:103260001200020161A312D061A908D020EE2EF055
:103270003B50D9263C50DA22050E39D020EE2EF0F4
:103280003B50D9263C50DA22030E31D061A112D036
:1032900061A908D020EE2EF03B50D9263C50DA220E
:1032A000070E25D020EE2EF03B50D9263C50DA22D6
:1032B000060E1DD061A512D061A908D020EE2EF017
:1032C0003B50D9263C50DA220A0E11D020EE2EF0C7
:1032D0003B50D9263C50DA22090E09D061A908D00A
:1032E00020EE2EF03B50D9263C50DA22040EDF6E41
:1032F000FF0E5C1501010B6F000E02015D1501014F
:103300000C6F000E02015E1501010D6F000E02012F
:103310005F1501010E6F0BC10EF10D6B0C6B0B6B8A
:1033200022EE5CF0000EDE140F6FFF0EDE14106F45
:10333000000EDE14116F000EDE14126F11C112F1B7
:1033400010C111F10FC110F10F6B5CC213F15DC21E
:1033500014F15EC215F15FC216F114C113F115C16B
:1033600014F116C115F1166B000E1315176FFF0E31
:103370001415186F000E1515196F000E16151A6F1B
:1033800022EE5CF0000EDE141B6F000EDE141C6FCC
:10339000000EDE141D6FFF0EDE141E6F190E05D019
:1033A000D8901E331D331C331B33E82EF9D7175129
:1033B0001B111F6F18511C11206F19511D11216F06
:1033C0001A511E11226F0F511F11236F105120111E
:1033D000246F11512111256F12512211266F0B51AB
:1033E000231102015C6F01010C51241102015D6F78
:1033F00001010D51251102015E6F01010E512611CF
:1034000002015F6FFF0E581501010B6F000E0201E4
:10341000591501010C6F000E02015A1501010D6FC3
:10342000000E02015B1501010E6F0BC10EF10D6B59
:103430000C6B0B6B22EE58F0000EDE140F6FFF0EBC
:10344000DE14106F000EDE14116F000EDE14126F0A
:1034500011C112F110C111F10FC110F10F6B58C25F
:1034600013F159C214F15AC215F15BC216F114C11D
:1034700013F115C114F116C115F1166B000E1315D9
:10348000176FFF0E1415186F000E1515196F000E2B
:1034900016151A6F22EE58F0000EDE141B6F000E88
:1034A000DE141C6F000EDE141D6FFF0EDE141E6F87
:1034B000190E05D0D8901E331D331C331B33E82E54
:1034C000F9D717511B111F6F18511C11206F19517B
:1034D0001D11216F1A511E11226F0F511F11236FE1
:1034E00010512011246F11512111256F12512211F9
:1034F000266F0B5123110201586F01010C51241149
:103500000201596F01010D51251102015A6F01018C
:103510000E51261102015B6F00EC80F01200000ECC
:1035200000017C6F010E7E6F000E7D6F000E806FBC
:10353000080E7F6F060E816F040E826F010E846F7E
:10354000000E836F850E136E000E146E840E156EC2
:10355000020E166E000E186E060E176E1BECB2F001
:10356000FF0E020100150001606F000E020101153F
:103570000001616F000E020102150001626F000E72
:10358000020103150001636F60C063F0626B616B41
:10359000606B000E020100150001646FFF0E020156
:1035A00001150001656F000E020102150001666F32
:1035B000000E020103150001676F66C067F065C069
:1035C00066F064C065F0646B00C268F001C269F027
:1035D00002C26AF003C26BF069C068F06AC069F0A9
:1035E0006BC06AF06B6B000E68156C6FFF0E69158F
:1035F0006D6F000E6A156E6F000E6B156F6F000E0B
:10360000020100150001706F000E0201011500019A
:10361000716F000E020102150001726FFF0E0201B0
:1036200003150001736F190E05D0D89073337233F0
:1036300071337033E82EF9D76C517011746F6D517E
:103640007111756F6E517211766F6F517311776FC3
:1036500064517411786F65517511796F66517611E7
:103660007A6F675177117B6F605178118B6F615161
:1036700079118C6F62517A118D6F63517B118E6F4E
:10368000FF0E2D14606F000E2E14616F000E2F14AC
:10369000626F000E3014636F60C063F0626B616B29
:1036A000606B000E2D14646FFF0E2E14656F000EFC
:1036B0002F14666F000E3014676F66C067F065C028
:1036C00066F064C065F0646B2DC068F02EC069F0D0
:1036D0002FC06AF030C06BF069C068F06AC069F052
:1036E0006BC06AF06B6B000E68156C6FFF0E69158E
:1036F0006D6F000E6A156E6F000E6B156F6F000E0A
:103700002D14706F000E2E14716F000E2F14726F37
:10371000FF0E3014736F190E05D0D89073337233C7
:1037200071337033E82EF9D76C517011746F6D518D
:103730007111756F6E517211766F6F517311776FD2
:1037400064517411786F65517511796F66517611F6
:103750007A6F675177117B6F60517811956F615166
:103760007911966F62517A11976F63517B11986F3F
:10377000000E8F6F000E906F000E916F000E926F13
:10378000000E936F000E946F450E256EFF0E266E91
:10379000080E286E060E276EACEC9FF000017C6FC1
:1037A0007C05D8A413D07D0E136E000E146E000E8F
:1037B000166E1C0E156EB8ECB2F088ECACF0000181
:1037C0007C6F7C05D8A402D0050E12007C5112003B
:1037D000000E0001D26F000ED36F050ED46FB1BF83
:1037E0001200B15104E10D0EB05DD8A012007DECC5
:1037F000B2F013C0C5F014C0C6F0210EF66EFF0E75
:10380000F76E000EF86E0900F5500001C51904E1CD
:103810000900F550C619D8A4A9D0DBECB0F07DECB6
:10382000B2F013C0CAF014C0CBF07DECB2F013C0FC
:10383000BBF014C0BCF07DECB2F00001F40EB02778
:10384000FF0EB123B1BF92D0B15120E1B005D8B085
:103850001DD08CD0D251010D000EF324D96E010E73
:10386000F420DA6E4CECB4F0DF6E0001D22BC90705
:10387000C929D8A4EFD7D251010D000EF324D96E77
:10388000010EF420DA6E2E0EDF6ED22B4CECB4F06B
:103890000001C96FC951D8A4EAD7FF0EB26FFF0E5D
:1038A000B36FD251B46FB56BB251B427B351B523D6
:1038B000000EB425D96E010EB521DA6E000EDF6E52
:1038C000DBECB0F00001D251B26FB36B050EB22742
:1038D000000EB323B251B05FB351B15B43D07DEC66
:1038E000B2F07DECB2F013C0C7F014C0C8F07DECAC
:1038F000B2F0DBECB0F013C0C1F014C0C2F015C0E0
:10390000C3F016C0C4F07DECB2F013C0CCF014C00C
:10391000CDF00001C705C811D8A40DD0DBECB0F084
:1039200013C0BDF014C0BEF015C0BFF016C0C0F08B
:1039300015D04CECB4F00001CC07D8A0CD07CC29B1
:10394000F8E1CD29D8A4F5D70E0ECC25B26F000E24
:10395000CD21B36FB251B05FB351B15B0001CA0763
:10396000D8A0CB07CA51CB11D8A4B9D7000ECE6FBF
:10397000050ECF6F080ED16FD151D8B424D020EEF0
:103980000CF0CE51D926CF51DA2210EE0CF0D351E3
:10399000E126D451E222DE50E65CDE50E658DE50ED
:1039A000E658E650800ABA6FDE50800ABA59D8B09D
:1039B00004D0CEC0D3F0CFC0D4F0100ECE27000E6E
:1039C000CF23D107D9D7000ED06F070ED06501D015
:1039D0001200D3C0D9FFD4C0DAFFDECF13F0DDCFA1
:1039E00014F0000E156E010E166EF8ECB1F01350C7
:1039F0001410D8A43AD0000E136E000E146E07EC0B
:103A0000B1F0000120EE0CF0D351D926D451DA22C6
:103A100013C0DEFF14C0DEFF15C0DEFF16C0DEFFE0
:103A200020EE03F0D351D926D451DA22BDC0DEFFF7
:103A3000BEC0DEFFBFC0DEFFC0C0DEFF20EE07F06D
:103A4000D351D926D451DA22C1C0DEFFC2C0DEFF75
:103A5000C3C0DEFFC4C0DEFF20EE0BF0D351D92679
:103A6000D451DA22010EDF6E1200100E0001D327AE
:103A7000000ED423D02BA9D7020124912495249998
:103A8000AEECB1F0000E0201276F000E266F000EA3
:103A9000406E000E3F6E000ED26E0E01FDB5FDD7DA
:103AA000D2A605D0FDD7020124938AECAFF060BC0A
:103AB000FAD7000E0E01FE6F00F000F000F0A00E2D
:103AC0000E01FE6FFDA1FED7010EA06F00F0B20E39
:103AD0000E01A26F00F0400E0E01A36F00F0120E57
:103AE0000E01A46F00F00C0E0E01A76F120EA66F50
:103AF00000F0000E0E01976F000E0001866F000EA1
:103B0000856F140E0E01E56F160EE46F1F0EE76F42
:103B1000E669000EE96F000EE86F140EEB6F150EEC
:103B2000EA6F000E7B6E000E7A6E140EE36F160EB7
:103B3000E26F140EED6F150EEC6F050EAB6FEE0E0F
:103B4000AA6F75ECB5F013C087F014C088F04B0E67
:103B500000016D6FFF0E6E6F87C0F6FF88C0F7FF24
:103B6000000EF86E0800F5506F6F706B010E872520
:103B70007B6F000E88217C6F7BC0F6FF7CC0F7FF57
:103B8000000EF86E0800F550716F726B020E8725FB
:103B90007D6F000E88217E6F7DC0F6FF7EC0F7FF2F
:103BA000000EF86E0800F550736F746B030E8725D6
:103BB0007F6F000E8821806F7FC0F6FF80C0F7FF07
:103BC000000EF86E0800F550756F766B040E8725B1
:103BD000816F000E8821826F81C0F6FF82C0F7FFDF
:103BE000000EF86E0800F550776F786B050E87258C
:103BF000836F000E8821846F83C0F6FF84C0F7FFB7
:103C0000000EF86E0800F550796F7A6B9BECB2F0FD
:103C100087C0F6FF88C0F7FF000EF86E0800F5CFEA
:103C200084FE00F0010E000187257B6F000E8821C5
:103C30007C6F7BC0F6FF7CC0F7FF000EF86E0800BB
:103C4000F5CF85FE00F0020E000187257B6F000E88
:103C500088217C6F7BC0F6FF7CC0F7FF000EF86EFA
:103C60000800F5CF82FE00F0030E000187257B6F70
:103C7000000E88217C6F7BC0F6FF7CC0F7FF000E32
:103C8000F86E0800F5CF83FE00F0040E00018725D2
:103C90007B6F000E88217C6F7BC0F6FF7CC0F7FF36
:103CA000000EF86E0800F5CF80FE00F0050E000152
:103CB00087257B6F000E88217C6F7BC0F6FF7CC060
:103CC000F7FF000EF86E0800F5CF81FE00F0AB0E96
:103CD0000E01D86F040ED26E85C015F086C016F0A6
:103CE000000E38ECB4F0010E166E100E156E100EAC
:103CF00038ECB4F01D0E166E4A0E156E140E38EC2C
:103D0000B4F023ECB4F0590E0E01FB6F000E166EEA
:103D1000120E156E120E38ECB4F01200000E0001F7
:103D2000A76F02010051011102110311D8A404D0A0
:103D3000110E3518D8A40DD1000506E17F0E031928
:103D400001110211D8B405D1312807E1322805E16B
:103D5000332803E13428D8B4A0D0000E311000017C
:103D6000996F000E32109A6F000E33109B6FFF0E8A
:103D700034109C6F992907E19A2905E19B2903E1F9
:103D80009C29D8B48AD0000E3110996F000E3210E1
:103D90009A6FFF0E33109B6FFF0E34109C6F9929A2
:103DA00007E19A2905E19B2903E19C29D8B475D044
:103DB000000E3110996FFF0E32109A6FFF0E331004
:103DC0009B6FFF0E34109C6F992907E19A2905E13A
:103DD0009B2903E19C29D8B460D03150020100191D
:103DE0000001996F32500201011900019A6F33509E
:103DF0000201021900019B6F3450020103190001F6
:103E00009C6F02010C51000199159D6F02010D512B
:103E100000019A159E6F02010E5100019B159F6FC4
:103E200002010F5100019C15A06F9D519E119F1121
:103E3000A011D8A409D031C0A1F032C0A2F033C083
:103E4000A3F034C0A4F008D010C2A1F011C2A2F0B7
:103E500012C2A3F013C2A4F0A1C013F0A2C014F0C8
:103E6000A3C015F0A4C016F0AEECB0F013C0A5F0DE
:103E700014C0A6F00001A551A611D8A413D0A1C06A
:103E80002DF0A2C02EF0A3C02FF0A4C030F08FEC14
:103E90009AF00001A76FA7511200450E0001A56F0F
:103EA000FF0EA66FA5C025F0A6C026F0080E286E4E
:103EB000000E276EACEC9FF00001A76FA705D8A4F9
:103EC00048D0450E146E000E136E5DECB5F0000E7A
:103ED000146E000E136E5DECB5F0000E136E400E06
:103EE000146E550E156EAA0E166EE6ECB4F0400E6A
:103EF00098ECB5F0355098ECB5F0000E146E000E4D
:103F0000136E5DECB5F000C213F001C214F002C2F2
:103F100015F003C216F0E6ECB4F031C013F032C075
:103F200014F033C015F034C016F0E6ECB4F000C263
:103F300074F201C275F202C276F203C277F231C0A6
:103F400078F232C079F233C07AF234C07BF235C0F5
:103F500071F20001A7511200000E2B6E000E2C6EA4
:103F6000020124B502D0020E120043504410D8B40E
:103F70000CD043C0D9FF44C0DAFFDECF29F0DDCF3B
:103F80002AF029A002D0030E12000C0E0E01E25DF1
:103F90001A0EE359D8A00FD0D2A602D0040E1200F8
:103FA000AAECA3F00C0E0E01E25D1A0EE359D8A0A4
:103FB00002D0030E1200CDECA1F013C02BF014C000
:103FC0002CF02B502C10D8A402D0030E12002BC0C2
:103FD000D9FF2CC0DAFFDECF29F0DDCF2AF0010EA9
:103FE0002912000E2A122BC0D9FF2CC0DAFF29C0DB
:103FF000DEFF2AC0DDFF20EE02F02B50D9262C5028
:10400000DA22DECFE2FEDDCFE3FE8EECB5F0060E67
:10401000A8ECB5F025C0F6FF26C0F7FF000EF86E3D
:104020000F0EF76403D00800F55005D0F6CFE9FF76
:10403000F7CFEAFFEF50A8ECB5F0010E2524296E6A
:10404000000E26202A6E29C0F6FF2AC0F7FF000EB8
:10405000F86E0F0EF76403D00800F55005D0F6CFC8
:10406000E9FFF7CFEAFFEF50A8ECB5F0020E2524E8
:10407000296E000E26202A6E29C0F6FF2AC0F7FFFF
:10408000000EF86E0F0EF76403D00800F55005D04F
:10409000F6CFE9FFF7CFEAFFEF50A8ECB5F0030E3B
:1040A0002524296E000E26202A6E29C0F6FF2AC07C
:1040B000F7FF000EF86E0F0EF76403D00800F550FE
:1040C00005D0F6CFE9FFF7CFEAFFEF50A8ECB5F047
:1040D000040E2524296E000E26202A6E29C0F6FF24
:1040E0002AC0F7FF000EF86E0F0EF76403D0080029
:1040F000F55005D0F6CFE9FFF7CFEAFFEF50A8EC77
:10410000B5F0050E2524296E000E26202A6E29C042
:10411000F6FF2AC0F7FF000EF86E0F0EF76403D00B
:104120000800F55005D0F6CFE9FFF7CFEAFFEF50D2
:10413000A8ECB5F00E018451A8ECB5F00E01855144
:10414000A8ECB5F00E018251A8ECB5F00E01835138
:10415000A8ECB5F00E018051A8ECB5F00E0181512C
:10416000A8ECB5F02850A8ECB5F02750A8ECB5F0B5
:104170002B0EAFECB5F0010E12003A6EFF0E0001EF
:10418000A86FFF0EA96FFF0EAA6FFF0EAB6F000E98
:10419000AD6F440EAC6F000EAF6F430EAE6F53ECBD
:1041A000B0F0396E3904D8A4F6D0000E136E060EA6
:1041B000146E010E156E010E166EE6ECB4F0E6C23A
:1041C00013F0E7C214F0E8C215F0E9C216F0E6EC0D
:1041D000B4F0000E136E800E146E000E156E000EFD
:1041E000166EE6ECB4F0030E3A18D8A40BD0000E0D
:1041F000136E000E146E000E156E000E166EE6ECB9
:10420000B4F00AD0C6C213F0C7C214F0C8C215F089
:10421000C9C216F0E6ECB4F0000E136E000E146E78
:10422000000E156E000E166EE6ECB4F0000E136E66
:10423000000E146E000E156E000E166EE6ECB4F055
:10424000000E136E000E146E000E156E000E166E2C
:10425000E6ECB4F0840E136E020E146E000E166EB1
:10426000060E156EB8ECB2F0000E156ECA0E146E86
:10427000F3ECB4F0630E136E530E146E820E156ED3
:10428000630E166EE6ECB4F00C0E98ECB5F0320E40
:10429000136EFF0E146E5CECB1F0135098ECB5F099
:1042A000320E136EFF0E146ED3ECB1F02A0E98ECA2
:1042B000B5F0040E98ECB5F0000E136E000E146EFF
:1042C000000E156E000E166EE6ECB4F0350E98EC8E
:1042D000B5F0010E98ECB5F03A5098ECB5F0030E3D
:1042E0003A18D8A420D0320E98ECB5F0040E98EC11
:1042F000B5F0C6C213F0C7C214F0C8C215F0C9C2E7
:1043000016F0E6ECB4F0360E98ECB5F0040E98EC2E
:10431000B5F0F2C213F0F3C214F0F4C215F0F5C216
:1043200016F0E6ECB4F0370E98ECB5F0040E98EC0D
:10433000B5F0010E98ECB5F0030E98ECB5F0060E52
:1043400098ECB5F00F0E98ECB5F0390E98ECB5F08E
:10435000020E98ECB5F0020E146E000E136E5DECBA
:10436000B5F03D0E98ECB5F0070E98ECB5F0010EE7
:1043700098ECB5F0840E136E020E146E000E166EDD
:10438000060E156EB8ECB2F0FF0E98ECB5F0A0EC8E
:10439000A9F0010E1200000E1200000E176E140E8E
:1043A0004618D8A4EBD0000E146E000E136E120047
:1043B00017500A0D000EF324D96E040EF420DA6EA5
:1043C0000401DFB4DAD017500A0D000EF324D96EC1
:1043D000040EF420DA6E000EDE6E000EDD6E175055
:1043E0000A0D000EF324D96E040EF420DA6EDECF2F
:1043F00015F0DDCF16F0040E1512000E1612175030
:104400000A0D000EF324D96E040EF420DA6E15C0E6
:10441000DEFF16C0DDFF17500A0D040EF326000E56
:10442000F422000EF324D96E040EF420DA6EFF0E8F
:10443000DE6E1F0EDD6E17500A0D060EF326000EFF
:10444000F422000EF324D96E040EF420DA6E000E6E
:10445000DE6E000EDD6E17500A0D080EF326000EFC
:10446000F422000EF324D96E040EF420DA6E43C059
:10447000DEFF44C0DDFF43504410D8B454D0175081
:104480000A0D000E156E040E166EF3501526F4502C
:10449000162220EE06F04350D9264450DA2215C0E9
:1044A000DEFF16C0DDFF20EE04F04350D926445055
:1044B000DA22DECF15F0DDCF16F0070E1526000E3E
:1044C000162217500A0D020EF326000EF422000EDB
:1044D000F324D96E040EF420DA6E15C0DEFF16C088
:1044E000DDFF17500A0D020EF326000EF422000E17
:1044F000F324D96E040EF420DA6EDECF15F0DDCF92
:1045000016F015A028D017500A0D020EF326000E43
:10451000F422000EF324D96E040EF420DA6EDE2AA3
:10452000000EDD2218D017500A0D020EF326000EE1
:10453000F422000EF324D96E040EF420DA6E160E67
:10454000DE6E140EDD6E17500A0D000EF324416E60
:10455000040EF420426E17500A0D000EF324436E31
:10456000040EF420446E462A17500A0D000EF32460
:10457000136E040EF420146E1200172A130E176423
:1045800017D7000E146E000E136E1200000E0001FD
:10459000DB6F7C0E136E020E146E000E166E080E8C
:1045A000156E32ECB1F0020182518311D8B405D0FE
:1045B0000001D551D611D8A4C9D002017E51000105
:1045C000D86FD76B22EE7EF0DECFD9F0DDCFDAF0F8
:1045D000DAC0D9F0DA6BFF0ED917000EDA17D7510F
:1045E000D91102017E6F0001D851DA1102017F6FEB
:1045F0007C510001D86FD76B7CC2D9F07DC2DAF054
:10460000DAC0D9F0DA6BFF0ED917000EDA17D751DE
:10461000D91102014A6F0001D851DA1102014B6F22
:1046200080510001D86FD76B22EE80F0DECFD9F039
:10463000DDCFDAF0DAC0D9F0DA6BFF0ED917000E51
:10464000DA17D751D9110201806F0001D851DA1160
:104650000201816F0D0E0001DB6F7AECB5F013C023
:10466000DCF014C0DDF04CD0DCC0F6FFDDC0F7FF9D
:10467000000EF86E02017E510900F51837E17F51F6
:104680000900F518D8A432D02AECB5F00201805107
:10469000131828E181511418D8A424D0F80E8025CD
:1046A0000001B06FFF0E020181210001B16F020E07
:1046B000DC25D76F000EDD21D86FD7C0F6FFD8C03C
:1046C000F7FF000EF86E01D80DD00500FA6E090054
:1046D000F550FD6E0900F550FE6E0900F550FF6EB5
:1046E000FA501200010E0001DB6F0FD0DCC015F094
:1046F000DDC016F0F1ECB2F015C0DCF016C0DDF054
:104700000001DC51DD11D8A4AFD70D0EDB19D8A400
:10471000120078C2A8F079C2A9F07AC2AAF07BC2CE
:10472000ABF074C2ACF075C2ADF076C2AEF077C239
:10473000AFF0050E020180250001B06F000E0201EE
:1047400081210001B16F1DECA9F012000A0E0001D9
:10475000DB6F120020EE04F04350D9264450DA22D9
:10476000DECF19F0DDCF1AF020EE02F04150D9264D
:104770004250DA22DECF1BF0DDCF1CF01B1E1C1EC8
:104780001B4A1C2A19501B24216E1A501C20226E11
:10479000D89021341F6E2234206E01D000F0D2AAAE
:1047A00007D01F06D8A020061F502010D8A4F6D787
:1047B000D2BA9BD0140E0E01F56F160EF46F20EED8
:1047C00002F04150D9264250DA22DECFF0FEDDCF92
:1047D000F1FE20EE04F04350D9264450DA22DECF19
:1047E000F2FEDDCFF3FED298D28A21C013F022C0B0
:1047F00014F0000E166E280E156E5FECB4F013C0A8
:104800001FF014C020F001D000F0D2AA07D01F067C
:10481000D8A020061F502010D8A4F6D7D2BA65D051
:1048200043C023F044C024F020EE02F04150D926CA
:104830004250DA22DECF1DF0DDCF1EF04AD020EE4E
:1048400002F02350D9262450DA22DECF19F0DDCF32
:104850001AF01DC01BF01EC01CF01B1E1C1E1B4AA4
:104860001C2A19501B261A501C2220EE02F023503D
:10487000D9262450DA221BC0DEFF1CC0DDFF20EE4B
:1048800004F02350D9262450DA22DECF19F0DDCFF0
:104890001AF01DC01BF01EC01CF01B1E1C1E1B4A64
:1048A0001C2A19501B261A501C2220EE04F02350FB
:1048B000D9262450DA221BC0DEFF1CC0DDFF20EE0B
:1048C00008F02350D9262450DA22DECF23F0DDCFA2
:1048D00024F023502410D8A4B2D7160E21240E01A0
:1048E000E26F140E2220E36F1200FF001200000E90
:1048F0000101076F000E086F000E066F000E056FB6
:10490000010E03010027000E012302230323010EE1
:1049100002014625466F000E4721476F040E475D92
:10492000D8B004D0040E476F000E466F3DC007F1AB
:104930003EC008F185D0010120EE33F00751D926A1
:104940000851DA22DE50DE10D8B46DD0FF0E00011F
:10495000FC6FFF0EFD6F010120EE33F00751D926E9
:104960000851DA22DECFFEF0DDCFFFF00001FC516E
:10497000FE27FD51FF23010120EE33F00751D92618
:104980000851DA22FEC0DEFFFFC0DDFF20EE33F06B
:104990000751D9260851DA22DE50DE10D8A443D0C0
:1049A00020EE2EF00751D9260851DA220D0EDE181E
:1049B000D8A439D020EE35F00751D9260851DA2293
:1049C00010EE33F00751E1260851E222DECFE6FF78
:1049D000DDCFE5FF20EE37F00751D9260851DA2266
:1049E000DF50D8B411D020EE37F00751D926085146
:1049F000DA2210EE37F00751E1260851E222E750A3
:104A00000001FC6FFC05DF6E010120EE2EF0075166
:104A1000D9260851DA220C0EDF6E07C13BF008C11F
:104A20003CF000EC80F0010120EE2FF00751D92678
:104A30000851DA22DECF07F1DDCF08F1054B062B56
:104A4000010107510811D8B4120045C0FCF0000163
:104A5000FD6BFCBFFD07FC510101055D0651800A9D
:104A60000001FE6FFD51800AFE59D8B0120063D7D5
:104A7000000E0001B56F000EB46F000EB86F7DEC34
:104A8000B2F013C0AEF014C0AFF07DECB2F013C0C2
:104A9000B0F014C0B1F0000120EE0CF0A851D926FE
:104AA000A951DA22DECF31F0DECF32F0DECF33F0A3
:104AB000DECF34F020EE09F0A851D926A951DA2230
:104AC000DF50356E8EEC9EF00001B86FB805D8A4AB
:104AD00088D020EE02F0A851D926A951DA22DECFE3
:104AE000AAF0DDCFABF0EC0EAA25B66FFF0EAB211E
:104AF000B76F20EE02F0A851D926A951DA22DECFF5
:104B0000AAF0DDCFABF0A8C0D9FFA9C0DAFFDF5013
:104B10000F0BAC6FAD6BD890AC37AD37D890AC37CE
:104B2000AD37AC1FAD1FAC4BAD2BAA51AC25B66F4A
:104B3000AB51AD21B76F000E146E000E136E5DEC1D
:104B4000B5F0000E146E000E136E5DECB5F0AEC045
:104B500013F0AFC014F05DECB5F0B0C013F0B1C00D
:104B600014F05DECB5F0F80E0001B625196EFF0EDD
:104B7000B7211A6E31ECACF00001B86FB805D8A4BB
:104B800030D0000EB56F220EB46F000EB36F220E40
:104B9000B26FB2C025F0B3C026F0B6C027F0B7C0E0
:104BA00028F0000E2A6E000E296E6DECABF025C0C9
:104BB000B4F026C0B5F0B40E136E000E146E000EE5
:104BC000166E020E156E000E186E240E176EF4ECA3
:104BD000AFF0B6C037F0B7C038F07BECADF00001F5
:104BE000B86FB8511200000E0001F16F20EE22F0F4
:104BF0003B50D9263C50DA22DE04D8A4120020EE25
:104C00001AF03B50D9263C50DA22E751DE5CE851DD
:104C1000DE58D8A005D0E7C0F2F0E8C0F3F00AD023
:104C200020EE1AF03B50D9263C50DA22DECFF2F0CB
:104C3000DDCFF3F020EE20F03B50D9263C50DA22B5
:104C4000DECF13F0DDCF14F0F2C015F0F3C016F094
:104C500032ECB1F020EE20F03B50D9263C50DA2265
:104C6000DECFE9F0DDCFEAF00001F251E927F351A0
:104C7000EA2320EE20F03B50D9263C50DA22E9C04E
:104C8000DEFFEAC0DDFF20EE1AF03B50D9263C5093
:104C9000DA22DECFE9F0DDCFEAF0F2C0EBF0F3C0CC
:104CA000ECF0EB1FEC1FEB4BEC2BE951EB27EA513F
:104CB000EC2320EE1AF03B50D9263C50DA22EBC010
:104CC000DEFFECC0DDFF20EE08F03B50D9263C5063
:104CD000DA22DECFE9F0DECFEAF0DECFEBF0DECF96
:104CE000ECF0F251E925ED6FF351EA21EE6F000E81
:104CF000EB21EF6F000EEC21F06F20EE0CF03B503B
:104D0000D9263C50DA22EDC0DEFFEEC0DEFFEFC058
:104D1000DEFFF0C0DEFF20EE38F03B50D9263C50DD
:104D2000DA22100EDF6E20EE2CF03B50D9263C50DC
:104D3000DA22010EDF6E3BC0A8F03CC0A9F061ECA6
:104D40008DF020EE2CF03B50D9263C50DA22000E9C
:104D5000DF6E010E0001F16F1200000E136E000EE7
:104D6000146E07ECB1F013C0B2F014C0B3F015C06C
:104D7000B4F016C0B5F002012E510001B25D02017F
:104D80002F510001B359020130510001B459B551FE
:104D9000800AB16F02013151800A0001B159D8B0C7
:104DA00065D073D0040E0201EA6F000EEB6F000EA7
:104DB000EC6F000EED6F010E36D0020EEA19EB110A
:104DC000EC11ED11D8A403D0020E496F05D0EA070B
:104DD000000EEB5BEC5BED5B020EEE19EF11F011D8
:104DE000F111D8A402D0030E1ED0EE07000EEF5B27
:104DF000F05BF15B4AD056ECAEF00009D8B445D078
:104E00000A0E0201EA6F000EEB6F000EEC6F000E4F
:104E1000ED6FFF0EEE6FFF0EEF6FFF0EF06F7F0E68
:104E2000F16F000E1FD0496F30D0A1ECB5F0000932
:104E3000D8B42BD01E0E0201EA6F000EEB6F000EED
:104E4000EC6F000EED6F0F0EEE6F000EEF6F000EA9
:104E5000F06F000EF16F030E4819D8A402D0020EB5
:104E600001D0010E486FA7D7000EDDD702014951CE
:104E7000000AD8B497D7010AD8B49FD7030AD8B488
:104E8000BAD7010AD8B4D1D7EFD7010E0001B225A5
:104E900002012E6F000E0001B32102012F6F000EE0
:104EA0000001B4210201306F000E0001B5210201A2
:104EB000316F1200000E196E020160390F0B176E70
:104EC000186AD89017361836D89017361836EC0E60
:104ED00017241B6EFF0E18201C6E1B501C10D8B41C
:104EE00089D0020E4C6E180E4B6E61B374D07CD01C
:104EF0004CECB4F01A6E64D01B501C10D8B458D0CF
:104F00001BC013F01CC014F071ECB3F0000E1C6E4B
:104F1000000E1B6E4DD01C5004E1030E1B5CD8A08C
:104F200049D04CECB4F01A6E040E1A18D8A442D032
:104F30007DECB2F013C04BF014C04CF0FD0E1B24FE
:104F40001B6EFF0E1C201C6EB50E4B5C050E4C58E4
:104F5000D8A02ED0050E4C6EB40E4B6E29D0196E13
:104F60003AD04CECB4F01A6E1B06D8A01C06010E09
:104F70001A6420D01A50FE0F1A6E1A50176E186A53
:104F800017501B5C18501C58D8A014D01AC013F02E
:104F9000146A71ECB3F01A50176E186A171E181EB7
:104FA000174A182A1B5017241B6E1C5018201C6E01
:104FB000010ED5D7000E1C6E000E1B6E000ECFD753
:104FC0001A50000AD8B498D7010AD8B404D0030AFA
:104FD000D8B4A1D7C6D71B06D8A01C061B2888E1C9
:104FE0001C28D8B409D084D71BC013F01CC014F0FF
:104FF00071ECB3F0010E196E1950120015C01FF0BC
:1050000016C020F0216A226A16D0000E246E000E0F
:10501000236E93ECB5F0246E93ECB5F0236E235021
:105020001F2624502022000E2122000E2222020ED2
:10503000135E000E145A1450E8E1020E135CD8B04F
:10504000E4D713501410D8B43BD0000E246E000ED9
:10505000236E93ECB5F0246E000E236E23501F26B2
:1050600024502022000E2122000E222229D01FC00F
:1050700017F020C018F021C019F022C01AF0110E4C
:1050800005D0D8901A32193218321732E82EF9D7D3
:10509000FF0E1F141B6EFF0E20141C6E000E211439
:1050A0001D6E000E22141E6E17501B241F6E18500A
:1050B0001C20206E19501D20216E1A501E20226EB9
:1050C0001FC017F020C018F021C019F022C01AF03C
:1050D000110E05D0D8901A32193218321732E82E34
:1050E000F9D71750181019101A10D8A4C0D71FC01C
:1050F00017F020C018F021C019F022C01AF0171EB6
:10510000181E191E1A1E17C01FF018C020F019C053
:1051100021F01AC022F01FC013F020C014F01200BA
:1051200020EE02F01350D9261450DA22DE6ADE6A2D
:10513000DE6ADD6A20EE06F01350D9261450DA221A
:10514000000EDE6E000EDD6E20EE10F01350D9263C
:105150001450DA22DE6ADE6ADE6ADD6A20EE14F0BE
:105160001350D9261450DA22DE6ADE6ADE6ADD6A5E
:1051700020EE08F01350D9261450DA22DE6ADE6AD7
:10518000DE6ADD6A20EE0CF01350D9261450DA22C4
:10519000DE6ADE6ADE6ADD6A20EE18F01350D92678
:1051A0001450DA22000EDE6E000EDD6E20EE33F0BB
:1051B0001350D9261450DA22000EDE6E000EDD6E7A
:1051C00020EE35F01350D9261450DA22000EDE6E90
:1051D000000EDD6E20EE37F01350D9261450DA227F
:1051E000000EDF6E20EE38F01350D9261450DA226C
:1051F000000EDF6E13C0D9FF14C0DAFF000EDE6EA2
:10520000000EDD6E20EE2AF01350D9261450DA225B
:10521000000EDE6E000EDD6E20EE2CF01350D9264F
:105220001450DA22000EDF6E20EE39F01350D9262A
:105230001450DA22040EDF6E1200000E0001B46F6B
:10524000000EB36F000EB26FA8510201001977E192
:105250000001A9510201011972E10001AA510201E4
:1052600002196DE10001AB5102010319D8A412002B
:10527000ACC031F0ADC032F0AEC033F0AFC034F0EE
:10528000010E356E8EEC9EF00001B46FB405D8A40B
:105290001200030E146E030E136E5DECB5F0000EDB
:1052A000146E000E136E5DECB5F0000E136E000E62
:1052B000146E000E156E000E166EE6ECB4F07FEC68
:1052C000B5F013C015F014C016F084ECB5F0140E50
:1052D0000001B025196E000EB1211A6E31ECACF050
:1052E000000E266E220E256E180E0001B025276EC8
:1052F000000EB121286E000E2A6E000E296E6DEC94
:10530000ABF025C0B2F026C0B3F0B20E136E000EA3
:10531000146E000E166E020E156E000E186E240E20
:10532000176EF4ECAFF0180E0001B025376E000ECA
:10533000B121386E7BECADF00001B46F12001200A9
:10534000000E0001736F84ECB4F013C076F014C04B
:1053500077F000017651706F6F6B76C071F077C097
:1053600072F072C071F0726BFF0E7117000E72173F
:105370006F517111766F70517211776F760E136ED7
:10538000000E146E000E166E020E156E000E186ED4
:10539000260E176EF4ECAFF000017651706F6F6B54
:1053A00076C071F077C072F072C071F0726BFF0E50
:1053B0007117000E72176F517111766F7051721163
:1053C000776F110E7625746F000E7721756F000EC2
:1053D000266E1A0E256E080E7625276E000E772192
:1053E000286E74C029F075C02AF06DECABF025C0B2
:1053F00074F026C075F0000174517511D8A402D064
:1054000074697569740E136E000E146E000E166EBC
:10541000020E156E000E186E280E176EF4ECAFF02B
:1054200076C037F077C038F07BECADF00001736FD9
:105430001200000E0001BF6FC00E136E000E146E3E
:10544000000E166E040E156E32ECB1F0000120EE67
:1054500010F0B951D926BA51DA22DE2832E1DE281D
:1054600030E1DE282EE1DE28D8B412002AD0B9C0FF
:10547000A8F0BAC0A9F038ECA5F00001BF6F120087
:10548000000E146E040E136E71ECB3F0B9C013F07D
:10549000BAC014F0000E166E140E156E32ECB1F098
:1054A000B9C0D9FFBAC0DAFF0001DF500F0B050AFF
:1054B000D8A412007DECB2F013C04CF214C04DF22F
:1054C00012000001C051BC6FBB6BC0C0BDF0C1C0B9
:1054D000BEF0BEC0BDF0BE6BFF0EBD17000EBE1706
:1054E000BB51BD13BC51BE13BE51030AD8B404D086
:1054F0000B0AD8A4120005D0BD51030AD8A412008B
:10550000BFD7BD51000AD8B4B2D72A0AD8B4AFD792
:10551000D60AD8A41200ABD7000E176E000E186E74
:1055200013501410D8B412004650D8B4120013C04F
:1055300017F014C018F020EE08F01750D9261850B4
:10554000DA22DE50DE10D8A418D020EE06F0175074
:10555000D9261850DA22DECF41F0DDCF42F041509B
:105560004210D8B40AD020EE08F04150D92642505B
:10557000DA22000EDE6E000EDD6E20EE06F0175011
:10558000D9261850DA22DE50DE10D8A418D020EE2A
:1055900008F01750D9261850DA22DECF43F0DDCFBD
:1055A00044F043504410D8B40AD020EE06F04350E3
:1055B000D9264450DA22000EDE6E000EDD6E17C0D2
:1055C000D9FF18C0DAFF000EDE6E000EDD6E20EE91
:1055D00006F01750D9261850DA22000EDE6E000EA3
:1055E000DD6E20EE08F01750D9261850DA22000E92
:1055F000DE6E000EDD6E46061200000E206E000EFE
:10560000216E000E226E000E236E74C224F075C24D
:1056100025F076C226F077C227F078C228F079C24A
:1056200029F07AC22AF07BC22BF071C22CF0000E56
:105630002D6E13C02EF014C02FF00C0E1F6ED890DC
:105640001F301F6E240E1D6E000E1E6E15D01DC065
:10565000D9FF1EC0DAFFDECF15F0DDCF16F01550F2
:10566000202616502122000E2222000E23221F0681
:10567000020E1D26000E1E221F50D8A4E8D720C0FF
:1056800015F021C016F022C017F023C018F0110E3B
:1056900005D0D8901832173216321532E82EF9D7C5
:1056A000FF0E2014196EFF0E21141A6E000E221424
:1056B0001B6E000E23141C6E15501924206E1650FC
:1056C0001A20216E17501B20226E18501C20236EAA
:1056D00020C013F021C014F012007ACF60F07BCF0D
:1056E00061F020EE02F04350D9264450DA22DECF9A
:1056F0002BF0DDCF2CF025502B2626502C22010E2E
:105700002B247A6E000E2C207B6E27C013F028C04D
:1057100014F029C015F02AC016F0FEECA7F013C053
:1057200062F014C063F00001646B656B60C07AFFC7
:1057300061C07BFFFF0E62152B6E000E63152C6E91
:10574000000E64152D6E000E65152E6E2DC02EF008
:105750002CC02DF02BC02CF02B6AFF0E62C02FF056
:1057600063C030F064C031F065C032F030C02FF05B
:1057700031C030F032C031F0326A2F14336E000E77
:105780003014346E000E3114356E000E3214366E45
:105790002B503310626F2C503410636F2D50351026
:1057A000646F2E503610656F62C025F063C026F01E
:1057B0001200B20EF66E660EF76E010EF86E03EE74
:1057C0007BF010EE30F00900F5CFEEFFE550E15030
:1057D000FAE11A0EF66E660EF76E010EF86E02EE24
:1057E000C6F010EE33F00900F5CFEEFFE550E150C2
:1057F000FAE1640EF66E6B0EF76E010EF86E09009C
:10580000F5CFFFF15A0EF66E6B0EF76E010EF86EC5
:105810000900F5CF4BF00900F5CF4CF005EE00F094
:10582000800EEE6AE806FDE104EE00F0C80EEE6AB6
:10583000E806FDE103EE00F07B0EEE6AE806FDE10E
:1058400002EE00F08E0EEE6AE806FDE100EE3BF09F
:105850000C0EEE6AE806FDE14D904D9200013AEF24
:10586000B5F0D89019341B6E1A341C6E01D000F0BC
:10587000D2AA07D01B06D8A01C061B501C10D8A407
:10588000F6D7D2BA42D0E2CEF4FEE3CEF5FE7ACF1E
:10589000F0FE7BCFF1FE19507A241D6E1A507B204A
:1058A0001E6E160E1D5C140E1E58D8A006D0EB0EF0
:1058B0001D241D6EEB0E1E201E6E1DC0F2FE1EC0AE
:1058C000F3FED298D28A19C013F01AC014F0000E59
:1058D000166E280E156E5FECB4F013C01BF014C0EA
