:040000005BEF00F0C2
:100008005A82FACF40F0FBCF41F0E9CF42F0EACF75
:1000180043F0E1CF44F0E2CF45F0D9CF46F0DACF54
:1000280047F0F3CF48F0F4CF49F0F6CF4AF0F7CFD6
:100038004BF0F8CF4CF0F5CF4DF05AC04EF05BC006
:100048004FF05CC050F05DC051F0F2BAF2A403D09A
:10005800D4EC80F006D0F2BC9DA003D09EB001EC99
:1000680081F051C05DF050C05CF04FC05BF04EC0F5
:100078005AF04DC0F5FF4CC0F8FF4BC0F7FF4AC01F
:10008800F6FF49C0F4FF48C0F3FF47C0DAFF46C097
:10009800D9FF45C0E2FF44C0E1FF43C0EAFF42C0C8
:1000A800E9FF41C0FBFF40C0FAFF5A92110000EF80
:0200B80080F0D6
:10FE7C0000010000000A00000064000000E803001C
:10FE8C000010270000A086010040420F00809698C9
:10FE9C000000E1F50500CA9A3B01000000100000CB
:10FEAC000000010000001000000000010000001024
:10FEBC00000000000100000010414447484E53551B
:10FECC005C5F6065696A7277787B7E3412350000FE
:10FEDC00000044000000007B00000000FBFF00005D
:10FEEC0000546974616E20426F696C657200626CBB
:10FEFC006B73697A6500005558001022FFFFFFFFF5
:10FF0C00FFFF4D4143204164647265737320667238
:10FF1C006F6D20454550524F4D3A20252E32583AA0
:10FF2C00252E32583A252E32583A252E32583A255B
:10FF3C002E32583A252E3258200D0A000D0A0D0A81
:10FF4C005374617274696E67205379736C6F672098
:10FF5C00617420256C750D0A00444E5320466F7554
:10FF6C006E6420257320696E2063616368652025AB
:10FF7C00756C004661696C6564204F70636F6465D5
:10FF8C00203D202564200D0A005544505F537461B8
:10FF9C007274204661696C65640D0A006E74702E73
:10FFAC006D6963726F636869702E636F6D003031B9
:10FFBC0032333435363738394142434445460025CF
:10FFCC00642E25642E25642E2564002575203A2088
:10FFDC0025730D0A006E6574617363696900286E80
:10FFEC00756C6C29006F63746574006D61696C00CD
:03FFFC002E0000D4
:020000040001F9
:10000000720EF66E010EF76E010EF86E01EE7CF0C8
:1000100010EE36F00900F5CFEEFFE550E150FAE1C1
:100020003C0EF66E010EF76E010EF86E00EEC8F093
:1000300010EE36F00900F5CFEEFFE550E150FAE1A1
:10004000FE0EF66E020EF76E010EF86E00EE56F022
:1000500010EE04F00900F5CFEEFFE550E150FAE1B3
:1000600005EE00F0DC0EEE6AE806FDE104EE00F0BD
:10007000DC0EEE6AE806FDE103EE00F0E80EEE6A43
:10008000E806FDE102EE00F0C80EEE6AE806FDE1CA
:1000900001EE00F07C0EEE6AE806FDE100EE60F095
:1000A000680EEE6AE806FDE100EE01F03F0EEE6A32
:1000B000E806FDE15A905A92000175EF81F0180EA2
:1000C0008D6E000E8C6E000E896E000E8E6E000E10
:1000D0008A6E000E8F6E010E8B6E000E966E7E0E77
:1000E000976E2C0E926E000E986EDF0E936E900E31
:1000F000946E000E956EC150F00B0309C16E120094
:10010000D70ED76E4E0ED66ED650D7CFFEF000016A
:10011000FF6BFEC0FFF0FE6BFE11526EFF51536E7F
:10012000F294F28A080E0101B86F030EB96F010E46
:10013000BA6F67EC81F09F0ED56E120000000000D0
:1001400000000000000000000000000000000000AF
:10015000000000000000000000000000000000009F
:100160000A000000100E0000000000000000020065
:10017000A8FF0000000000000000000000000000D8
:10018000000000000000000000000000000000006F
:10019000000000000000100E0000100E0000000023
:1001A0000000E1FFF1FFF7FFF2945350D76E52C009
:1001B000D6FF0101B251B311B411D8B4120001D865
:1001C00012000500FA6EB251FD6EB351FE6EB451CD
:1001D000FF6EFA501200010ECF6EB00ECE6ECECF73
:1001E00054F0CFCF55F09E909D80060E0101B86F60
:1001F000030EB96F010EBA6F60EC81F0310ECD6E57
:1002000012009E905550CF6E54C0CEFF254A262A2C
:10021000265004E1140E255CD8A0120028EC81F0D1
:10022000000E266E000E256E120081EC81F05FEC50
:1002300080F07AEC81F06EEC81F03AEC81F045ECE4
:1002400081F050EC81F0EBEC80F080EC80F012005B
:100250000101B551B611B711D8B4120001D812007E
:100260000500FA6EB551FD6EB651FE6EB751FF6EC8
:10027000FA501200000EBD6E000E796E000EB66EC2
:10028000000EBE6E000EBF6E1200010EC26E100E8A
:10029000C16E860EC06E000EC36E000EC46E1200DC
:1002A000670ECB6E000ECC6E9E92050ECA6E1200CB
:1002B000010E00018C27000E8D238E238F23120048
:1002C000B8C1B5F1B9C1B6F1BAC1B7F11200B8C140
:1002D000B2F1B9C1B3F1BAC1B4F11200800EC76E68
:1002E000210EC66E000EC86E120015EC81F0F28E63
:1002F000F28CFFD7020ED36E400E9B6E12001802D6
:0A0300004041D09E120012001200CE
:06FFF80020F4C5FFF8F73C
:00000001FF
