:040000005BEF00F0C2
:100008004D82FACF01F0FBCF02F0E9CF03F0EACF3F
:1000180004F0E1CF05F0E2CF06F0D9CF07F0DACF50
:1000280008F0F3CF09F0F4CF0AF0F6CF0BF0F7CFD2
:100038000CF0F8CF0DF0F5CF0EF04DC00FF04EC01C
:1000480010F04FC011F050C012F0F2BAF2A403D071
:100058008CECB5F006D0F2BC9DA003D09EB0B9ECF4
:10006800B5F012C050F011C04FF010C04EF00FC0E4
:100078004DF00EC0F5FF0DC0F8FF0CC0F7FF0BC028
:10008800F6FF0AC0F4FF09C0F3FF08C0DAFF07C093
:10009800D9FF06C0E2FF05C0E1FF04C0EAFF03C0C4
:1000A800E9FF02C0FBFF01C0FAFF4D921100FDEF0E
:0200B800AEF0A8
:10FE7C0000010000000A00000064000000E803001C
:10FE8C000010270000A086010040420F00809698C9
:10FE9C000000E1F50500CA9A3B01000000100000CB
:10FEAC000000010000001000000000010000001024
:10FEBC00000000000100000010414447484E53551B
:10FECC005C5F6065696A7277787B7E34123500D02E
:10FEDC0037014400A42B017B00366101FBFF1C3D64
:10FEEC0001546974616E20426F696C657200626CBA
:10FEFC006B73697A6500005558001022FFFFFFFFF5
:10FF0C00FFFF4D4143204164647265737320667238
:10FF1C006F6D20454550524F4D3A20252E32583AA0
:10FF2C00252E32583A252E32583A252E32583A255B
:10FF3C002E32583A252E3258200D0A000D0A0D0A81
:10FF4C005374617274696E67205379736C6F672098
:10FF5C00617420256C750D0A00444E5320466F7554
:10FF6C006E6420257320696E2063616368652025AB
:10FF7C00756C004661696C6564204F70636F6465D5
:10FF8C00203D202564200D0A005544505F537461B8
:10FF9C007274204661696C65640D0A006E74702E73
:10FFAC006D6963726F636869702E636F6D003031B9
:10FFBC0032333435363738394142434445460025CF
:10FFCC00642E25642E25642E2564002575203A2088
:10FFDC0025730D0A006E6574617363696900286E80
:10FFEC00756C6C29006F63746574006D61696C00CD
:03FFFC002E0000D4
:020000040001F9
:10000000000E0101006F20EE2DF03D50D9263E502C
:10001000DA22DF50046F20EE2EF03D50D9263E50FC
:10002000DA22DF50036F3DC0D9FF3EC0DAFFDECFDA
:1000300013F0DDCF14F0EBECB6F00009D8B4C7EF45
:1000400089F0090E0101036F5CECB7F0C7EF89F08E
:1000500020EE02F03D50D9263E50DA222AC2DEFFC1
:100060002BC2DEFF2CC2DEFF2DC2DEFF20EE06F02B
:100070003D50D9263E50DA2259C2DEFF5AC2DDFF7A
:1000800020EE14F03D50D9263E50DA22DE6ADE6AB8
:10009000DE6ADD6A22EE5DF010EE08F03D50E126EA
:1000A0003E50E222DECFE6FFDECFE6FFDECFE6FF08
:1000B000DECFE6FF20EE08F03D50D9263E50DA2292
:1000C000DECFF4F0DECFF5F0DECFF6F0DECFF7F0E6
:1000D000010E0001F425F86F000EF521F96F000EF6
:1000E000F621FA6F000EF721FB6F20EE0CF03D5069
:1000F000D9263E50DA22F8C0DEFFF9C0DEFFFAC092
:10010000DEFFFBC0DEFF020167510001F56FF46BFB
:1001100022EE67F0DECFF6F0DDCFF7F0F7C0F6F0B5
:10012000F76BFF0EF617000EF717F451F613F551A3
:10013000F71320EE18F03D50D9263E50DA22F6C0D3
:10014000DEFFF7C0DDFF20EE1CF03D50D9263E500B
:10015000DA22C3C2DEFFC4C2DDFF20EE38F03D501C
:10016000D9263E50DA22120EDF6E20EE33F03D50DB
:10017000D9263E50DA22020EDE6E000EDD6E20EE33
:1001800035F03D50D9263E50DA22020EDE6E000ECA
:10019000DD6E20EE37F03D50D9263E50DA22030EB8
:1001A000DF6E3DC0A8F03EC0A9F061EC8DF09AD0A2
:1001B000000E046F3DC013F03EC014F0B4ECA9F083
:1001C000F1EF89F001010351000AD8B4F1D7030A15
:1001D000D8B43ED7F1EF89F022EE5DF010EE08F0D2
:1001E0003D50E1263E50E222DECFE6FFDECFE6FFC5
:1001F000DECFE6FFDECFE6FF010E02015D25000146
:10020000F46F000E02015E210001F56F000E020185
:100210005F210001F66F000E020160210001F76FFF
:1002200020EE0CF03D50D9263E50DA22F4C0DEFF1D
:10023000F5C0DEFFF6C0DEFFF7C0DEFF020167514A
:100240000001F56FF46B22EE67F0DECFF6F0DDCF44
:10025000F7F0F7C0F6F0F76BFF0EF617000EF71782
:10026000F451F613F551F71320EE18F03D50D9264E
:100270003E50DA22F6C0DEFFF7C0DDFF20EE1CF0B4
:100280003D50D9263E50DA22C3C2DEFFC4C2DDFF94
:1002900020EE33F03D50D9263E50DA22020EDE6EBB
:1002A000000EDD6E20EE35F03D50D9263E50DA22AC
:1002B000020EDE6E000EDD6E20EE37F03D50D926C8
:1002C0003E50DA22030EDF6E20EE38F03D50D92684
:1002D0003E50DA22120EDF6E3DC0A8F03EC0A9F0FB
:1002E00061EC8DF0030ECCEF88F020EE33F03D5042
:1002F000D9263E50DA22000EDE6E000EDD6E20EEB4
:1003000010F03D50D9263E50DA22DECFF4F0DECF99
:10031000F5F0DECFF6F0DECFF7F0010E0001F425A8
:10032000F86F000EF521F96F000EF621FA6F000E3E
:10033000F721FB6F020161510001F8190FE1020181
:1003400062510001F9190AE1020163510001FA1931
:1003500005E1020164510001FB19D8A4A1D020EEEF
:1003600010F03D50D9263E50DA22DECFF4F0DECF39
:10037000F5F0DECFF6F0DECFF7F0010EF425F86FE2
:10038000000EF521F96F000EF621FA6F000EF7212D
:10039000FB6F20EE10F03D50D9263E50DA22F8C017
:1003A000DEFFF9C0DEFFFAC0DEFFFBC0DEFF20EE9D
:1003B00038F03D50D9263E50DA22100EDF6E22EE84
:1003C0005DF010EE08F03D50E1263E50E222DECF17
:1003D000E6FFDECFE6FFDECFE6FFDECFE6FF010E73
:1003E00002015D250001F46F000E02015E21000193
:1003F000F56F000E02015F210001F66F000E020191
:1004000060210001F76F20EE0CF03D50D9263E50E0
:10041000DA22F4C0DEFFF5C0DEFFF6C0DEFFF7C073
:10042000DEFF020167510001F56FF46B22EE67F009
:10043000DECFF6F0DDCFF7F0F7C0F6F0F76BFF0E8A
:10044000F617000EF717F451F613F551F71320EED7
:1004500018F03D50D9263E50DA22F6C0DEFFF7C034
:10046000DDFF20EE1CF03D50D9263E50DA22C3C2FB
:10047000DEFFC4C2DDFF3DC0A8F03EC0A9F061ECC4
:100480008DF00009D8B4F1EF89F0AAD220EE39F04E
:100490003D50D9263E50DA22030EDF6EF1EF89F08F
:1004A00022EE61F010EE10F03D50E1263E50E222C7
:1004B000DECFE6FFDECFE6FFDECFE6FFDECFE6FFF4
:1004C00020EE38F03D50D9263E50DA22140EDF6E71
:1004D0003DC0A8F03EC0A9F061EC8DF00009D8B491
:1004E000F1EF89F0000E0101046F3DC013F03EC032
:1004F00014F0B4ECA9F0F1EF89F020EE33F03D50A8
:10050000D9263E50DA22000EDE6E000EDD6E20EEA1
:1005100010F03D50D9263E50DA22DECFF4F0DECF87
:10052000F5F0DECFF6F0DECFF7F0010E0001F42596
:10053000F86F000EF521F96F000EF621FA6F000E2C
:10054000F721FB6F020161510001F8190FE102016F
:1005500062510001F9190AE1020163510001FA191F
:1005600005E1020164510001FB19D8A48DD020EEF1
:1005700010F03D50D9263E50DA22DECFF4F0DECF27
:10058000F5F0DECFF6F0DECFF7F0010EF425F86FD0
:10059000000EF521F96F000EF621FA6F000EF7211B
:1005A000FB6F20EE10F03D50D9263E50DA22F8C005
:1005B000DEFFF9C0DEFFFAC0DEFFFBC0DEFF20EE8B
:1005C00038F03D50D9263E50DA22100EDF6E22EE72
:1005D0005DF010EE08F03D50E1263E50E222DECF05
:1005E000E6FFDECFE6FFDECFE6FFDECFE6FF010E61
:1005F00002015D250001F46F000E02015E21000181
:10060000F56F000E02015F210001F66F000E02017E
:1006100060210001F76F20EE0CF03D50D9263E50CE
:10062000DA22F4C0DEFFF5C0DEFFF6C0DEFFF7C061
:10063000DEFF020167510001F56FF46B22EE67F0F7
:10064000DECFF6F0DDCFF7F0F7C0F6F0F76BFF0E78
:10065000F617000EF717F451F613F551F71320EEC5
:1006600018F03D50D9263E50DA22F6C0DEFFF7C022
:10067000DDFF20EE1CF03D50D9263E50DA22C3C2E9
:10068000DEFFC4C2DDFFACD122EE61F010EE10F04F
:100690003D50E1263E50E222DECFE6FFDECFE6FF10
:1006A000DECFE6FFDECFE6FF20EE38F03D50D92664
:1006B0003E50DA22040EDF6E3DC0A8F03EC0A9F025
:1006C00061EC8DF00009D8B4F1EF89F0000E010162
:1006D000046F3DC013F03EC014F0B4ECA9F0F1EF8C
:1006E00089F0000E0101046F3DC013F03EC014F00C
:1006F000B4ECA9F0F1EF89F020EE37F03D50D926A7
:100700003E50DA22DF50D8B427D03DC0A8F03EC01A
:10071000A9F061EC8DF00009D8B4F1EF89F020EE7A
:1007200038F03D50D9263E50DA22DFA40BD0000E1F
:100730000101046F3DC013F03EC014F0B4ECA9F009
:10074000F1EF89F020EE38F03D50D9263E50DA2204
:10075000DFA8F1EF89F044D120EE38F03D50D926E2
:100760003E50DA22040EDF6E3DC0A8F03EC0A9F074
:1007700061EC8DF00009D8B4F1EF89F0000E0101B1
:10078000046F3DC013F03EC014F0B4ECA9F0F1EFDB
:1007900089F0000E0101046F3DC013F03EC014F05B
:1007A000B4ECA9F0F1EF89F001010351000AD8B4CB
:1007B00098D7030AD8B410D5070AD8B49ED6010A30
:1007C000D8B493D50C0AD8B4E4D7030AD8B4E1D787
:1007D000060AD8B491D7F1EF89F03DC0D9FF3EC0E9
:1007E000DAFF02015B51DE1803E15C51DE18D8A488
:1007F000F1EF89F020EE33F03D50D9263E50DA2259
:10080000000EDE6E000EDD6E20EE02F03D50D926A9
:100810003E50DA222A51DE1848E12B51DE1845E11C
:100820002C51DE1842E12D51DE18D8A42FD620EE2F
:1008300006F03D50D9263E50DA225951DE1835E1F6
:100840005A51DE18D8A422D620EE10F03D50D926F9
:100850003E50DA22DECFF4F0DECFF5F0DECFF6F058
:10086000DECFF7F0010E0001F425F86F000EF52140
:10087000F96F000EF621FA6F000EF721FB6F0201EF
:1008800061510001F81911E1020162510001F919E9
:100890000CE1020163510001FA1907E10201645100
:1008A0000001FB19D8A4F2D59BD0F0D520EE02F0C0
:1008B0003D50D9263E50DA2202012A51DE1809E1C4
:1008C0002B51DE1806E12C51DE1803E12D51DE1804
:1008D000D8A4F1EF89F020EE06F03D50D9263E5025
:1008E000DA225951DE1803E15A51DE18D8A4F1EF8B
:1008F00089F020EE0CF03D50D9263E50DA225D51B1
:10090000DE1809E15E51DE1806E15F51DE1803E1F1
:100910006051DE18D8A4F1EF89F020EE10F03D50C0
:10092000D9263E50DA22DECFF4F0DECFF5F0DECF6E
:10093000F6F0DECFF7F0010E0001F425F86F000E9F
:10094000F521F96F000EF621FA6F000EF721FB6F0B
:10095000020161510001F8190FE102016251000129
:10096000F9190AE1020163510001FA1905E10201D6
:1009700064510001FB19D8A4F1EF89F020EE10F0CA
:100980003D50D9263E50DA22DECFF4F0DECFF5F02E
:10099000DECFF6F0DECFF7F0010EF425F86F000E93
:1009A000F521F96F000EF621FA6F000EF721FB6FAB
:1009B00020EE10F03D50D9263E50DA22F8C0DEFF7E
:1009C000F9C0DEFFFAC0DEFFFBC0DEFF20EE33F031
:1009D0003D50D9263E50DA22000EDE6E000EDD6E4E
:1009E000040E0101046F52D520EE33F03D50D9269C
:1009F0003E50DA22000EDE6E000EDD6E20EE38F084
:100A00003D50D9263E50DA22010EDF6E20EE33F043
:100A10003D50D9263E50DA22020EDE6E000EDD6E0B
:100A200020EE35F03D50D9263E50DA22020EDE6E21
:100A3000000EDD6E20EE37F03D50D9263E50DA2212
:100A4000050EDF6E050E046F3DC0A8F03EC0A9F094
:100A500061EC8DF0F1EF89F03DC0D9FF3EC0DAFFC7
:100A600002015B51DE1803E15C51DE18D8A4F1EFFE
:100A700089F020EE0CF03D50D9263E50DA225D512F
:100A8000DE1809E15E51DE1806E15F51DE1803E170
:100A90006051DE18D8A4F1EF89F020EE02F03D504D
:100AA000D9263E50DA22DE6ADE6ADE6ADD6A20EE90
:100AB00006F03D50D9263E50DA22000EDE6E000EC2
:100AC000DD6E20EE10F03D50D9263E50DA22DE6A6F
:100AD000DE6ADE6ADD6A20EE14F03D50D9263E5013
:100AE000DA22DE6ADE6ADE6ADD6A20EE08F03D5058
:100AF000D9263E50DA22DE6ADE6ADE6ADD6A20EE40
:100B00000CF03D50D9263E50DA22DE6ADE6ADE6AFB
:100B1000DD6A20EE18F03D50D9263E50DA22000E54
:100B2000DE6E000EDD6E20EE1CF03D50D9263E50EC
:100B3000DA22B40EDE6E050EDD6E010E2DD320EE30
:100B400037F03D50D9263E50DA22DF50D8B408D0D5
:100B50003DC0A8F03EC0A9F061EC8DF0F1EF89F046
:100B600020EE38F03D50D9263E50DA22040EDF6EDA
:100B70003DC0A8F03EC0A9F061EC8DF00009D8B4EA
:100B8000F1EF89F020EE02F03D50D9263E50DA22F6
:100B9000DE6ADE6ADE6ADD6A20EE06F03D50D926A6
:100BA0003E50DA22000EDE6E000EDD6E20EE10F0FA
:100BB0003D50D9263E50DA22DE6ADE6ADE6ADD6A00
:100BC00020EE14F03D50D9263E50DA22DE6ADE6A6D
:100BD000DE6ADD6A20EE08F03D50D9263E50DA226A
:100BE000DE6ADE6ADE6ADD6A20EE0CF03D50D92650
:100BF0003E50DA22DE6ADE6ADE6ADD6A20EE18F036
:100C00003D50D9263E50DA22000EDE6E000EDD6E1B
:100C100020EE1CF03D50D9263E50DA22B40EDE6E96
:100C2000050EDD6E010EB8D201010351000AD8B4E1
:100C3000DBD6040AD8B43AD6010AD8B4CED50C0A09
:100C4000D8B40AD7030AD8B407D7060AD8B477D7D6
:100C5000C8D320EE02F03D50D9263E50DA220201E0
:100C60002A51DE1809E12B51DE1806E12C51DE185D
:100C700003E12D51DE18D8A4B4D320EE0CF03D5082
:100C8000D9263E50DA225D51DE1809E15E51DE18A8
:100C900006E15F51DE1803E16051DE18D8A4A1D34C
:100CA00020EE14F03D50D9263E50DA226151DE5C30
:100CB0006251DE586351DE586451DE58D8B091D38A
:100CC00020EE10F03D50D9263E50DA22DECFF4F06F
:100CD000DECFF5F0DECFF6F0DECFF7F0010E00014B
:100CE000F425F86F000EF521F96F000EF621FA6F6A
:100CF000000EF721FB6F020161510001F85D020156
:100D000062510001F959020163510001FA590201CF
:100D100064510001FB59D8A064D320EE10F03D507F
:100D2000D9263E50DA22DECFF4F0DDCFF5F022EE08
:100D300061F0DECFF6F0DDCFF7F0F61FF71FF64BD0
:100D4000F72BF451F6250101016F0001F551F72150
:100D50000101026F01C1F4F002C1F5F00001F41FBE
:100D6000F51FF44BF52B20EE25F03D50D9263E50D3
:100D7000DA22DECFF6F0DDCFF7F0F451F627F551A9
:100D8000F72320EE25F03D50D9263E50DA22F6C05A
:100D9000DEFFF7C0DDFF20EE27F03D50D9263E50A4
:100DA000DA22DECFF4F0DDCFF5F0010101510001D0
:100DB000F427010102510001F52320EE27F03D50F8
:100DC000D9263E50DA22F4C0DEFFF5C0DDFF22EE68
:100DD00061F0FF0EDE24F46FFF0EDE20F56FFF0ED4
:100DE000DE20F66FFF0EDE20F76F20EE14F03D5090
:100DF000D9263E50DA22F4C0DEFFF5C0DEFFF6C091
:100E0000DEFFF7C0DEFF22EE61F010EE10F03D5085
:100E1000E1263E50E222DECFE6FFDECFE6FFDECF68
:100E2000E6FFDECFE6FF20EE27F03D50D9263E500C
:100E3000DA22DE50DE10D8A41DD020EE29F03D507D
:100E4000D9263E50DA22020EDE18D8A429D020EE90
:100E500029F03D50D9263E50DA22000EDF6E20EEFA
:100E600033F03D50D9263E50DA22000EDE6E000EE1
:100E7000DD6E16D020EE27F03D50D9263E50DA2206
:100E800010EE2AF03D50E1263E50E222DECFE6FF92
:100E9000DDCFE5FF3DC0A8F03EC0A9F061EC8DF0CC
:100EA000020148514911D8B49CD222EE5DF010EEF7
:100EB00008F03D50E1263E50E222DECFE6FFDECFD5
:100EC000E6FFDECFE6FFDECFE6FF48C2E7F049C22D
:100ED000E8F016ECA7F085D220EE38F03D50D92688
:100EE0003E50DA22010EDF6E050E0101046F3DC097
:100EF000A8F03EC0A9F061EC8DF073D220EE2AF08C
:100F00003D50D9263E50DA22000EDE6E000EDD6E18
:100F100022EE61F010EE10F03D50E1263E50E2224C
:100F2000DECFE6FFDECFE6FFDECFE6FFDECFE6FF79
:100F300020EE0CF03D50D9263E50DA22DECFF4F000
:100F4000DECFF5F0DECFF6F0DECFF7F0010E0001D8
:100F5000F425F86F000EF521F96F000EF621FA6FF7
:100F6000000EF721FB6F20EE0CF03D50D9263E50CD
:100F7000DA22F8C0DEFFF9C0DEFFFAC0DEFFFBC0F8
:100F8000DEFF20EE39F03D50D9263E50DA22040E25
:100F9000DF6E20EE33F03D50D9263E50DA22020EAD
:100FA000DE6E000EDD6E20EE35F03D50D9263E504F
:100FB000DA22020EDE6E000EDD6E20EE37F03D50BE
:100FC000D9263E50DA22050EDF6E20EE38F03D5075
:100FD000D9263E50DA22110EDF6E090E0101046F90
:100FE0003DC0A8F03EC0A9F061EC8DF0FAD120EE32
:100FF00038F03D50D9263E50DA22040EDF6E3DC057
:10100000A8F03EC0A9F061EC8DF0000E0101046F64
:101010003DC013F03EC014F0B4ECA9F0E2D120EED4
:1010200037F03D50D9263E50DA22DF50D8B407D0F1
:101030003DC0A8F03EC0A9F061EC8DF0D2D120EE09
:1010400038F03D50D9263E50DA22040EDF6E3DC006
:10105000A8F03EC0A9F061EC8DF00009D8B4C1D170
:10106000000E0101046F3DC013F03EC014F0B4EC5B
:10107000A9F0B7D101010351000AD8B42DD7040A51
:10108000D8B4E7D5020AD8B4ACD1010AD8B436D75F
:101090000E0AD8B4ACD7030AD8B4A9D7060AD8B474
:1010A000BED79FD120EE38F03D50D9263E50DA22EF
:1010B000100EDF6E3DC0A8F03EC0A9F061EC8DF0CF
:1010C0000009D8B48ED1080E67D020EE33F03D5021
:1010D000D9263E50DA22020EDE6E000EDD6E20EEC4
:1010E00037F03D50D9263E50DA22010EDF6E060E53
:1010F0008AD020EE38F03D50D9263E50DA22100E2C
:10110000DF6E3DC0A8F03EC0A9F061EC8DF040D08C
:1011100020EE37F03D50D9263E50DA22DF50D8B4C9
:1011200007D03DC0A8F03EC0A9F061EC8DF059D1C8
:1011300020EE38F03D50D9263E50DA22040EDF6E04
:101140003DC0A8F03EC0A9F061EC8DF00009D8B414
:1011500048D1000E0101046F3DC013F03EC014F0F1
:10116000B4ECA9F03ED101010351040AD8B4ADD7C3
:10117000020AD8B497D7010AD8B4BBD70B0AD8B49F
:10118000C7D72FD13DC0A8F03EC0A9F061EC8DF0CB
:101190000009D8B426D10A0E010135D020EE37F06F
:1011A0003D50D9263E50DA22DF50D8B407D03DC09A
:1011B000A8F03EC0A9F061EC8DF013D120EE38F01C
:1011C0003D50D9263E50DA22040EDF6E3DC0A8F015
:1011D0003EC0A9F061EC8DF00009D8B402D1000E38
:1011E0000101046F3DC013F03EC014F0B4ECA9F04F
:1011F000F8D001010351060AD8B4C4D70A0AD8B4FA
:10120000CDD7EFD00A0E046FECD001010351040AD0
:10121000D8B4F8D7E6D020EE02F03D50D9263E50A3
:10122000DA2202012A51DE1809E12B51DE1806E10B
:101230002C51DE1803E12D51DE18D8A4D2D020EEB7
:1012400006F03D50D9263E50DA225951DE1803E10E
:101250005A51DE18D8A4C5D0000E0101046F3DC05C
:1012600013F03EC014F0B4ECA9F0BBD020EE37F080
:101270003D50D9263E50DA22DF50D8B407D03DC0C9
:10128000A8F03EC0A9F061EC8DF0ABD020EE38F0B4
:101290003D50D9263E50DA22040EDF6E3DC0A8F044
:1012A0003EC0A9F061EC8DF00009D8B49AD0000ED0
:1012B0000101046F3DC013F03EC014F0B4ECA9F07E
:1012C00090D001010351040AD8B4A5D7030AD8B4B9
:1012D000A2D70B0AD8B4CAD784D0000E0101046F7C
:1012E0003DC013F03EC014F0B4ECA9F07AD020EE6B
:1012F00033F03D50D9263E50DA22020EDE6E000E4B
:10130000DD6E20EE35F03D50D9263E50DA22020E39
:10131000DE6E000EDD6E20EE37F03D50D9263E50D9
:10132000DA22030EDF6E20EE38F03D50D9263E5013
:10133000DA22020EDF6E3DC0A8F03EC0A9F061ECDB
:101340008DF0020E010118D0010E006F4AD020EE80
:1013500002F03D50D9263E50DA22DE6ADE6ADE6AAD
:10136000DD6A20EE06F03D50D9263E50DA22000E0E
:10137000DE6E000EDD6E010E046FE6D70101035133
:10138000010AD8B4B4D7030AD8B4E1D72AD020EEE2
:101390002DF03D50D9263E50DA22DF50000AD8B455
:1013A000EDD7010AD8B4E2EF80F0030AD8B4D4EF45
:1013B00083F0010AD8B438D4070AD8B45BD6010A3E
:1013C000D8B4D1D6030AD8B414D7010AD8B409D0F6
:1013D0000F0AD8B41AD7010AD8B473D7030AD8B4FD
:1013E0007CD720EE2EF03D50D9263E50DA220D0E4D
:1013F000DF6E20EE2DF03D50D9263E50DA2204C19A
:10140000DFFF01010051120048D3250E00016C19C5
:10141000D8B434D020EE02F02950D9262A50DA224E
:10142000DE50DE10DE10D8B413D020EE02F02950CA
:10143000D9262A50DA2201D830D30500FA6EDE50C0
:10144000FD6EDE50FE6EDE50FF6EFA506C511200E3
:1014500029C0D9FF2AC0DAFFDECF2FF0DDCF30F070
:101460002FC0D9FF30C0DAFF6CC0DFFF29C0D9FF21
:101470002AC0DAFFDE2A000EDD220FD3000E0001A3
:10148000656F2BC0F6FF2CC0F7FF000EF86E08004A
:10149000F5502E0AD8A432D02B4A2C2A000E6B6F9E
:1014A000000E6A6F1ED06AC013F06BC014F0000EFD
:1014B000166E0A0E156E4AECB6F02BC0F6FF2CC065
:1014C000F7FF000EF86E0800F5501326000E1422E8
:1014D000D00E132400016A6FFF0E14206B6F2B4A8D
:1014E0002C2A2BC0F6FF2CC0F7FF000EF86E080068
:1014F000F550B4ECB6F0D8A0BFD0D5D7000E00019F
:101500006B6F000E6A6FB8D06589B6D0658FDAD080
:101510002DC0D9FF2EC0DAFFDFCF2FF0020EDE265E
:10152000DFCF30F0000EDD222FC0D9FF30C0DAFF50
:10153000DECF63F0DDCF64F063516411D8A404D032
:10154000EA0E636FFF0E646F000E626F000E616F34
:1015500003D00001614B622B615163252F6E6251F4
:101560006421306E2FC0F6FF30C0F7FF000EF86E1A
:101570000F0EF76403D00800F55005D0F6CFE9FF51
:10158000F7CFEAFFEF500009D8A4E3D700016A5172
:101590006B11D8B465D061516A5D62516B59D8B096
:1015A0005FD06AC061F06BC062F05AD020EE02F0EA
:1015B0002950D9262A50DA22DE50DE10DE10D8B4A7
:1015C00027D020EE02F02950D9262A50DA2201D85D
:1015D0001BD00500FA6EDE50FD6EDE50FE6EDE5052
:1015E000FF6EFA5063C0F6FF64C0F7FF000EF86E9E
:1015F0000F0EF76403D00800F55005D0F6CFE9FFD1
:10160000F7CFEAFFEF5012000001634B642B28D0A4
:1016100063C0F6FF64C0F7FF000EF86E29C0D9FF63
:101620002AC0DAFFDECF2FF0DDCF30F02FC0D9FF98
:1016300030C0DAFF0F0EF76403D00800F55005D074
:10164000F6CFE9FFF7CFEAFFEF50DF6E0001634B03
:10165000642B29C0D9FF2AC0DAFFDE2A000EDD2262
:101660006107D8A062076129A1E16229D8B415D227
:101670009DD7C00E651326D02BC0F6FF2CC0F7FFF8
:101680002B4A2C2A000EF86E0800F5CF6CF00001F2
:101690006C51000AD8B410D2580AD8B437D73C0AD3
:1016A000D8B410D00D0AD8B40DD0050AD8B42CD7B0
:1016B0001F0AD8B42DD7060AD8B4DBD70D0AD8B480
:1016C00025D7EBD165C02FF0C00E2F16D8A441D07E
:1016D00065A919D02DC0D9FF2EC0DAFFDFCF2FF0BA
:1016E000040EDE26DFCF30F0000EDD222FC0D9FF42
:1016F00030C0DAFFDECF66F0DECF67F0DECF68F015
:10170000DECF69F019D02DC0D9FF2EC0DAFFDFCFB0
:101710002FF0020EDE26DFCF30F0000EDD222FC0CC
:10172000D9FF30C0DAFFDECF66F0DDCF67F0000E04
:1017300067BFFF0E686F696F69AF40D0030E651316
:10174000691F681F671F666D000E67236823692382
:1017500035D065A919D02DC0D9FF2EC0DAFFDFCF53
:101760002FF0040EDE26DFCF30F0000EDD222FC07A
:10177000D9FF30C0DAFFDECF66F0DECF67F0DECF14
:1017800068F0DECF69F01AD02DC0D9FF2EC0DAFF85
:10179000DFCF2FF0020EDE26DFCF30F0000EDD228D
:1017A0002FC0D9FF30C0DAFFDECF31F0DDCF32F00D
:1017B00031C066F032C067F0686B696B6A516B11BB
:1017C000D8A44BD06651671168116911D8A445D0CF
:1017D0006A4B6B2B42D0010E6C6F0A0E6C19D8B499
:1017E00047D06C51040D7D0EF324F66EFE0EF420EE
:1017F000F76EF86A000EF8220900F550665D0900E0
:10180000F55067590900F55068590900F5506959B4
:10181000D8A02ED06C2BE1D7010E6C6F080E6C197E
:10182000D8B426D06C51040DA50EF324F66EFE0E2E
:10183000F420F76EF86A000EF8220900F550665D94
:101840000900F55067590900F55068590900F5502D
:101850006959D8A00DD06C2BE1D76551C00B000A97
:10186000D8B4B9D7800AD8B4D7D7400AD8B4B3D738
:10187000800E6CBF7F0E2F6E6A516C5D6B51800ABB
:101880002F58D8B003D06AC06CF010D06B51800ACA
:101890002F6E6C516A5D800E6CBF7F0E2F58D8B0D2
:1018A00005D06C516A6F6B6B6ABF6B0765C02FF018
:1018B000030E2F16D8B4E8D020EE02F02950D92616
:1018C0002A50DA22DE50DE10DE10D8B413D020EE1B
:1018D00002F02950D9262A50DA2201D8D5D00500A5
:1018E000FA6EDE50FD6EDE50FE6EDE50FF6EFA5078
:1018F0002D0E120029C0D9FF2AC0DAFFDECF2FF04B
:10190000DDCF30F02FC0D9FF30C0DAFF2D0EDF6EF3
:10191000B4D06AC02FF06BC030F0D8902F3630367C
:10192000D8902F3630367D0E2F24F66EFE0E3020E6
:10193000F76EF86A000EF8220900F5CF17F00900DB
:10194000F5CF18F00900F5CF19F00A00F5CF1AF01D
:1019500066C013F067C014F068C015F069C016F0D7
:10196000DAECAFF013C020F014C021F015C022F063
:1019700016C023F00A0E246E000E256E000E266E91
:10198000000E276E84ECB1F02050300F00016C6F18
:1019900048D066C013F067C014F068C015F069C085
:1019A00016F06AC02FF06BC030F0D8902F3630366A
:1019B000D8902F363036A50E2F24F66EFE0E30202E
:1019C000F76EF86A000EF8220900F5CF17F009004B
:1019D000F5CF18F00900F5CF19F00A00F5CF1AF08D
:1019E000DAECAFF013500F0B0001606F6051010D86
:1019F000BA0EF324F66EFF0EF420F76EF86A000EAE
:101A0000F8220800F5CF6CF00CD000016551C00B36
:101A1000000AD8B47ED7800AD8B4BBD7400AD8B45D
:101A200078D720EE02F02950D9262A50DA22DE504B
:101A3000DE10DE10D8B413D020EE02F02950D926E3
:101A40002A50DA2201D820D00500FA6EDE50FD6E51
:101A5000DE50FE6EDE50FF6EFA506C51120029C04F
:101A6000D9FF2AC0DAFFDECF2FF0DDCF30F02FC054
:101A7000D9FF30C0DAFF6CC0DFFF29C0D9FF2AC010
:101A8000DAFFDE2A000EDD2200016A07D8A06B070C
:101A90006A29BBE16B29D8A4B8D72BC0F6FF2CC0AC
:101AA000F7FF2B4A2C2A000EF86E0800F5CF6CF0D9
:101AB00000016C51D8A4A9D4000E2A6E000E296E24
:101AC0001200000E0001D06FA8C0D9FFA9C0DAFF34
:101AD000DECFAAF0DDCFABF0AA51AD6FAC6BA8C0E2
:101AE000D9FFA9C0DAFFDECFAEF0DDCFAFF0AFC0D7
:101AF000AEF0AF6BFF0EAE17000EAF17AC51AE11CC
:101B0000D36FAD51AF11D46F20EE06F0A851D92696
:101B1000A951DA22DECFAAF0DDCFABF0AA51AD6F2A
:101B2000AC6B20EE06F0A851D926A951DA22DECFFF
:101B3000AEF0DDCFAFF0AFC0AEF0AF6BFF0EAE17C3
:101B4000000EAF17AC51AE11D56FAD51AF11D66FBE
:101B500020EE10F0A851D926A951DA22DECFAAF042
:101B6000DECFABF0DECFACF0DECFADF0FF0EAA15CE
:101B7000AE6F000EAB15AF6F000EAC15B06F000E60
:101B8000AD15B16FAEC0B1F0B06BAF6BAE6B20EE08
:101B900010F0A851D926A951DA22000EDE14B26F36
:101BA000FF0EDE14B36F000EDE14B46F000EDE14F1
:101BB000B56FB4C0B5F0B3C0B4F0B2C0B3F0B26B9F
:101BC00020EE10F0A851D926A951DA22DECFB6F0C6
:101BD000DECFB7F0DECFB8F0DECFB9F0B7C0B6F0E9
:101BE000B8C0B7F0B9C0B8F0B96B000EB615BA6F8F
:101BF000FF0EB715BB6F000EB815BC6F000EB91500
:101C0000BD6F20EE10F0A851D926A951DA22000E9E
:101C1000DE14BE6F000EDE14BF6F000EDE14C06F48
:101C2000FF0EDE14C16F190E05D0D890C133C0333A
:101C3000BF33BE33E82EF9D7BA51BE11C26FBB51C4
:101C4000BF11C36FBC51C011C46FBD51C111C56F6D
:101C5000B251C211C66FB351C311C76FB451C41191
:101C6000C86FB551C511C96FAE51C611D76FAF510D
:101C7000C711D86FB051C811D96FB151C911DA6FFE
:101C800020EE0CF0A851D926A951DA22DECFAAF015
:101C9000DECFABF0DECFACF0DECFADF0FF0EAA159D
:101CA000AE6F000EAB15AF6F000EAC15B06F000E2F
:101CB000AD15B16FAEC0B1F0B06BAF6BAE6B20EED7
:101CC0000CF0A851D926A951DA22000EDE14B26F09
:101CD000FF0EDE14B36F000EDE14B46F000EDE14C0
:101CE000B56FB4C0B5F0B3C0B4F0B2C0B3F0B26B6E
:101CF00020EE0CF0A851D926A951DA22DECFB6F099
:101D0000DECFB7F0DECFB8F0DECFB9F0B7C0B6F0B7
:101D1000B8C0B7F0B9C0B8F0B96B000EB615BA6F5D
:101D2000FF0EB715BB6F000EB815BC6F000EB915CE
:101D3000BD6F20EE0CF0A851D926A951DA22000E71
:101D4000DE14BE6F000EDE14BF6F000EDE14C06F17
:101D5000FF0EDE14C16F190E05D0D890C133C03309
:101D6000BF33BE33E82EF9D7BA51BE11C26FBB5193
:101D7000BF11C36FBC51C011C46FBD51C111C56F3C
:101D8000B251C211C66FB351C311C76FB451C41160
:101D9000C86FB551C511C96FAE51C611DB6FAF51D8
:101DA000C711DC6FB051C811DD6FB151C911DE6FC1
:101DB000DF91DF93DF95DF97DF510F0B5009DF6F66
:101DC00020EE1AF0A851D926A951DA22DECFAAF0C6
:101DD000DDCFABF0AA51AD6FAC6B20EE1AF0A8517D
:101DE000D926A951DA22DECFAEF0DDCFAFF0AFC0F9
:101DF000AEF0AF6BFF0EAE17000EAF17AC51AE11C9
:101E0000E16FAD51AF11E26F000EE46F000EE36FB2
:101E1000000EE66F000EE56F20EE38F0A851D926CF
:101E2000A951DA22DF50AA6F060EAA17D8A409D04A
:101E300020EE2CF0A851D926A951DA22DE04D8A42C
:101E400005D0000ED26F000ED16FA9D020EE2AF07F
:101E5000A851D926A951DA22DECFD1F0DDCFD2F0B8
:101E6000D151D211D8B49BD020EE18F0A851D92668
:101E7000A951DA22DE50DE10D8A40AD020EE18F0E4
:101E8000A851D926A951DA22010EDE6E000EDD6EB0
:101E900020EE18F0A851D926A951DA22D151DE5CE2
:101EA000D251DE58D8B00AD020EE18F0A851D92669
:101EB000A951DA22DECFD1F0DDCFD2F020EE1CF036
:101EC000A851D926A951DA22D151DE5CD251DE586F
:101ED000D8B00AD020EE1CF0A851D926A951DA2298
:101EE000DECFD1F0DDCFD2F020EE25F0A851D926FB
:101EF000A951DA22DECFCAF0DDCFCBF020EE25F0FB
:101F0000A851D926A951DA22DECFAAF0DDCFABF055
:101F1000D151AA27D251AB2320EE25F0A851D926C2
:101F2000A951DA22AAC0DEFFABC0DDFF20EE2AF005
:101F3000A851D926A951DA22DECFAAF0DDCFABF025
:101F4000D1C0ACF0D2C0ADF0AC1FAD1FAC4BAD2BCF
:101F5000AA51AC27AB51AD2320EE27F0A851D926CA
:101F6000A951DA22ACC0DEFFADC0DDFF20EE27F0C4
:101F7000A851D926A951DA22DE50DE10D8A40FD0FC
:101F800020EE38F0A851D926A951DA2210EE38F007
:101F9000A851E126A951E222E7500809DF6E20EEA0
:101FA00038F0A851D926A951DA22DF50E06F140E7B
:101FB000D125CE6F000ED221CF6F20EE02F0A851B6
:101FC000D926A951DA22DECF31F0DECF32F0DECFD2
:101FD00033F0DECF34F0060E356EB1EC9FF0000129
:101FE000D06FD005D8A44AD0D30E136E000E146E55
:101FF000000E166E140E156E49ECB3F00001D151AF
:10200000D211D8B40AD0CAC013F0CBC014F0D1C0DA
:1020100015F0D2C016F049ECB3F0060E0001CE2543
:10202000CC6F000ECF21CD6F000E266E1A0E256EDE
:10203000080ECE25276E000ECF21286ECCC029F0C9
:10204000CDC02AF091ECACF025C0CCF026C0CDF08C
:10205000CC0E136E000E146E000E166E020E156E70
:10206000000E186E320E176EB7ECB1F0CEC037F01E
:10207000CFC038F0AEECAEF00001D06FD005D8B4D0
:1020800025D020EE37F0A851D926A951DA2210EE3A
:1020900037F0A851E126A951E222E750AA6FAA29F8
:1020A000DF6E20EE33F0A851D926A951DA22DE5096
:1020B000DE10D8A433D020EE33F0A851D926A95190
:1020C000DA22020EDE6E000EDD6E28D020EE10F059
:1020D000A851D926A951DA22DECFAAF0DECFABF083
:1020E000DECFACF0DECFADF0D151AA25AE6FD2512C
:1020F000AB21AF6F000EAC21B06F000EAD21B16F00
:1021000020EE10F0A851D926A951DA22AEC0DEFF88
:10211000AFC0DEFFB0C0DEFFB1C0DEFFD0511200A5
:10212000000E0201E66F000EE56F000EE46F000E78
:10213000E36F000E266E140E256E000E286E000E44
:10214000276E72ECB3F025C0E5F226C0E6F202017C
:10215000E551E611D8A4120048ECB7F06D0E136EED
:10216000020E146E000E166E140E156EF5ECB2F023
:1021700002016D390F0B040AD8A41200FF0E7D1561
:10218000C66F000E7E15C76F000E7F15C86F000E5C
:102190008015C96FC6C2C9F2C86BC76BC66B22EE89
:1021A0007DF0000EDE14CA6FFF0EDE14CB6F000E42
:1021B000DE14CC6F000EDE14CD6FCCC2CDF2CBC2DC
:1021C000CCF2CAC2CBF2CA6B7DC2CEF27EC2CFF2D3
:1021D0007FC2D0F280C2D1F2CFC2CEF2D0C2CFF253
:1021E000D1C2D0F2D16B000ECE15D26FFF0ECF153B
:1021F000D36F000ED015D46F000ED115D56F22EE1F
:102200007DF0000EDE14D66F000EDE14D76F000EC8
:10221000DE14D86FFF0EDE14D96F190E05D0D890DA
:10222000D933D833D733D633E82EF9D7D251D61194
:10223000DA6FD351D711DB6FD451D811DC6FD55180
:10224000D911DD6FCA51DA11DE6FCB51DB11DF6FAF
:10225000CC51DC11E06FCD51DD11E16FC651DE11C3
:102260007D6FC751DF117E6FC851E0117F6FC9517B
:10227000E111806FFF0E7915C66F000E7A15C76FDA
:10228000000E7B15C86F000E7C15C96FC6C2C9F25F
:10229000C86BC76BC66B22EE79F0000EDE14CA6FF6
:1022A000FF0EDE14CB6F000EDE14CC6F000EDE14BA
:1022B000CD6FCCC2CDF2CBC2CCF2CAC2CBF2CA6BCC
:1022C00079C2CEF27AC2CFF27BC2D0F27CC2D1F216
:1022D000CFC2CEF2D0C2CFF2D1C2D0F2D16B000EBB
:1022E000CE15D26FFF0ECF15D36F000ED015D46F61
:1022F000000ED115D56F22EE79F0000EDE14D66FE8
:10230000000EDE14D76F000EDE14D86FFF0EDE1441
:10231000D96F190E05D0D890D933D833D733D633E7
:10232000E82EF9D7D251D611DA6FD351D711DB6F1E
:10233000D451D811DC6FD551D911DD6FCA51DA11E2
:10234000DE6FCB51DB11DF6FCC51DC11E06FCD5173
:10235000DD11E16FC651DE11796FC751DF117A6F60
:10236000C851E0117B6FC951E1117C6F792907E1F8
:102370007A2905E17B2903E17C29D8B412000051B8
:102380007D190AE101517E1907E102517F1904E12B
:1023900003518019D8B471D07D517E117F11801105
:1023A000D8B46BD07D2907E17E2905E17F2903E1BF
:1023B0008029D8B462D07D517E117F118011D8B4AC
:1023C00019D0FF0E0011C66FFF0E0111C76FFF0E6F
:1023D0000211C86F000E0311C96F7D51C6190AE1C1
:1023E0007E51C71907E17F51C81904E18051C9190D
:1023F000D8B443D07D517E117F118011D8B419D04B
:10240000FF0E0011C66FFF0E0111C76F000E021103
:10241000C86F000E0311C96F7D51C6190AE17E51C4
:10242000C71907E17F51C81904E18051C919D8B40F
:1024300024D07D517E117F118011D8B416D0FF0EAB
:102440000011C66F0151C76F0251C86F0351C96FA8
:102450007D51C6190AE17E51C71907E17F51C8199C
:1024600004E18051C919D8B408D07D0505E1E00E1A
:1024700080197E117F11D8A412006F51C76FC66BEF
:1024800022EE6FF0DECFC8F2DDCFC9F2C9C2C8F2CA
:10249000C96BFF0EC817000EC917C651C8116F6F60
:1024A000C751C911706F6D510F0BC66FD890C637E9
:1024B000D890C635E26F6D510F0BC66F050EC66121
:1024C00001D012006D510F0BC66F050EC665BDD051
:1024D000EC0EE225136E146AFF0E142246ECB5F0E2
:1024E000120002017D517E117F118011D8B41200BB
:1024F000E251C66FC76BC61FC71FC64BC72B6F51B4
:10250000C625E36F7051C721E46FE3C225F0E4C232
:1025100026F0000E286E000E276E72ECB3F025C078
:10252000E5F226C0E6F20201E551E611D8A4120058
:102530006D0E0001B96F020EBA6F3DECABF01200E8
:102540000201E251C66FC76BC61FC71FC64BC72B20
:102550006F51C625E36F7051C721E46FE3C213F0DA
:10256000E4C214F021ECACF013C0E5F214C0E6F2C2
:10257000E3C225F0E4C226F0E5C227F0E6C228F067
:1025800072ECB3F025C0E5F226C0E6F2E5C2DDF05C
:10259000E6C2DEF0E9ECA3F012000201E251C66FE0
:1025A000C76BC61FC71FC64BC72B6F51C625E36F2E
:1025B0007051C721E46FE3C213F0E4C214F021ECC0
:1025C000ACF013C0E5F214C0E6F2E3C225F0E4C2B9
:1025D00026F0E5C227F0E6C228F072ECB3F025C081
:1025E000E5F226C0E6F20201E551E611D8A4120098
:1025F0007D2907E17E2905E17F2903E18029D8B4FF
:1026000012007D517E117F118011D8B4120079C261
:1026100032F27AC233F27BC234F27CC235F232C279
:1026200005F133C206F134C207F135C208F1E3C245
:1026300009F1E4C20AF161EC98F012006FC213F0E4
:1026400070C214F046ECB5F0120002017651010A96
:10265000D8B447D7070AD8B4A0D7170AD8B470D7C8
:10266000EDD7000E0001836F8A0E136E000E146EFC
:10267000000E166E1C0E156EF5ECB2F013C080F055
:1026800014C081F01C0E000180198111D8A4120021
:10269000000E826F100E886F030E896F080E866F12
:1026A0008651D8B43CD020EE06F08851D926895105
:1026B000DA22DE5098192DE1DE5099192AE1DE5018
:1026C0009A1927E1DE509B19D8A423D020EE0AF0F6
:1026D0008851D9268951DA22DE508C191AE1DE5050
:1026E0008D19D8A416D020EE0CF08851D926895126
:1026F000DA22000EDF6E20EE92F088C0E1FF89C082
:10270000E2FF050EDBCFE3FFE806FCE2010E826F7D
:1027100006D00D0E8827000E89238607C1D7020137
:102720000051011102110311D8B438D2FF0E00017B
:10273000A215606F000EA315616F000EA415626FE5
:10274000000EA515636F60C063F0626B616B606B18
:1027500020EEA2F0000EDE14646FFF0EDE14656F33
:10276000000EDE14666F000EDE14676F66C067F041
:1027700065C066F064C065F0646BA2C068F0A3C079
:1027800069F0A4C06AF0A5C06BF069C068F06AC0C7
:1027900069F06BC06AF06B6B000E68156C6FFF0E12
:1027A00069156D6F000E6A156E6F000E6B156F6FF9
:1027B00020EEA2F0000EDE14706F000EDE14716FBA
:1027C000000EDE14726FFF0EDE14736F190E05D04B
:1027D000D8907333723371337033E82EF9D76C515C
:1027E0007011746F6D517111756F6E517211766F3A
:1027F0006F517311776F64517411786F6551751152
:10280000796F665176117A6F675177117B6F6051DE
:1028100078117C6F615179117D6F62517A117E6FF1
:1028200063517B117F6F0201005100017C190FE1A0
:102830000201015100017D190AE10201025100016A
:102840007E1905E10201035100017F19D8A4A6D128
:102850008251D8A4CED0100E886F030E896F100E4F
:10286000846F030E856F080E876F8751D8B41AD016
:1028700020EE0CF08451D9268551DA2210EE0CF0AE
:102880008851E1268951E222DE50E65CD8B004D0BE
:1028900084C088F085C089F00D0E8427000E852342
:1028A0008707E3D720EE0CF08851D9268951DA2228
:1028B000000EDF6E20EE92F088C0E1FF89C0E2FFDB
:1028C000050EDBCFE3FFE806FCE2FF0E9815606F14
:1028D000000E9915616F000E9A15626F000E9B1520
:1028E000636F60C063F0626B616B606B20EE98F0A9
:1028F000000EDE14646FFF0EDE14656F000EDE1432
:10290000666F000EDE14676F66C067F065C066F024
:1029100064C065F0646B98C068F099C069F09AC0B3
:102920006AF09BC06BF069C068F06AC069F06BC068
:102930006AF06B6B000E68156C6FFF0E69156D6F9A
:10294000000E6A156E6F000E6B156F6F20EE98F01B
:10295000000EDE14706F000EDE14716F000EDE14B8
:10296000726FFF0EDE14736F190E05D0D89073339B
:10297000723371337033E82EF9D76C517011746F64
:102980006D517111756F6E517211766F6F517311B8
:10299000776F64517411786F65517511796F665155
:1029A00076117A6F675177117B6F605178117C6F68
:1029B000615179117D6F62517A117E6F63517B1184
:1029C0007F6F20EE06F08851D9268951DA227CC02B
:1029D000DEFF7DC0DEFF7EC0DEFF7FC0DEFF20EEBB
:1029E0000AF08851D9268951DA228CC0DEFF8DC0C9
:1029F000DDFF91059011D8A41200920E256E000EF5
:102A0000266E080E286E060E276ECFECA0F0000191
:102A1000836F8305D8A4120020EE92F010EE9CF094
:102A2000050EDBCFE3FFE806FCE2920E136E000E0C
:102A3000146EB00E156E030E166E000E186E060E96
:102A4000176E07ECB4F098C0A2F099C0A3F09AC03A
:102A5000A4F09BC0A5F0FF0E020100150001606FFD
:102A6000000E020101150001616F000E0201021546
:102A70000001626F000E020103150001636F60C068
:102A800063F0626B616B606B000E02010015000168
:102A9000646FFF0E020101150001656F000E020157
:102AA00002150001666F000E020103150001676F39
:102AB00066C067F065C066F064C065F0646B00C214
:102AC00068F001C269F002C26AF003C26BF069C02B
:102AD00068F06AC069F06BC06AF06B6B000E681535
:102AE0006C6FFF0E69156D6F000E6A156E6F000E2C
:102AF0006B156F6F000E020100150001706F000E64
:102B0000020101150001716F000E020102150001A2
:102B1000726FFF0E020103150001736F190E05D0CD
:102B2000D8907333723371337033E82EF9D76C5108
:102B30007011746F6D517111756F6E517211766FE6
:102B40006F517311776F64517411786F65517511FE
:102B5000796F665176117A6F675177117B6F60518B
:102B60007811986F61517911996F62517A119A6F4A
:102B700063517B119B6F020E916F000E906F8A0E56
:102B8000136E000E146E000E166E1C0E156E49ECC0
:102B9000B3F0BBECADF00001836F12000E0E00012C
:102BA000836F12001CD0010E0101216F000E1E6FF9
:102BB00012D0000E0101216F010E1E6F05D0236F90
:102BC0001DD0000E0101216F010E226F010EF7D7FB
:102BD000000E0101216F000E226F000EF0D70201DE
:102BE0004C51000AD8B4DFD7010AD8B4E2D7030A9F
:102BF000D8B4E7D7010AD8B4EBD7D5D70101215112
:102C0000D8A409D01E51D8A406D02251D8A403D0EC
:102C10002351D8B4120023EEB6F011EE25F02F0E9A
:102C2000DBCFE3FFE806FCE2ADC245F1AEC246F100
:102C3000AFC247F1B0C248F10001B9BF36D2B951B5
:102C400004E1F10EB85DD8A030D269ECB4F0130401
:102C500003E1020E1418D8A428D237ECB6F0060A05
:102C6000D8A423D237ECB6F09EECB2F00201AD51FD
:102C7000131809E1AE51141806E1AF51151803E11C
:102C8000B0511618D8A411D269ECB4F069ECB4F0C4
:102C90009EECB2F09EECB2F013C025F114C026F108
:102CA00015C027F116C028F10101252907E12629C1
:102CB00005E1272903E12829D8B4F7D1250506E144
:102CC0007F0E281926112711D8B4EFD19EECB2F04F
:102CD00013C01AF114C01BF115C01CF116C01DF170
:102CE00001011A2907E11B2905E11C2903E11D291E
:102CF000D8B4DBD11A0506E17F0E1D191B111C117A
:102D0000D8B4D3D19EECB2F0000E136E010E146E47
:102D1000000E166E100E156EF5ECB2F0000E136E6E
:102D2000010E146EB00E156E030E166E000E186EA8
:102D3000060E176E0FECAEF013501410D8B41CD062
:102D4000000E136E010E146E080E156EFF0E166E39
:102D5000000E186E060E176E0FECAEF01350141026
:102D6000D8B40AD0000E136E010E146E1FECB3F02F
:102D700013501410D8A499D1000E146E400E136E87
:102D800046ECB5F0000E146E800E136E46ECB5F0F6
:102D90009EECB2F0630E131809E1530E141806E10D
:102DA000820E151803E1630E1618D8A47ED1000117
:102DB000100EB827FF0EB923DAD037ECB6F00101B8
:102DC000196F37ECB6F00101246F24510001BA6F7E
:102DD000BB6B020EBA27000EBB23BA51B85FBB51C2
:102DE000B95BADD09EECB2F013C029F114C02AF14A
:102DF00015C02BF116C02CF1BAD09EECB2F013C066
:102E00002DF114C02EF115C02FF116C030F1AFD046
:102E1000000E01011F6F25D09EECB2F013C010F11F
:102E200014C011F115C012F116C013F1020E010108
:102E30001F6115D01F51040D0C0EF326000EF42255
:102E4000250EF324D96E010EF420DA6E10C1DEFFD8
:102E500011C1DEFF12C1DEFF13C1DEFF1F2B040E06
:102E6000245F040E2461D8D782D0000E206F25D0B5
:102E70009EECB2F013C014F114C015F115C016F198
:102E800016C017F1020E0101206115D02051040D6A
:102E9000140EF326000EF422250EF324D96E010E33
:102EA000F420DA6E14C1DEFF15C1DEFF16C1DEFFAD
:102EB00017C1DEFF202B040E245F040E2461D8D737
:102EC00056D0030E246553D09EECB2F013C049F1E6
:102ED00014C04AF115C04BF116C04CF149C1BAF00B
:102EE0004AC1BBF04BC1BCF04CC1BDF00001D89051
:102EF000BD33BC33BB33BA33BAC04DF1BBC04EF1A6
:102F0000BCC04FF1BDC050F10AD09EECB2F013C06E
:102F100051F114C052F115C053F116C054F1040E12
:102F20000101245F24D037ECB6F00101186F2407AB
:102F30001ED024C113F0146A46ECB5F018D001017C
:102F40001951010AD8B44ED7020AD8B456D7050A87
:102F5000D8B45ED72C0AD8B488D7190AD8B4B1D758
:102F6000060AD8B4E0D7030AD8B4CFD7E2D7000115
:102F7000B9BF9BD0B95103E1B805D8A096D01DD7F1
:102F800001012151D8B40ED021EE25F012EE8DF0C2
:102F90002F0EDBCFE3FFE806FCE293ECB7F0010E67
:102FA00002014C6F01011E51D8B412008FECB7F032
:102FB000120001012351D8B4120049C1B1F24AC133
:102FC000B2F24BC1B3F24CC1B4F24DC1B5F24EC135
:102FD000B6F24FC1B7F250C1B8F28DC200F28EC244
:102FE00001F28FC202F290C203F299C204F29AC2B5
:102FF00005F29BC206F29CC207F29DC208F29EC275
:1030000009F29FC20AF2A0C20BF295C210F296C258
:1030100011F297C212F298C213F2A9C214F2AAC214
:1030200015F2ABC216F2ACC217F291C20CF292C208
:103030000DF293C20EF294C20FF20201A151A2113D
:10304000A311A411D8B416D0A1C218F2A2C219F2C9
:10305000A3C21AF2A4C21BF2A551A611A711A8116E
:10306000D8B408D0A5C21CF2A6C21DF2A7C21EF297
:10307000A8C21FF2030E4C6F120001012251D8B4F6
:103080001200000E0201B16F000EB26F000EB36F9E
:10309000000EB46F000EB56F000EB66F000EB76F66
:1030A000000EB86F000E4C6F120001011851020A99
:1030B000D8B466D7070AD8B47CD7030AD8A41200BC
:1030C000DCD7000E0001FC6F000EFD6F000EFE6FDE
:1030D000000E02012A6F000E2B6F000E2C6F000EE7
:1030E0002D6F000E496F000E486F590E136E020EC1
:1030F000146E000E166E140E156EF5ECB2F0000E86
:103100003D6E000E3E6E02015B515C11D8B41200A0
:1031100059515A11D8B41200595101010C6F0B6B5F
:1031200059C20DF15AC20EF10EC10DF10E6BFF0E18
:103130000D17000E0E170B510D110201596F0101F1
:103140000C510E1102015A6F5B5101010C6F0B6B98
:1031500022EE5BF0DECF0DF1DDCF0EF10EC10DF1F1
:103160000E6BFF0E0D17000E0E170B510D11020105
:103170005B6F01010C510E1102015C6F3FC0FDF04D
:1031800040C0FEF01DD0FDC0D9FFFEC0DAFFDE500A
:1031900002015B1909E1DE505C19D8A405D0FDC01D
:1031A0003DF0FEC03EF01AD0000120EE2FF0FD51A0
:1031B000D926FE51DA22DECFFDF0DDCFFEF0FC2B6A
:1031C0000001FD51FE11D8B409D0FC51800A010163
:1031D0000B6F4750800A0B5DD8A0D5D73D503E10ED
:1031E000D8B4120020EE06F03D50D9263E50DA2227
:1031F00002015951DE1804E15A51DE18D8B40CD03E
:1032000020EE02F03D50D9263E50DA22DE50DE108C
:10321000DE10DE10D8A4120005C12AF206C12BF27E
:1032200007C12CF208C12DF265390F0B01010B6F9C
:103230000C6BD8900B370C37D8900B370C370B1F13
:103240000C1F0B4B0C2B09510B250201486F010180
:103250000A510C210201496F7DECA8F0E806D8A4C0
:103260001200020166A312D066A908D020EE2EF04B
:103270003D50D9263E50DA22050E39D020EE2EF0F0
:103280003D50D9263E50DA22030E31D066A112D02D
:1032900066A908D020EE2EF03D50D9263E50DA2205
:1032A000070E25D020EE2EF03D50D9263E50DA22D2
:1032B000060E1DD066A512D066A908D020EE2EF00D
:1032C0003D50D9263E50DA220A0E11D020EE2EF0C3
:1032D0003D50D9263E50DA22090E09D066A908D001
:1032E00020EE2EF03D50D9263E50DA22040EDF6E3D
:1032F000FF0E611501010B6F000E02016215010145
:103300000C6F000E0201631501010D6F000E02012A
:10331000641501010E6F0BC10EF10D6B0C6B0B6B85
:1033200022EE61F0000EDE140F6FFF0EDE14106F40
:10333000000EDE14116F000EDE14126F11C112F1B7
:1033400010C111F10FC110F10F6B61C213F162C214
:1033500014F163C215F164C216F114C113F115C161
:1033600014F116C115F1166B000E1315176FFF0E31
:103370001415186F000E1515196F000E16151A6F1B
:1033800022EE61F0000EDE141B6F000EDE141C6FC7
:10339000000EDE141D6FFF0EDE141E6F190E05D019
:1033A000D8901E331D331C331B33E82EF9D7175129
:1033B0001B111F6F18511C11206F19511D11216F06
:1033C0001A511E11226F0F511F11236F105120111E
:1033D000246F11512111256F12512211266F0B51AB
:1033E00023110201616F01010C5124110201626F6E
:1033F00001010D5125110201636F01010E512611CA
:103400000201646FFF0E5D1501010B6F000E0201DA
:103410005E1501010C6F000E02015F1501010D6FB9
:10342000000E0201601501010E6F0BC10EF10D6B54
:103430000C6B0B6B22EE5DF0000EDE140F6FFF0EB7
:10344000DE14106F000EDE14116F000EDE14126F0A
:1034500011C112F110C111F10FC110F10F6B5DC25A
:1034600013F15EC214F15FC215F160C216F114C10E
:1034700013F115C114F116C115F1166B000E1315D9
:10348000176FFF0E1415186F000E1515196F000E2B
:1034900016151A6F22EE5DF0000EDE141B6F000E83
:1034A000DE141C6F000EDE141D6FFF0EDE141E6F87
:1034B000190E05D0D8901E331D331C331B33E82E54
:1034C000F9D717511B111F6F18511C11206F19517B
:1034D0001D11216F1A511E11226F0F511F11236FE1
:1034E00010512011246F11512111256F12512211F9
:1034F000266F0B51231102015D6F01010C51241144
:1035000002015E6F01010D51251102015F6F010182
:103510000E5126110201606F00EC80F01200000EC7
:1035200000017C6F010E7E6F000E7D6F000E806FBC
:10353000080E7F6F060E816F040E826F010E846F7E
:10354000000E836F850E136E000E146EB00E156E96
:10355000030E166E000E186E060E176E07ECB4F012
:10356000FF0E020100150001606F000E020101153F
:103570000001616F000E020102150001626F000E72
:10358000020103150001636F60C063F0626B616B41
:10359000606B000E020100150001646FFF0E020156
:1035A00001150001656F000E020102150001666F32
:1035B000000E020103150001676F66C067F065C069
:1035C00066F064C065F0646B00C268F001C269F027
:1035D00002C26AF003C26BF069C068F06AC069F0A9
:1035E0006BC06AF06B6B000E68156C6FFF0E69158F
:1035F0006D6F000E6A156E6F000E6B156F6F000E0B
:10360000020100150001706F000E0201011500019A
:10361000716F000E020102150001726FFF0E0201B0
:1036200003150001736F190E05D0D89073337233F0
:1036300071337033E82EF9D76C517011746F6D517E
:103640007111756F6E517211766F6F517311776FC3
:1036500064517411786F65517511796F66517611E7
:103660007A6F675177117B6F605178118B6F615161
:1036700079118C6F62517A118D6F63517B118E6F4E
:10368000FF0E2D14606F000E2E14616F000E2F14AC
:10369000626F000E3014636F60C063F0626B616B29
:1036A000606B000E2D14646FFF0E2E14656F000EFC
:1036B0002F14666F000E3014676F66C067F065C028
:1036C00066F064C065F0646B2DC068F02EC069F0D0
:1036D0002FC06AF030C06BF069C068F06AC069F052
:1036E0006BC06AF06B6B000E68156C6FFF0E69158E
:1036F0006D6F000E6A156E6F000E6B156F6F000E0A
:103700002D14706F000E2E14716F000E2F14726F37
:10371000FF0E3014736F190E05D0D89073337233C7
:1037200071337033E82EF9D76C517011746F6D518D
:103730007111756F6E517211766F6F517311776FD2
:1037400064517411786F65517511796F66517611F6
:103750007A6F675177117B6F60517811956F615166
:103760007911966F62517A11976F63517B11986F3F
:10377000000E8F6F000E906F000E916F000E926F13
:10378000000E936F000E946F080E256EFF0E266ECE
:10379000080E286E060E276ECFECA0F000017C6F9D
:1037A0007C05D8A413D07D0E136E000E146E000E8F
:1037B000166E1C0E156E49ECB3F0BBECADF00001BB
:1037C0007C6F7C05D8A402D0050E12007C5112003B
:1037D000000E0001DA6F000EDB6F050EDC6FB9BF63
:1037E0001200B95104E10D0EB85DD8A0120069ECC9
:1037F000B4F013C0CDF014C0CEF0D70EF66EFE0EAE
:10380000F76E000EF86E0900F5500001CD1904E1C5
:103810000900F550CE19D8A4A9D09EECB2F069ECFD
:10382000B4F013C0D2F014C0D3F069ECB4F013C0FC
:10383000C3F014C0C4F069ECB4F00001F40EB82772
:10384000FF0EB923B9BF92D0B95120E1B805D8B065
:103850001DD08CD0DA51010D000EF324D96E010E6B
:10386000F420DA6E37ECB6F0DF6E0001DA2BD10708
:10387000D129D8A4EFD7DA51010D000EF324D96E67
:10388000010EF420DA6E2E0EDF6EDA2B37ECB6F076
:103890000001D16FD151D8A4EAD7FF0EBA6FFF0E45
:1038A000BB6FDA51BC6FBD6BBA51BC27BB51BD2396
:1038B000000EBC25D96E010EBD21DA6E000EDF6E42
:1038C0009EECB2F00001DA51BA6FBB6B050EBA275D
:1038D000000EBB23BA51B85FBB51B95B43D069EC52
:1038E000B4F069ECB4F013C0CFF014C0D0F069ECC0
:1038F000B4F09EECB2F013C0C9F014C0CAF015C009
:10390000CBF016C0CCF069ECB4F013C0D4F014C006
:10391000D5F00001CF05D011D8A40DD09EECB2F0A7
:1039200013C0C5F014C0C6F015C0C7F016C0C8F06B
:1039300015D037ECB6F00001D407D8A0D507D429AC
:10394000F8E1D529D8A4F5D70E0ED425BA6F000E0C
:10395000D521BB6FBA51B85FBB51B95B0001D2072B
:10396000D8A0D307D251D311D8A4B9D7000ED66F9F
:10397000050ED76F080ED96FD951D8B424D020EED8
:103980000CF0D651D926D751DA2210EE0CF0DB51CB
:10399000E126DC51E222DE50E65CDE50E658DE50E5
:1039A000E658E650800AC26FDE50800AC259D8B08D
:1039B00004D0D6C0DBF0D7C0DCF0100ED627000E46
:1039C000D723D907D9D7000ED86F070ED86501D0F5
:1039D0001200DBC0D9FFDCC0DAFFDECF13F0DDCF91
:1039E00014F0000E156E010E166EE4ECB3F01350D9
:1039F0001410D8A43AD0000E136E000E146ECAEC48
:103A0000B2F0000120EE0CF0DB51D926DC51DA22B5
:103A100013C0DEFF14C0DEFF15C0DEFF16C0DEFFE0
:103A200020EE03F0DB51D926DC51DA22C5C0DEFFDF
:103A3000C6C0DEFFC7C0DEFFC8C0DEFF20EE07F055
:103A4000DB51D926DC51DA22C9C0DEFFCAC0DEFF55
:103A5000CBC0DEFFCCC0DEFF20EE0BF0DB51D92661
:103A6000DC51DA22010EDF6E1200100E0001DB279E
:103A7000000EDC23D82BA9D7020124912495249988
:103A80009AECB3F0000E0201276F000E266F000EB5
:103A9000426E000E416E000ED26E0E01FDB5FDD7D6
:103AA000D2A605D0FDD7020124934DECB1F060BC45
:103AB000FAD7000E0E01FE6F00F000F000F0A00E2D
:103AC0000E01FE6FFDA1FED7010EA06F00F0B20E39
:103AD0000E01A26F00F0400E0E01A36F00F0120E57
:103AE0000E01A46F00F00C0E0E01A76F120EA66F50
:103AF00000F0000E0E01976F000E0001866F000EA1
:103B0000856F140E0E01E56F160EE46F1F0EE76F42
:103B1000E669000EE96F000EE86F140EEB6F150EEC
:103B2000EA6F000E7B6E000E7A6E140EE36F160EB7
:103B3000E26F140EED6F150EEC6F050EAB6FEE0E0F
:103B4000AA6F67ECB7F013C087F014C088F00E0EB0
:103B500000016D6FFF0E6E6F87C0F6FF88C0F7FF24
:103B6000000EF86E0800F5506F6F706B010E872520
:103B70007B6F000E88217C6F7BC0F6FF7CC0F7FF57
:103B8000000EF86E0800F550716F726B020E8725FB
:103B90007D6F000E88217E6F7DC0F6FF7EC0F7FF2F
:103BA000000EF86E0800F550736F746B030E8725D6
:103BB0007F6F000E8821806F7FC0F6FF80C0F7FF07
:103BC000000EF86E0800F550756F766B040E8725B1
:103BD000816F000E8821826F81C0F6FF82C0F7FFDF
:103BE000000EF86E0800F550776F786B050E87258C
:103BF000836F000E8821846F83C0F6FF84C0F7FFB7
:103C0000000EF86E0800F550796F7A6B87ECB4F00F
:103C100087C0F6FF88C0F7FF000EF86E0800F5CFEA
:103C200084FE00F0010E000187257B6F000E8821C5
:103C30007C6F7BC0F6FF7CC0F7FF000EF86E0800BB
:103C4000F5CF85FE00F0020E000187257B6F000E88
:103C500088217C6F7BC0F6FF7CC0F7FF000EF86EFA
:103C60000800F5CF82FE00F0030E000187257B6F70
:103C7000000E88217C6F7BC0F6FF7CC0F7FF000E32
:103C8000F86E0800F5CF83FE00F0040E00018725D2
:103C90007B6F000E88217C6F7BC0F6FF7CC0F7FF36
:103CA000000EF86E0800F5CF80FE00F0050E000152
:103CB00087257B6F000E88217C6F7BC0F6FF7CC060
:103CC000F7FF000EF86E0800F5CF81FE00F0AB0E96
:103CD0000E01D86F040ED26E85C015F086C016F0A6
:103CE000000E23ECB6F0010E166E100E156E100EBF
:103CF00023ECB6F01D0E166E4A0E156E140E23EC54
:103D0000B6F00EECB6F0590E0E01FB6F000E166EFB
:103D1000120E156E120E23ECB6F012007C0E196E08
:103D2000030E1A6EFDECACF019C0C8F11AC0C9F14F
:103D30000001B9BF1200B95104E1050EB85DD8A069
:103D4000120069ECB4F013500101CA6F69ECB4F0D1
:103D500013C03BF014C03CF0060E0101CA19D8A4F0
:103D600007D0000E3C6E000E3B6E040ED9ECB0F096
:103D7000010E020144250001BA6F000E0201452127
:103D80000001BB6F3B50BA1903E13C50BB19D8A4EA
:103D9000C3D0010E3B240201426F000E3C20436F52
:103DA000FC0E0001B825B86FFF0EB921B96F0101F3
:103DB000C8510001B85D0101C9510001B959D8B01D
:103DC00099D0030E0101CA19D8A494D0010E0201A2
:103DD000566F90D0000E3C6E000E3B6E040ED9EC78
:103DE000B0F012000001B9BF06D0B95109E1650E6B
:103DF000B85DD8B005D0B8C0CBF1B9C0CCF105D012
:103E0000000E0101CC6F640ECB6F640E136E010EB9
:103E1000146E000E166E000E156E000E186E640EF7
:103E2000176EA3ECB5F0000E136E010E146E000EAB
:103E3000166E000E156E000E186E640E176EA3EC53
:103E4000B5F0640E136E010E146ECBC115F0CCC12B
:103E500016F0F5ECB2F0BDC213F0BEC214F0BFC252
:103E600015F0C0C216F0640E176E010E186ECBC1AD
:103E700019F0CCC11AF041ECB7F0CBC1BAF0CCC10B
:103E8000BBF0000E0001BBBFFF0EBC6FBD6F020197
:103E9000BD510001BA250201BD6FBE510001BB2119
:103EA0000201BE6FBF510001BC210201BF6FC051B2
:103EB0000001BD210201C06F0101CB510001B85FBB
:103EC0000101CC510001B95B0001B9BF05D0B95166
:103ED00089E1B805D8B086D7040ED9ECB0F03BC064
:103EE00044F23CC045F21200000E0001B96F000E12
:103EF000B86F12000101CA51010AD8B41200030AB6
:103F0000D8B468D7010AD8B4DFD7070AD8B41200EA
:103F1000010AD8A41200E8D7020144513B5C455184
:103F20003C58D8B009D0040ED9ECB0F0000E000116
:103F3000B96F000EB86F1200010E02014425000196
:103F4000BA6F000E020145210001BB6F3B50BA5D04
:103F50003C50BB59D8B01200000EB96F000EB86FBC
:103F60001200000E0001A76F0201005101110211A1
:103F70000311D8A404D0110E3518D8A40DD1000512
:103F800006E17F0E031901110211D8B405D13128C1
:103F900007E1322805E1332803E13428D8B4A0D062
:103FA000000E31100001996F000E32109A6F000E52
:103FB00033109B6FFF0E34109C6F992907E19A29EB
:103FC00005E19B2903E19C29D8B48AD0000E311069
:103FD000996F000E32109A6FFF0E33109B6FFF0E19
:103FE00034109C6F992907E19A2905E19B2903E187
:103FF0009C29D8B475D0000E3110996FFF0E321085
:104000009A6FFF0E33109B6FFF0E34109C6F99292F
:1040100007E19A2905E19B2903E19C29D8B460D0E6
:104020003150020100190001996F3250020101194B
:1040300000019A6F33500201021900019B6F345046
:104040000201031900019C6F02010C510001991536
:104050009D6F02010D5100019A159E6F02010E51D4
:1040600000019B159F6F02010F5100019C15A06F6D
:104070009D519E119F11A011D8A409D031C0A1F06B
:1040800032C0A2F033C0A3F034C0A4F008D010C2F4
:10409000A1F011C2A2F012C2A3F013C2A4F0A1C0F9
:1040A00013F0A2C014F0A3C015F0A4C016F071EC78
:1040B000B2F013C0A5F014C0A6F00001A551A611DE
:1040C000D8A413D0A1C02DF0A2C02EF0A3C02FF011
:1040D000A4C030F08FEC9AF00001A76FA751120036
:1040E000080E0001A56FFF0EA66FA5C025F0A6C0A3
:1040F00026F0080E286E000E276ECFECA0F000010F
:10410000A76FA705D8A448D0450E146E000E136EF5
:104110004FECB7F0000E146E000E136E4FECB7F0BC
:10412000000E136E400E146E550E156EAA0E166E0E
:10413000D1ECB6F0400E8AECB7F035508AECB7F00F
:10414000000E146E000E136E4FECB7F000C213F0A9
:1041500001C214F002C215F003C216F0D1ECB6F0A1
:1041600031C013F032C014F033C015F034C016F073
:10417000D1ECB6F000C279F201C27AF202C27BF24F
:1041800003C27CF231C07DF232C07EF233C07FF2D6
:1041900034C080F235C076F20001A7511200000E43
:1041A0002B6E000E2C6E020124B502D0020E1200FE
:1041B00045504610D8B40CD045C0D9FF46C0DAFFF0
:1041C000DECF29F0DDCF2AF029A002D0030E1200A5
:1041D0000C0E0E01E25D1A0EE359D8A00FD0D2A644
:1041E00002D0040E1200CDECA4F00C0E0E01E25D24
:1041F0001A0EE359D8A002D0030E1200F0ECA2F080
:1042000013C02BF014C02CF02B502C10D8A402D0CB
:10421000030E12002BC0D9FF2CC0DAFFDECF29F02D
:10422000DDCF2AF0010E2912000E2A122BC0D9FF71
:104230002CC0DAFF29C0DEFF2AC0DDFF20EE02F02D
:104240002B50D9262C50DA22DECFE2FEDDCFE3FE62
:1042500080ECB7F0060E9AECB7F025C0F6FF26C04A
:10426000F7FF000EF86E0F0EF76403D00800F5504C
:1042700005D0F6CFE9FFF7CFEAFFEF509AECB7F0A1
:10428000010E2524296E000E26202A6E29C0F6FF75
:104290002AC0F7FF000EF86E0F0EF76403D0080077
:1042A000F55005D0F6CFE9FFF7CFEAFFEF509AECD3
:1042B000B7F0020E2524296E000E26202A6E29C092
:1042C000F6FF2AC0F7FF000EF86E0F0EF76403D05A
:1042D0000800F55005D0F6CFE9FFF7CFEAFFEF5021
:1042E0009AECB7F0030E2524296E000E26202A6EC4
:1042F00029C0F6FF2AC0F7FF000EF86E0F0EF76414
:1043000003D00800F55005D0F6CFE9FFF7CFEAFF5C
:10431000EF509AECB7F0040E2524296E000E2620EB
:104320002A6E29C0F6FF2AC0F7FF000EF86E0F0EA6
:10433000F76403D00800F55005D0F6CFE9FFF7CFBA
:10434000EAFFEF509AECB7F0050E2524296E000E17
:1043500026202A6E29C0F6FF2AC0F7FF000EF86E4D
:104360000F0EF76403D00800F55005D0F6CFE9FF33
:10437000F7CFEAFFEF509AECB7F00E0184519AECB8
:10438000B7F00E0185519AECB7F00E0182519AEC0C
:10439000B7F00E0183519AECB7F00E0180519AEC00
:1043A000B7F00E0181519AECB7F028509AECB7F0B3
:1043B00027509AECB7F02B0EA0ECB7F0010E1200CC
:1043C0003A6EFF0E0001A86FFF0EA96FFF0EAA6FD5
:1043D000FF0EAB6F000EAD6F440EAC6F000EAF6FF3
:1043E000430EAE6F16ECB2F0396E3904D8A4F6D095
:1043F000000E136E060E146E010E156E010E166E73
:10440000D1ECB6F0ADC213F0AEC214F0AFC215F0ED
:10441000B0C216F0D1ECB6F0000E136E800E146E22
:10442000000E156E000E166ED1ECB6F0030E3A18A3
:10443000D8A40BD0000E136E000E146E000E156E75
:10444000000E166ED1ECB6F00AD08DC213F08EC2FB
:1044500014F08FC215F090C216F0D1ECB6F0000E39
:10446000136E000E146E000E156E000E166ED1EC5B
:10447000B6F0000E136E000E146E000E156E000ED8
:10448000166ED1ECB6F0000E136E000E146E000E18
:10449000156E000E166ED1ECB6F0B00E136E030E54
:1044A000146E000E166E060E156E49ECB3F0000E7B
:1044B000156ECA0E146EDEECB6F0630E136E530E5C
:1044C000146E820E156E630E166ED1ECB6F00C0EE5
:1044D0008AECB7F0ED0E136EFE0E146E1FECB3F007
:1044E00013508AECB7F0ED0E136EFE0E146EBFEC97
:1044F000B3F02A0E8AECB7F0040E8AECB7F0000E87
:10450000136E000E146E000E156E000E166ED1ECBA
:10451000B6F0350E8AECB7F0010E8AECB7F03A50DF
:104520008AECB7F0030E3A18D8A420D0320E8AECE9
:10453000B7F0040E8AECB7F08DC213F08EC214F0FF
:104540008FC215F090C216F0D1ECB6F0360E8AECA0
:10455000B7F0040E8AECB7F0B9C213F0BAC214F087
:10456000BBC215F0BCC216F0D1ECB6F0370E8AEC27
:10457000B7F0040E8AECB7F0010E8AECB7F0030E28
:104580008AECB7F0060E8AECB7F00F0E8AECB7F0A3
:10459000390E8AECB7F0020E8AECB7F0020E146EF8
:1045A000000E136E4FECB7F03D0E8AECB7F0070E1D
:1045B0008AECB7F0010E8AECB7F0B00E136E030E62
:1045C000146E000E166E060E156E49ECB3F0FF0E5B
:1045D0008AECB7F0C4ECAAF0010E1200000E120033
:1045E000000E176E140E4818D8A4EBD0000E146EEF
:1045F000000E136E120017500A0D000EF324D96E30
:10460000040EF420DA6E0401DFB4DAD017500A0D7C
:10461000000EF324D96E040EF420DA6E000EDE6E66
:10462000000EDD6E17500A0D000EF324D96E040E35
:10463000F420DA6EDECF15F0DDCF16F0040E151281
:10464000000E161217500A0D000EF324D96E040E38
:10465000F420DA6E15C0DEFF16C0DDFF17500A0D1C
:10466000040EF326000EF422000EF324D96E040E7D
:10467000F420DA6EFF0EDE6E1F0EDD6E17500A0D8F
:10468000060EF326000EF422000EF324D96E040E5B
:10469000F420DA6E000EDE6E000EDD6E17500A0D8D
:1046A000080EF326000EF422000EF324D96E040E39
:1046B000F420DA6E45C0DEFF46C0DDFF45504610EF
:1046C000D8B454D017500A0D000E156E040E166E95
:1046D000F3501526F450162220EE06F04550D92648
:1046E0004650DA2215C0DEFF16C0DDFF20EE04F0D2
:1046F0004550D9264650DA22DECF15F0DDCF16F030
:10470000070E1526000E162217500A0D020EF3266C
:10471000000EF422000EF324D96E040EF420DA6E9B
:1047200015C0DEFF16C0DDFF17500A0D020EF3267E
:10473000000EF422000EF324D96E040EF420DA6E7B
:10474000DECF15F0DDCF16F015A028D017500A0DDA
:10475000020EF326000EF422000EF324D96E040E8E
:10476000F420DA6EDE2A000EDD2218D017500A0D72
:10477000020EF326000EF422000EF324D96E040E6E
:10478000F420DA6E160EDE6E140EDD6E17500A0D72
:10479000000EF324436E040EF420446E17500A0DED
:1047A000000EF324456E040EF420466E482A17507E
:1047B0000A0D000EF324136E040EF420146E120082
:1047C000172A130E176417D7000E146E000E136EFF
:1047D0001200000E0001E36F810E136E020E146EC4
:1047E000000E166E080E156EF5ECB2F00201875140
:1047F0008811D8B405D00001DD51DE11D8A4C9D08C
:10480000020183510001E06FDF6B22EE83F0DECF07
:10481000E1F0DDCFE2F0E2C0E1F0E26BFF0EE11784
:10482000000EE217DF51E1110201836F0001E05138
:10483000E2110201846F81510001E06FDF6B81C2E0
:10484000E1F082C2E2F0E2C0E1F0E26BFF0EE117BC
:10485000000EE217DF51E11102014E6F0001E0513D
:10486000E21102014F6F85510001E06FDF6B22EE14
:1048700085F0DECFE1F0DDCFE2F0E2C0E1F0E26B07
:10488000FF0EE117000EE217DF51E1110201856F03
:104890000001E051E2110201866F0D0E0001E36F8D
:1048A0006CECB7F013C0E4F014C0E5F04CD0E4C0F9
:1048B000F6FFE5C0F7FF000EF86E02018351090014
:1048C000F51837E184510900F518D8A432D015EC59
:1048D000B7F002018551131828E186511418D8A4A5
:1048E00024D0F80E85250001B86FFF0E0201862145
:1048F0000001B96F020EE425DF6F000EE521E06FC5
:10490000DFC0F6FFE0C0F7FF000EF86E01D80DD053
:104910000500FA6E0900F550FD6E0900F550FE6EB7
:104920000900F550FF6EFA501200010E0001E36F0E
:104930000FD0E4C015F0E5C016F0DDECB4F015C002
:10494000E4F016C0E5F00001E451E511D8A4AFD7BA
:104950000D0EE319D8A412007DC2A8F07EC2A9F002
:104960007FC2AAF080C2ABF079C2ACF07AC2ADF0DF
:104970007BC2AEF07CC2AFF0050E020185250001BE
:10498000B06F000E020186210001B16F41ECAAF068
:1049900012000A0E0001E36F120020EE04F04550F1
:1049A000D9264650DA22DECF19F0DDCF1AF020EEFC
:1049B00002F04350D9264450DA22DECF1BF0DDCF7F
:1049C0001CF01B1E1C1E1B4A1C2A19501B24216E86
:1049D0001A501C20226ED89021341F6E2234206E73
:1049E00001D000F0D2AA07D01F06D8A020061F5081
:1049F0002010D8A4F6D7D2BA9BD0140E0E01F56FB2
:104A0000160EF46F20EE02F04350D9264450DA22FD
:104A1000DECFF0FEDDCFF1FE20EE04F04550D926CA
:104A20004650DA22DECFF2FEDDCFF3FED298D28AF4
:104A300021C013F022C014F0000E166E280E156E61
:104A40004AECB6F013C01FF014C020F001D000F003
:104A5000D2AA07D01F06D8A020061F502010D8A425
:104A6000F6D7D2BA65D045C023F046C024F020EE78
:104A700002F04350D9264450DA22DECF1DF0DDCFBC
:104A80001EF04AD020EE02F02350D9262450DA221C
:104A9000DECF19F0DDCF1AF01DC01BF01EC01CF0D8
:104AA0001B1E1C1E1B4A1C2A19501B261A501C2296
:104AB00020EE02F02350D9262450DA221BC0DEFF5C
:104AC0001CC0DDFF20EE04F02350D9262450DA224A
:104AD000DECF19F0DDCF1AF01DC01BF01EC01CF098
:104AE0001B1E1C1E1B4A1C2A19501B261A501C2256
:104AF00020EE04F02350D9262450DA221BC0DEFF1A
:104B00001CC0DDFF20EE08F02350D9262450DA2205
:104B1000DECF23F0DDCF24F023502410D8A4B2D769
:104B2000160E21240E01E26F140E2220E36F1200F4
:104B3000FF001200000E0101076F000E086F000E4B
:104B4000066F000E056F010E03010427000E0523FA
:104B500006230723010E02014A254A6F000E4B214E
:104B60004B6F040E4B5DD8B004D0040E4B6F000E9B
:104B70004A6F3FC007F140C008F185D0010120EE27
:104B800033F00751D9260851DA22DE50DE10D8B4AE
:104B90006DD0FF0E0001FC6FFF0EFD6F010120EED6
:104BA00033F00751D9260851DA22DECFFEF0DDCFEF
:104BB000FFF00001FC51FE27FD51FF23010120EE13
:104BC00033F00751D9260851DA22FEC0DEFFFFC0BC
:104BD000DDFF20EE33F00751D9260851DA22DE50EE
:104BE000DE10D8A443D020EE2EF00751D92608516C
:104BF000DA220D0EDE18D8A439D020EE35F0075198
:104C0000D9260851DA2210EE33F00751E126085177
:104C1000E222DECFE6FFDDCFE5FF20EE37F00751E1
:104C2000D9260851DA22DF50D8B411D020EE37F05F
:104C30000751D9260851DA2210EE37F00751E12644
:104C40000851E222E7500001FC6FFC05DF6E010114
:104C500020EE2EF00751D9260851DA220C0EDF6E15
:104C600007C13DF008C13EF000EC80F0010120EEEC
:104C70002FF00751D9260851DA22DECF07F1DDCF18
:104C800008F1054B062B010107510811D8B4120099
:104C900047C0FCF00001FD6BFCBFFD07FC510101AA
:104CA000055D0651800A0001FE6FFD51800AFE5924
:104CB000D8B0120063D7000E0001B56F000EB46FBC
:104CC000000EB86F69ECB4F013C0AEF014C0AFF0D2
:104CD00069ECB4F013C0B0F014C0B1F0000120EEE4
:104CE0000CF0A851D926A951DA22DECF31F0DECF5F
:104CF00032F0DECF33F0DECF34F020EE09F0A851F1
:104D0000D926A951DA22DF50356EB1EC9FF00001AF
:104D1000B86FB805D8A488D020EE02F0A851D926E3
:104D2000A951DA22DECFAAF0DDCFABF0EC0EAA2536
:104D3000B66FFF0EAB21B76F20EE02F0A851D92657
:104D4000A951DA22DECFAAF0DDCFABF0A8C0D9FF9F
:104D5000A9C0DAFFDF500F0BAC6FAD6BD890AC374A
:104D6000AD37D890AC37AD37AC1FAD1FAC4BAD2BCA
:104D7000AA51AC25B66FAB51AD21B76F000E146EC2
:104D8000000E136E4FECB7F0000E146E000E136E93
:104D90004FECB7F0AEC013F0AFC014F04FECB7F06B
:104DA000B0C013F0B1C014F04FECB7F0F80E000132
:104DB000B625196EFF0EB7211A6E64ECADF0000136
:104DC000B86FB805D8A430D0000EB56F220EB46FFE
:104DD000000EB36F220EB26FB2C025F0B3C026F042
:104DE000B6C027F0B7C028F0000E2A6E000E296E5C
:104DF00091ECACF025C0B4F026C0B5F0B40E136E43
:104E0000000E146E000E166E020E156E000E186E59
:104E1000240E176EB7ECB1F0B6C037F0B7C038F05B
:104E2000AEECAEF00001B86FB8511200000E0001F8
:104E3000F16F20EE22F03D50D9263E50DA22DE04FA
:104E4000D8A4120020EE1AF03D50D9263E50DA22A6
:104E5000E751DE5CE851DE58D8A005D0E7C0F2F09B
:104E6000E8C0F3F00AD020EE1AF03D50D9263E50AB
:104E7000DA22DECFF2F0DDCFF3F020EE20F03D506D
:104E8000D9263E50DA22DECF13F0DDCF14F0F2C087
:104E900015F0F3C016F0F5ECB2F020EE20F03D5026
:104EA000D9263E50DA22DECFE9F0DDCFEAF000016C
:104EB000F251E927F351EA2320EE20F03D50D926A4
:104EC0003E50DA22E9C0DEFFEAC0DDFF20EE1AF034
:104ED0003D50D9263E50DA22DECFE9F0DDCFEAF0B0
:104EE000F2C0EBF0F3C0ECF0EB1FEC1FEB4BEC2B44
:104EF000E951EB27EA51EC2320EE1AF03D50D92678
:104F00003E50DA22EBC0DEFFECC0DDFF20EE08F001
:104F10003D50D9263E50DA22DECFE9F0DECFEAF06E
:104F2000DECFEBF0DECFECF0F251E925ED6FF3517F
:104F3000EA21EE6F000EEB21EF6F000EEC21F06F17
:104F400020EE0CF03D50D9263E50DA22EDC0DEFFB7
:104F5000EEC0DEFFEFC0DEFFF0C0DEFF20EE38F077
:104F60003D50D9263E50DA22100EDF6E20EE2CF096
:104F70003D50D9263E50DA22010EDF6E3DC0A8F02A
:104F80003EC0A9F061EC8DF020EE2CF03D50D9260A
:104F90003E50DA22000EDF6E010E0001F16F1200AA
:104FA000000E136E000E146ECAECB2F013C0B2F015
:104FB00014C0B3F015C0B4F016C0B5F00301085129
:104FC0000001B25D030109510001B35903010A5107
:104FD0000001B459B551800AB16F03010B51800A29
:104FE0000001B159D8B065D073D0040E0201B16F81
:104FF000000EB26F000EB36F000EB46F010E36D00C
:10500000020EB119B211B311B411D8A403D0020E1B
:105010004D6F05D0B107000EB25BB35BB45B020EFF
:10502000B519B611B711B811D8A402D0030E1ED00D
:10503000B507000EB65BB75BB85B4AD01BECB0F0AF
:105040000009D8B445D00A0E0201B16F000EB26F4C
:10505000000EB36F000EB46FFF0EB56FFF0EB66F8C
:10506000FF0EB76F7F0EB86F000E1FD04D6F30D0A0
:1050700093ECB7F00009D8B42BD01E0E0201B16F2B
:10508000000EB26F000EB36F000EB46F0F0EB56F4F
:10509000000EB66F000EB76F000EB86F030E4C19FE
:1050A000D8A402D0020E01D0010E4C6FA7D7000E7B
:1050B000DDD702014D51000AD8B497D7010AD8B400
:1050C0009FD7030AD8B4BAD7010AD8B4D1D7EFD73B
:1050D000010E0001B2250301086F000E0001B3218B
:1050E0000301096F000E0001B42103010A6F000ED5
:1050F0000001B52103010B6F1200000E196E0201B1
:1051000065390F0B176E186AD89017361836D89075
:1051100017361836EC0E17241B6EFF0E18201C6E67
:105120001B501C10D8B48AD0020EC46F180EC36F67
:1051300066B375D07DD037ECB6F01A6E65D01B50D3
:105140001C10D8B459D01BC013F01CC014F046EC8E
:10515000B5F0000E1C6E000E1B6E4ED01C5004E10C
:10516000030E1B5CD8A04AD037ECB6F01A6E040EC2
:105170001A18D8A443D069ECB4F013C0C3F214C019
:10518000C4F2FD0E1B241B6EFF0E1C201C6EB50E00
:105190000201C35D050EC459D8A02ED0050EC46F00
:1051A000B40EC36F29D0196E3AD037ECB6F01A6E30
:1051B0001B06D8A01C06010E1A6420D01A50FE0F40
:1051C0001A6E1A50176E186A17501B5C18501C582C
:1051D000D8A014D01AC013F0146A46ECB5F01A50D7
:1051E000176E186A171E181E174A182A1B50172404
:1051F0001B6E1C5018201C6E010ED5D7000E1C6EA5
:10520000000E1B6E000ECFD71A50000AD8B497D7E5
:10521000010AD8B404D0030AD8B4A0D7C6D71B0655
:10522000D8A01C061B2887E11C28D8B409D083D736
:105230001BC013F01CC014F046ECB5F0010E196E43
:105240001950120015C01FF016C020F0216A226A02
:1052500016D0000E246E000E236E85ECB7F0246E7F
:1052600085ECB7F0236E23501F2624502022000E19
:105270002122000E2222020E135E000E145A145038
:10528000E8E1020E135CD8B0E4D713501410D8B480
:105290003BD0000E246E000E236E85ECB7F0246E1A
:1052A000000E236E23501F2624502022000E2122A0
:1052B000000E222229D01FC017F020C018F021C0F4
:1052C00019F022C01AF0110E05D0D8901A321932F6
:1052D00018321732E82EF9D7FF0E1F141B6EFF0E7F
:1052E00020141C6E000E21141D6E000E22141E6E62
:1052F00017501B241F6E18501C20206E19501D20A3
:10530000216E1A501E20226E1FC017F020C018F008
:1053100021C019F022C01AF0110E05D0D8901A320F
:10532000193218321732E82EF9D717501810191001
:105330001A10D8A4C0D71FC017F020C018F021C081
:1053400019F022C01AF0171E181E191E1A1E17C0B7
:105350001FF018C020F019C021F01AC022F01FC0A1
:1053600013F020C014F0120020EE02F01350D926E2
:105370001450DA22DE6ADE6ADE6ADD6A20EE06F0AA
:105380001350D9261450DA22000EDE6E000EDD6EA8
:1053900020EE10F01350D9261450DA22DE6ADE6AAD
:1053A000DE6ADD6A20EE14F01350D9261450DA229A
:1053B000DE6ADE6ADE6ADD6A20EE08F01350D92666
:1053C0001450DA22DE6ADE6ADE6ADD6A20EE0CF054
:1053D0001350D9261450DA22DE6ADE6ADE6ADD6AEC
:1053E00020EE18F01350D9261450DA22000EDE6E8B
:1053F000000EDD6E20EE33F01350D9261450DA2261
:10540000000EDE6E000EDD6E20EE35F01350D92654
:105410001450DA22000EDE6E000EDD6E20EE37F044
:105420001350D9261450DA22000EDF6E20EE38F029
:105430001350D9261450DA22000EDF6E13C0D9FFA4
:1054400014C0DAFF000EDE6E000EDD6E20EE2AF0D4
:105450001350D9261450DA22000EDE6E000EDD6ED7
:1054600020EE2CF01350D9261450DA22000EDF6EF5
:1054700020EE39F01350D9261450DA22040EDF6ED4
:105480001200000E0001B46F000EB36F000EB26F79
:10549000A8510201001977E10001A9510201011987
:1054A00072E10001AA51020102196DE10001AB5144
:1054B00002010319D8A41200ACC031F0ADC032F023
:1054C000AEC033F0AFC034F0010E356EB1EC9FF0DA
:1054D0000001B46FB405D8A41200030E146E030EBD
:1054E000136E4FECB7F0000E146E000E136E4FECFF
:1054F000B7F0000E136E000E146E000E156E000E47
:10550000166ED1ECB6F071ECB7F013C015F014C004
:1055100016F076ECB7F0140E0001B025196E000EEF
:10552000B1211A6E64ECADF0000E266E220E256ECF
:10553000180E0001B025276E000EB121286E000E56
:105540002A6E000E296E91ECACF025C0B2F026C098
:10555000B3F0B20E136E000E146E000E166E020E35
:10556000156E000E186E240E176EB7ECB1F0180E03
:105570000001B025376E000EB121386EAEECAEF0F2
:105580000001B46F12001200000E0001736F6FEC87
:10559000B6F013C076F014C077F000017651706F4A
:1055A0006F6B76C071F077C072F072C071F0726B81
:1055B000FF0E7117000E72176F517111766F7051D7
:1055C0007211776F760E136E000E146E000E166E4B
:1055D000020E156E000E186E260E176EB7ECB1F0A7
:1055E00000017651706F6F6B76C071F077C072F00A
:1055F00072C071F0726BFF0E7117000E72176F514F
:105600007111766F70517211776F110E7625746F6C
:10561000000E7721756F000E266E1A0E256E080E8D
:105620007625276E000E7721286E74C029F075C08C
:105630002AF091ECACF025C074F026C075F00001A2
:1056400074517511D8A402D074697569740E136E03
:10565000000E146E000E166E020E156E000E186E01
:10566000280E176EB7ECB1F076C037F077C038F07F
:10567000AEECAEF00001736F1200000E0001BF6FC0
:10568000C00E136E000E146E000E166E040E156E14
:10569000F5ECB2F0000120EE10F0B951D926BA5164
:1056A000DA22DE2832E1DE2830E1DE282EE1DE28B3
:1056B000D8B412002AD0B9C0A8F0BAC0A9F05BECE7
:1056C000A6F00001BF6F1200000E146E040E136EE0
:1056D00046ECB5F0B9C013F0BAC014F0000E166E67
:1056E000140E156EF5ECB2F0B9C0D9FFBAC0DAFFEE
:1056F0000001DF500F0B050AD8A4120069ECB4F0CA
:1057000013C050F214C051F212000001C051BC6F1E
:10571000BB6BC0C0BDF0C1C0BEF0BEC0BDF0BE6BB3
:10572000FF0EBD17000EBE17BB51BD13BC51BE13FB
:10573000BE51030AD8B404D00B0AD8A4120005D075
:10574000BD51030AD8A41200BFD7BD51000AD8B476
:10575000B2D72A0AD8B4AFD7D60AD8A41200ABD78A
:10576000000E176E000E186E13501410D8B41200ED
:105770004850D8B4120013C017F014C018F020EE2F
:1057800008F01750D9261850DA22DE50DE10D8A4BF
:1057900018D020EE06F01750D9261850DA22DECFA6
:1057A00043F0DDCF44F043504410D8B40AD020EE8B
:1057B00008F04350D9264450DA22000EDE6E000E67
:1057C000DD6E20EE06F01750D9261850DA22DE5092
:1057D000DE10D8A418D020EE08F01750D9261850A3
:1057E000DA22DECF45F0DDCF46F045504610D8B482
:1057F0000AD020EE06F04550D9264650DA22000E97
:10580000DE6E000EDD6E17C0D9FF18C0DAFF000E85
:10581000DE6E000EDD6E20EE06F01750D926185011
:10582000DA22000EDE6E000EDD6E20EE08F017505C
:10583000D9261850DA22000EDE6E000EDD6E480604
:105840001200000E206E000E216E000E226E000E61
:10585000236E79C224F07AC225F07BC226F07CC286
:1058600027F07DC228F07EC229F07FC22AF080C2D4
:105870002BF076C22CF0000E2D6E13C02EF014C04B
:105880002FF00C0E1F6ED8901F301F6E240E1D6E51
