:020000040000FA
:0600000082EF00F0120087
:020006000000F8
:08000800DACFE4FFE652E552F5
:06001000E5CFDAFF11004C
:020016001200D6
:08001800D8CFE4FFE0CFE4FFC4
:10002000E46EDACFE4FFE652E552E5CFDAFFE550C1
:0A003000E5CFE0FFE5CFD8FF100098
:06003A00060EF66E000E3A
:10004000F76E000EF86E0F010900F550056F0900FC
:10005000F550066F03E1056701D03DD00900F5506A
:10006000006F0900F550016F0900F550026F09009B
:100070000900F550E96E0900F550EA6E0900090023
:100080000900F550036F0900F550046F09000900DD
:10009000F6CF07FFF7CF08FFF8CF09FF00CFF6FF35
:1000A00001CFF7FF02CFF8FF0F01035302E1045322
:1000B00007E00900F550EE6E0307F8E20407F9D7F0
:1000C00007CFF6FF08CFF7FF09CFF8FF0F010507AD
:0800D000000E065BBFD7120011
:0800D800800EF36E00EE00F053
:1000E0000E0E07D8600EF36E0FEE00F00F0E01D863
:1000F0001200EA6002D0EE6AFCD7F350E960120009
:04010000EE6AFCD7D0
:0C0104001DEE00F02DEE00F0F86A019CEA
:100110001DEC00F00BEC00F090EC00F0FBD71200AF
:10012000D0B205D0D0829EEC00F09CEC00F09FECA9
:0801300000F09DEC00F0FFD788
:04013800120012009F
:04013C00120012009B
:020000040001F9
:01FFF80020E8
:01FFF900F413
:01FFFA00C541
:01FFFB00FF06
:01FFFD00F70C
:00000001FF
