:020000020000FC
:100000001CC01BC01AC00DC018C017C013C015C03B
:1000100014C013C012C011C010C00FC00EC00DC05C
:100020000CC008AD00B502A901B503A901E001A902
:1000300008A51895979A969A189508ED0CBF00E0B8
:1000400007BF08ED0CBF05E006BF08ED0CBF0CE0D4
:1000500001BF0EE20DB90BB711271BBF00FF04C093
:10006000AA27BB27B5ADB2AD0AE105BF03E008B9C9
:1000700000E401B908E007B902E006B90EEF05B9DE
:1000800000E803BD01E003BD0BE000A9002701A9C2
:1000900000E109B901E00AB9789463C033270AA3E3
:1000A000300F0BAB0DA3300F0CAB03A5300F0DAB16
:1000B00002A525A520FB01F90370300F232F2295FF
:1000C000320F330F330F032B0F730AAB089522A5A2
:1000D00020FB00F902F904F925A520FB01F903F939
:1000E00005F92CE002270F730AAB86E001C08EE110
:1000F000F0E0EAE521E030E018D02EE133E015D061
:1001000036E076E0619167950BD08A9541F07A955B
:1001100037E000000000B9F739E00000F2CF0895A1
:1001200010F024E102C029E20000231B2A95F1F718
:10013000329A00003298089531980A95F1F7319A71
:10014000089574D0002700AD01AD15E028A139A1B4
:1001500033D103E059D03CD1A1DF03C067D0C7DF62
:100160002AC0A89500A1083030F041F10B3068F4A6
:10017000093001F10DC0043028F019F3063089F17F
:10018000D8F127C0013061F3E9CF09E03DD0E9CFD4
:100190004DD0002700AD01AD15E028A139A10CD14B
:1001A0000CE30A950000E9F70EE1C6DF11D18FDFFD
:1001B00035D0D7CF3BD008E027D0D3CF37D0F0E031
:1001C000EAE5A1D013E028A139A1C2D007E01CD0F4
:1001D000C8CF2CD028A139A1BBD006E015D004D1BE
:1001E000C0CF24D0F0E0EDE58ED012E028A139A1F7
:1001F000AFD005E009D0B5CF19D028A139A1A8D03A
:1002000004E002D0F1D0ADCF209BFECF00A905A520
:10021000003009F408950AE000A90895209BFECF5C
:1002200005A5003011F409E000A908954AD000E2C4
:100230000BB900E001A9659A01A10023E9F36598D3
:1002400082A193A18051904088A999A982A193A1EC
:1002500064A175A184A995A9861B970B9B3010F00A
:10026000983110F0002727C086A997A99695879501
:100270008AA99BA9682F792F969587958CA99DA906
:10028000680F791F64AB75AB682F792F96958795AA
:100290008EA99FA9680F791F66AB77AB9695879556
:1002A0009695879580AB91AB6AA17BA1680F791F6A
:1002B00068AB79AB01E0002309F00895209BFECFE5
:1002C000B5CF05B507FD08C000B501B50C1B00335F
:1002D000C8F0BB27B5AD089500E805BD0AB30BB360
:1002E000DC2FC02F0D1BD02F0A1BAD2F40F0033089
:1002F00040F4B395B33030F001E005AD08950E3F02
:10030000C0F7BB2708950027019301930193E350A1
:10031000F040089510BB5FBB4EBB08E001BB949A50
:1003200000E106BD949BFECF6FB100E102BB002748
:1003300006BD862F67D06081680F61936081691F59
:10034000619300276081601F6193E350F04008953E
:100350004EA15FA1420F531FDDDF4CA15DA1420FF3
:10036000531FD8DF46A357A3420F531FD3DF08956F
:1003700010BB5FBB4EBB002701BB949A00E106BDDA
:10038000949BFECF8EB19FB100E102BB002706BD5A
:1003900000A5080F00AD01A5090F01AD0895979ABA
:1003A00001E000BB8B9A949A969A949BFECF0FB172
:1003B00003AD00E102BB089540A351A3420F531FB8
:1003C000D7DFEDDF48A359A3420F531FD1DF0895B4
:1003D00003E071A560A5769567950A95E1F76058E9
:1003E0006627661F62AD089503E061917191819166
:1003F0008695779567950A95D9F70ED0E350F0402A
:1004000040830895992778E0869508F4960F97958C
:1004100087957A95D1F7089544275527882790E442
:10042000242F352F280F391F5695479562177307CC
:1004300020F0480F591F621B730B96958795969570
:0C0440008795882369F7992359F70895E0
:0207FE0034CCF9
:00000001FF
