:020000040000FA
:0600000085EF75F012000F
:02000600FFFFFA
:06000800BEEF6EF01200D5
:02000E000000F0
:020010000000EE
:02001200FEFEF0
:020014000000EA
:020016000000E8
:0600180061EF6EF0120022
:02001E000C00D4
:100020004CEB000072040000010000008DCD0000C8
:10003000710400000100000049EB000065040000AD
:100040000300000045EB00005E0400000400000017
:10005000160000006E040000020000003CEB0000EF
:10006000F703000009000000978C000070040000F6
:100070000100000032EB0000ED0300000A00000068
:10008000140000006C0400000200000012000000D8
:100090006A040000020000000E0000005A04000084
:1000A00004000000060000006804000002000000D8
:1000B0000201455104016A5D01E140D0FE0E6A5D16
:1000C0001BE01C0EE66EE66A290EE66E020EE66E78
:1000D0006A511C0DF3CF14F0F4CF15F0760E1426F0
:1000E000030E152214C0E6FF15C0E6FF34EC6DF0D8
:1000F000166E060EE15E165045C26AF4FE0E02014F
:10010000455D01E11BD01C0EE66EE66A45511C0DF3
:10011000F3CF14F0F4CF15F0760E1426030E15224B
:1001200014C0E6FF15C0E6FF290EE66E020EE66E6D
:1001300034EC6DF0166E060EE15E165012000401EE
:100140006A516B5D01E14FD0FE0E6B5D32E0270E10
:100150000201C56FC66B0201010EC46F0201020EDF
:10016000C26F020EC36F04016B511C0DF3CFE9FF88
:10017000F4CFEAFF760EE926030EEA221B0EE926EB
:10018000000EEA22EFCFC1F26B511C0DF3CFE9FF55
:10019000F4CFEAFF760EE926030EEA22EECFBFF295
:1001A000EFCFC0F20201270EBF5F000EC05B1AEC5A
:1001B00022F06AC46BF4270E0201C56FC66B44C2FD
:1001C000C4F229C2C2F22AC2C3F20201C25F000E07
:1001D000C35B0201010EC16F0201020EBF6F020E6E
:1001E000C06F1AEC22F012000C017A0E1D6F1B0E6C
:1001F0001E6F0201005101110FE1E4EC55F006C041
:1002000000F207C001F2FF0E02010017070E0117EE
:10021000000E0027040E01233C0EE66EE66AE66A35
:10022000000EE66E030EE66E82EC6DF0146E050EA7
:10023000E15E14500C01156B146B1451146E156AA9
:10024000020E145C000E155801E326D114CC45F2C1
:100250002FDF260E146EEB0E156E000E166E14CCEC
:1002600017F0186A196A060E0C6E0D6A0E6A17C02E
:1002700007F018C008F019C009F0F4EC73F004C0DE
:1002800017F005C018F006C019F014501724F36ECB
:1002900015501820F46E16501920F86EF4CFF7FFA1
:1002A000F3CFF6FFF62A000EF722F8220800F5CF6A
:1002B0001CFC260E146EEB0E156E000E166E14CC82
:1002C00017F0186A196A060E0C6E0D6A0E6A17C0CE
:1002D00007F018C008F019C009F0F4EC73F004C07E
:1002E00017F005C018F006C019F014501724F36E6B
:1002F00015501820F46E16501920F86EF4CFF7FF41
:10030000F3CFF6FF020EF626000EF722F8220900C0
:10031000F5CF16FC0A00F5CF17FC260E146EEB0E77
:10032000156E000E166E14CC17F0186A196A060EB8
:100330000C6E0D6A0E6A17C007F018C008F019C0DD
:1003400009F0F4EC73F004C017F005C018F006C013
:1003500019F014501724F36E15501820F46E16502F
:100360001920F86EF4CFF7FFF3CFF6FF040EF62650
:10037000000EF722F8220900F5CF18FC0A00F5CF8D
:1003800019FC0C011C5101E086D01DCC1AFC1ECCBE
:100390001BFC270E176A1625166E17511722010E21
:1003A0001626000E172216501825146E1750192104
:1003B000156E010E1426000E152214501D2715501F
:1003C0001E231DCC14F01ECC15F0166A176AD880B7
:1003D000FE0E14541E0E1554000E1654000E175423
:1003E00001E2EFD71CCC44F2270E0C011A250201C2
:1003F000296F000E0C011B2102012A6F29510C01EB
:10040000162502012B6F2A510C01172102012C6FB6
:10041000010E2B27000E2C232B510C011825020155
:100420002D6F2C510C01192102012E6F0D0E3F6F03
:10043000409785DE260E146EEB0E156E000E166EBE
:1004400014CC17F0186A196A060E0C6E0D6A0E6A43
:1004500017C007F018C008F019C009F0F4EC73F0E9
:1004600004C017F005C018F006C019F01450172486
:10047000F36E15501820F46E16501920F86EF4CF54
:10048000F7FFF3CFF6FF0800F5CF28F231EC18F0B4
:100490000C01142BD2D6FFD712000C01026B0251B3
:1004A000146E156A020E145C000E155801E3CAD0D2
:1004B00002CC45F2FDDD0D0E02013F5D01E0BFD033
:1004C0003EDE02014D51285D01E0B9D0180E256FC6
:1004D000020E266F4A510CE14BC212F24CC213F2CB
:1004E0004087040E3F6F4BC242F24CC243F2A4D08D
:1004F000000E005D040E015906E3880ED8800055F9
:10050000130E015503E2006B040E016F00C212F2DC
:1005100001C213F2002B000E01234BC210F24CC299
:1005200011F212EC73F006C037F207C038F208C0BF
:1005300039F209C03AF2020140894A51040A3DE009
:10054000070A18E0020A03E0030A01E075D046C278
:1005500018F247C219F248C21AF249C21BF2020E3F
:100560004A5D02E0000E01D0010E2495E8B024851A
:100570003F6B62D048514625166E49514721176E90
:1005800016504B25146E17504C21156E145012192D
:10059000426F15501319436F46C218F247C219F241
:1005A00048C21AF249C21BF2276B270E026F036B77
:1005B000046B056B020E3F6F3FD046C2E9FF47C296
:1005C000EAFF020EE926000EEA22EECF18F0EFCF86
:1005D00019F046C2E9FF47C2EAFF1850EE24166E32
:1005E0001950EE20176E16504B25146E17504C21E3
:1005F000156E14501219426F15501319436F0A0EDD
:10060000E66EE66A46C2E6FF47C2E6FF180EE66EF1
:10061000020EE66E34EC6DF0146E060EE15E1450C0
:100620000201050E3F6F0201010EAE6F0201020EC4
:10063000AD6FE6EC11F000D00C01025105D00C01B9
:10064000022B2DD7FE0E00D0120002014E51146E67
:10065000156A020E145C000E155802E3010E0BD051
:100660004EC245F225DD020141A903D04199010E98
:1006700002D0000E00D0120002014F51146E156A14
:10068000020E145C000E155802E3000E0BD04FC290
:1006900045F20EDD070E02013F5D02E0000E01D0C3
:1006A000010E00D0120002015051146E156A020EA4
:1006B000145C000E155801E363D050C245F2F8DC1B
:1006C00033C235F234C236F202013F51080A4EE01D
:1006D000010A4CE0050A4AE0020A45E0050A2DE05D
:1006E0000D0A15E0010A13E0070A0EE0020A0CE009
:1006F000010A0AE0060A08E0040A01E037D0DAEC51
:100700005AF031EC18F03CD031EC18F039D002013D
:10071000010EAE6F0201110EAD6FE6EC11F0020199
:100720001451151101E106D00E512F1902E10F519C
:100730003019EDE1080E3F6F23D00201010EAE6FBC
:100740000201110EAD6FE6EC11F00201145115110A
:1007500001E106D00E512F1902E10F513019EDE1E0
:100760000C0E3F6F0DD00D0E3F6F0AD00201AE6B25
:100770000201140EAD6FE6EC11F031EC18F000D070
:10078000120002015151146E156A020E145C000E23
:10079000155801E308D051C245F28ADC02014097A6
:1007A00051C250F280DF120002015251146E156ADC
:1007B000020E145C000E155803E3F36AF46A22D0AB
:1007C00052C245F275DCBBDC0A0EE66EE66A180E14
:1007D000E66E020EE66E530EE66E020EE66E34EC28
:1007E0006DF0146E060EE15E145010C25DF211C27F
:1007F0005EF2530E146E020E156E14C0F3FF15C098
:10080000F4FF00D0120002015F51146E156A020E4F
:10081000145C000E155801E313D05FC245F248DCAA
:100820008EDC02010E512F1902E10F51301908E040
:100830000201010EAE6F0201100EAD6FE6EC11F079
:10084000120002016051146E156A020E145C000E53
:10085000155803E3F36AF46A3ED060C245F228DC1F
:100860003FC245FC070E0C01455D06E00B0E455DE1
:1008700003E0F36AF46A2FD0020131512F5D325147
:1008800030591BE329512B5D166E2C512A55176EDA
:100890001606000E175A31512F5D186E3051325521
:1008A000196E1850165C146E19501758156E14C036
:1008B000F3FF15C0F4FF0FD00ED02F51315D146E31
:1008C00032513055156E1406000E155A14C0F3FF40
:1008D00015C0F4FF00D0120002016151146E156AB8
:1008E000020E145C000E155802E3000E74D061C2B3
:1008F00045F258EC00F061C260F2A3DFF3CF00FCD8
:10090000F4CF01FC0C010051011103E1000E63D092
:1009100008D0010E001901E1015103E161C25FF24B
:1009200072DF02014151010B14E129512B5D146E5C
:100930002C512A55156ED890153214320C010051E5
:10094000145C0151155805E361C25FF25CDF0201DE
:100950004181010E0201C56FC66B0201C46F020125
:10096000620EC26F020EC36F44C2C1F22FC2BFF249
:1009700030C2C0F21AEC22F002012F2B000E3023FD
:100980002B512F5D2C51305904E329C22FF22AC27A
:1009900030F20C01010E001901E1015104E161C2C4
:1009A0005FF231DF16D0020140BB13D0408B25EC43
:1009B00073F006C014F007C015F0166A176A060E29
:1009C0001426000E15221622172214C03BF215C061
:1009D0003CF2010E00D012000C01A86BA96B0201C1
:1009E0006351146E156A020E145C000E155803E371
:1009F000F36AF46AC2D063C245F258EC00F063C2F5
:100A000060F21FDFF3CFA6FCF4CFA7FC0C01A651C8
:100A1000A71106E163C25FF2F6DEF36AF46AADD0B5
:100A2000A6CCA4FCA7CCA5FCA6510201665D0C01D6
:100A3000A7510201675904E266C2A4FC67C2A5FC83
:100A40004151010B14E129512B5D146E2C512A5593
:100A5000156ED890153214320C01A651145CA751B2
:100A6000155805E363C25FF2CEDE02014181020147
:100A70002F510C01A425146E020130510C01A52147
:100A8000156E02012B51145C2C5115582DE32F517A
:100A90002B5D0C01A86F020130512C590C01A96F7C
:100AA000A8CCC5F2A9CCC6F20201010EC46F64C283
:100AB000C2F265C2C3F244C2C1F22FC2BFF230C259
:100AC000C0F21AEC22F00C01A851020164270C01BB
:100AD000A951020165230C01A851A45FA951A55B8E
:100AE00029C22FF22AC230F2A4CCC5F2A5CCC6F29C
:100AF0000201010EC46F64C2C2F265C2C3F244C2F5
:100B0000C1F22FC2BFF230C2C0F21AEC22F00C01C7
:100B1000A45102012F270C01A551020130230C0121
:100B2000A6510201665D0C01A7510201675904E359
:100B300063C25FF268DE15D040BB13D0408B25EC5A
:100B400073F006C014F007C015F0166A176A060E97
:100B50001426000E15221622172214C03BF215C0CF
:100B60003CF20C01A451A825146EA551A921156EC3
:100B700014C0F3FF15C0F4FF00D012000C01166B77
:100B8000176B02016851146E156A020E145C000E98
:100B9000155803E3F36AF46AC5D068C245F258EC0D
:100BA00000F068C260F24DDEF3CF14FCF4CF15FC08
:100BB0000C011451151106E168C25FF224DEF36ADC
:100BC000F46AB0D002014151010B14E129512B5DAF
:100BD000146E2C512A55156ED890153214320C0112
:100BE0001451145C1551155805E368C25FF20BDE11
:100BF0000201418114CC12FC15CC13FC0C011451E0
:100C000002016C5D0C01155102016D5904E26CC2C8
:100C100012FC6DC213FC2F510C011225146E02013F
:100C200030510C011321156E02012B51145C2C5113
:100C3000155830E32F512B5D0C01166F0201305116
:100C40002C590C01176F16CCCDF217CCCEF269C21D
:100C5000CAF26AC2CBF26BC2CCF244C2C9F22FC252
:100C6000C7F230C2C8F27EEC22F016CC14F017CCDA
:100C700015F0166A14500201692715506A231650A0
:100C80006B230C011651125F1751135B29C22FF20F
:100C90002AC230F212CCCDF213CCCEF269C2CAF223
:100CA0006AC2CBF26BC2CCF244C2C9F22FC2C7F205
:100CB00030C2C8F27EEC22F00C01125102012F2743
:100CC0000C011351020130230C01145102016C5D1F
:100CD0000C01155102016D5904E368C25FF293DD06
:100CE00015D040BB13D0408B25EC73F006C014F038
:100CF00007C015F0166A176A060E1426000E152294
:100D00001622172214C03BF215C03CF20C011251FE
:100D10001625146E13511721156E14C0F3FF15C05C
:100D2000F4FF00D012006FC2E6FF70C2E6FFEBECEA
:100D30006DF0E552E552F3CF66F2F4CF67F26FC281
:100D400064F270C265F26EC263F246DE02016F5158
:100D5000F324146E7051F420156E14C0F3FF15C007
:100D6000F4FF00D0120072C2E6FF73C2E6FF74C245
:100D7000E6FFF9EC6DF0E552E552E55207C06CF282
:100D800008C06DF272C269F273C26AF274C26BF289
:100D900071C268F2F3DEF3CF17F0F4CF18F0196ADE
:100DA000020172511724146E73511820156E74517C
:100DB0001920166E14C007F015C008F016C009F00F
:100DC00000D0120002017551146E156A020E145CF7
:100DD000000E155803E3F36AF46A25D075C245F294
:100DE00058EC00F0020129512B5D0C01026F020149
:100DF0002A512C590C01036F010E025F000E035B98
:100E000075C260F21EDDF3CF00FCF4CF01FC0C01D3
:100E10000051025D146E03510155156E14C0F3FFAD
:100E200015C0F4FF00D0120076C277F218D8F3CFC5
:100E300014F0F4CF15F01450151010E076C245F2FE
:100E400058EC00F033C235F234C236F20201010E22
:100E5000AE6F0201100EAD6FE6EC11F01200020150
:100E60007751146E156A020E145C000E155803E3D8
:100E7000F36AF46A31D077C245F258EC00F002010F
:100E80003551335D365134590CE33551335D146EB1
:100E900034513655156E14C0F3FF15C0F4FF1CD045
:100EA0001BD035512D5D166E2E513655176E010E25
:100EB0001626000E17222B51335D186E34512C5517
:100EC000196E16501824146E17501920156E14C080
:100ED000F3FF15C0F4FF00D0120078C277F2BFDF35
:100EE000F3CF00FCF4CF01FC0C010051011102E131
:100EF000000E48D078C245F258EC00F0020179515A
:100F00007A1112E0010E0201C56FC66B44C2C4F231
:100F100035C2C2F236C2C3F20201C16F79C2BFF25A
:100F20007AC2C0F21AEC22F00201352B000E3623F1
:100F300035512D5D36512E5904E22BC235F22CC2AB
:100F400036F20C01010E001901E1015103E1020129
:100F5000418516D0020140BB13D0408B25EC73F0C5
:100F600006C014F007C015F0166A176A1F0E142683
:100F7000000E15221622172214C03BF215C03CF2B7
:100F8000010E00D012000C01026B036B7BC277F2E2
:100F900066DFF3CF00FCF4CF01FC0C01005101111E
:100FA00003E1F36AF46AA1D07BC245F258EC00F089
:100FB00002017E510C01005D02017F510C010159BB
:100FC00004E200CC7EF201CC7FF2020135517E2595
:100FD000146E36517F21156E14502D5D15502E590B
:100FE00038E235512D5D0C01026F020136512E5948
:100FF0000C01036F010E0227000E032302017C5136
:101000007D111BE002CCC5F203CCC6F244C2C4F28F
:1010100035C2C2F236C2C3F20201010EC16F7CC2F8
:10102000BFF27DC2C0F21AEC22F00C0102510201A3
:101030007C270C01035102017D230C0102510201A6
:101040007E5F0C01035102017F5B2BC235F22CC283
:1010500036F27C517D1113E07EC2C5F27FC2C6F22A
:1010600044C2C4F235C2C2F236C2C3F20201010E5A
:10107000C16F7CC2BFF27DC2C0F21AEC22F0020145
:101080007E5135277F5136230C01025102017E2704
:101090000C01035102017F237E510C01005D146E8F
:1010A000015102017F55156E14507E5D15507F5918
:1010B00002E3418515D040BB13D0408B25EC73F083
:1010C00006C014F007C015F0166A176A1F0E142622
:1010D000000E15221622172214C03BF215C03CF256
:1010E0007EC2F3FF7FC2F4FF00D0120002018051E4
:1010F000146E156A020E145C000E155803E3F36AB1
:10110000F46A21D080C245F258EC00F002012B5164
:101110002D5D0C01026F02012C512E590C01036F41
:1011200080C277F29CDEF3CF00FCF4CF01FC0C010F
:101130000051025D146E03510155156E14C0F3FF8A
:1011400015C0F4FF00D0120002018151146E156A1F
:10115000020E145C000E155803E28451851103E160
:10116000F36AF46AABD081C245F258EC00F081C258
:1011700077F275DEF3CF02FCF4CF03FC0201865157
:101180008425146E87518521156E0C011450025D63
:10119000155003590BE2020186510C01025D020158
:1011A000846F87510C0103590201856F020135518B
:1011B00086250C01006F0201365187210C01016F59
:1011C000005102012D5D0C01015102012E590FE267
:1011D0002B512D5D146E2E512C55156E010E1426BB
:1011E000000E152214500C01005F1550015B0C011C
:1011F000005102012D5D0C01046F015102012E59B5
:101200000C01056F010E0427000E05230201845115
:101210000C01045D020185510C01055914E384C2DF
:10122000C5F285C2C6F244C2C4F200CCC2F201CCFF
:10123000C3F20201010EC16F82C2BFF283C2C0F2CB
:101240001AEC22F036D004CCC5F205CCC6F244C26A
:10125000C4F200CCC2F201CCC3F20201010EC16F94
:1012600082C2BFF283C2C0F21AEC22F00C01045118
:101270000201845D0201C56F0C010551020185590F
:101280000201C66F44C2C4F22BC2C2F22CC2C3F226
:101290000201010EC16F020182510C0104250201FD
:1012A000BF6F020183510C0105210201C06F1AECCE
:1012B00022F084C2F3FF85C2F4FF00D0120089C27D
:1012C00086F28AC287F2010E0201846F856B0201E9
:1012D000060E826F0C0E836F88C281F235DF0C011F
:1012E000065100D0120002018B51146E156A020ED5
:1012F000145C000E155803E28E518F1103E1F36A5E
:10130000F46AB2D18BC245F258EC00F08BC277F28E
:10131000A6DD02019051F35C0C01026F02019151B4
:10132000F4580C01036F02018E510C01025D0201A1
:101330008F510C01035903E2F368F46895D102015F
:10134000925193110DE00C0102510201925D0C01CA
:1013500003510201935904E292C202FC93C203FCBE
:10136000355190250C01066F0201365191210C0177
:10137000076F065102012D5D0C01075102012E5924
:101380000FE22B512D5D146E2E512C55156E010E52
:101390001426000E152214500C01065F1550075B31
:1013A00006CC00FC07CC01FC0C01065102012D5DAE
:1013B0000C01046F075102012E590C01056F010E3B
:1013C0000427000E052390C206FC91C207FC8EC2C2
:1013D00008FC8FC209FC8CC20AFC8DC20BFC020106
:1013E0008CC2E9FF8DC2EAFF8C2B8D23EFCF0DFC61
:1013F0000C010F6B0201945109E0610E0C010D5DAF
:1014000005E30D517A0802E3E00E0D270C01200ED2
:101410000E6F0E51045D000E055902E204CC0EFC65
:101420000E51025D000E035902E202CC0EFC0E5179
:101430000201C56FC66B44C2C4F200CCC2F201CC3B
:10144000C3F20201010EC16F0201100EBF6F0C0E3C
:10145000C06F1AEC22F00C010E51146E156A145074
:101460000027155001230E51146E156A1450045FA5
:101470001550055B0451051106E12BC200FC2CC27E
:1014800001FC046905690201945101E181D00C015C
:101490000C6B0E510C5D01E37AD00C51EA6A100F0F
:1014A000E96E0C0EEA22EFCF14F0610E145C13E328
:1014B0000C51EA6A100FE96E0C0EEA22EF507A081E
:1014C0000AE3E00E146E0C51EA6A100FE96E0C0E7E
:1014D000EA221450EF260C51EA6A100FE96E0C0E46
:1014E000EA22EF500D5D33E102018E07000E8F5BA3
:1014F0008E518F1117E10C010851065D166E0751D0
:101500000955176E0C5100011624146E000E172099
:10151000156E010E1426000E152214C0F3FF15C01F
:10152000F4FFA2D08CC2E9FF8DC2EAFF8C2B000E23
:101530008D23EFCF0DFC0C01010E0F6F610E0D5DC1
:1015400005E30D517A0802E3E00E0D271ED008CC0A
:101550008EF209CC8FF20F5118E00ACC8CF20BCC32
:101560008DF202018CC2E9FF8DC2EAFF8C2B000EC6
:101570008D23EFCF0DFC610E0C010D5D05E30D51C8
:101580007A0802E3E00E0D270F6B0C2B82D751D0A7
:101590000C010C6B0E510C5D4CE20C51EA6A100F01
:1015A000E96E0C0EEA22EF500D5D2BE102018E0771
:1015B000000E8F5B8E518F1117E10C010851065DF3
:1015C000166E07510955176E0C5100011624146E42
:1015D000000E1720156E010E1426000E152214C0E1
:1015E000F3FF15C0F4FF40D08CC2E9FF8DC2EAFFC3
:1015F0008C2B000E8D23EFCF0DFC0C01010E0F6F15
:1016000016D008CC8EF209CC8FF20F5110E00ACC24
:101610008CF20BCC8DF202018CC2E9FF8DC2EAFF85
:101620008C2B000E8D23EFCF0DFC0C010F6B0C2BC0
:10163000B1D70E51146E156A1450025F1550035B3A
:1016400002018E510C01025D02018F510C01035900
:1016500003E2F368F46808D00E51146E156A145052
:10166000062715500723D2D6120002019551146E99
:10167000156A020E145C000E155803E299519A1176
:1016800003E1F36AF46ACDD195C245F258EC00F05B
:1016900095C277F22FEC07F002019B51F35C0C012D
:1016A000026F02019C51F4580C01036F0201995121
:1016B0000C01025D02019A510C01035903E2F36827
:1016C000F468AFD102019D519E110DE00C01025151
:1016D00002019D5D0C01035102019E5904E29DC26D
:1016E00002FC9EC203FC35519B250C01066F0201D2
:1016F00036519C210C01076F065102012D5D0C0132
:10170000075102012E590FE22B512D5D146E2E51FF
:101710002C55156E010E1426000E152214500C01C6
:10172000065F1550075B06CC00FC07CC01FC0C01E2
:10173000065102012D5D0C01046F075102012E5963
:101740000C01056F010E0427000E05239BC206FC49
:101750009CC207FC99C208FC9AC209FC96C20AFC0A
:1017600097C20BFC98C20CFC020196C2F6FF962BA6
:1017700097C2F7FF972398C2F8FF98230800F5CF88
:101780000EFC0C01106B02019F5109E0610E0C016F
:101790000E5D05E30E517A0802E3E00E0E270C0100
:1017A000200E0F6F0F51045D000E055902E204CCAC
:1017B0000FFC0F51025D000E035902E202CC0FFC38
:1017C0000F510201C56FC66B44C2C4F200CCC2F215
:1017D00001CCC3F20201010EC16F0201110EBF6FF5
:1017E0000C0EC06F1AEC22F00C010F51146E156A2A
:1017F00014500027155001230F51146E156A145010
:10180000045F1550055B0451051106E12BC200FC75
:101810002CC201FC0469056902019F5101E18BD0D2
:101820000C010D6B0F510D5D01E384D00D51EA6A7F
:10183000110FE96E0C0EEA22EFCF14F0610E145C6A
:1018400013E30D51EA6A110FE96E0C0EEA22EF5014
:101850007A080AE3E00E146E0D51EA6A110FE96E80
:101860000C0EEA221450EF260D51EA6A110FE96EB0
:101870000C0EEA22EF500E5D37E102019907000ECF
:101880009A5B99519A1117E10C010851065D166E89
:1018900007510955176E0D5100011624146E000EE4
:1018A0001720156E010E1426000E152214C0F3FF2A
:1018B00015C0F4FFB6D096C2F6FF962B97C2F7FF7D
:1018C000000E972398C2F8FF98230800F5CF0EFC6E
:1018D0000C01010E106F610E0E5D05E30E517A08CA
:1018E00002E3E00E0E2724D008CC99F209CC9AF23C
:1018F00010511EE00ACC96F20BCC97F20CCC98F269
:10190000020196C2F6FF962B97C2F7FF000E9723AF
:1019100098C2F8FF98230800F5CF0EFC610E0C0169
:101920000E5D05E30E517A0802E3E00E0E27106B00
:101930000D2B78D75BD00C010D6B0F510D5D56E26E
:101940000D51EA6A110FE96E0C0EEA22EF500E5D9E
:101950002FE102019907000E9A5B99519A1117E144
:101960000C010851065D166E07510955176E0D5191
:1019700000011624146E000E1720156E010E142699
:10198000000E152214C0F3FF15C0F4FF4AD096C212
:10199000F6FF962B97C2F7FF000E972398C2F8FF29
:1019A00098230800F5CF0EFC0C01010E106F1CD01F
:1019B00008CC99F209CC9AF2105116E00ACC96F2B2
:1019C0000BCC97F20CCC98F2020196C2F6FF962B44
:1019D00097C2F7FF000E972398C2F8FF98230800DC
:1019E000F5CF0EFC0C01106B0D2BA7D70F51146E09
:1019F000156A1450025F1550035B020199510C01E6
:101A0000025D02019A510C01035903E2F368F46884
:101A100008D00F51146E156A14500627155007236D
:101A2000BED61200A6C294F2A4C292F2A5C293F24C
:101A3000A2C290F2A3C291F2010E02018E6F8F6BCF
:101A40000201A10E8C6F020E8D6FA0C28BF24BDCD7
:101A500000D012000C011C6B1C51146E156A020E92
:101A6000145C000E155801E36CD31CCC45F258EC05
:101A700000F00C011F6B1D6B1E6B02014151020B2C
:101A800003E14151040B0EE06CEC60F000090AE048
:101A90000C01100E1F6F02014151040B01E0010EF9
:101AA0000C011D6F020140AB13D025EC73F0020155
:101AB00006503B5D146E07503C59156E153404E218
:101AC00014500008000E155403E30C01100E1F6F94
:101AD000020140AD13D025EC73F0020106503D5DCC
:101AE000146E07503E59156E153404E21450000868
:101AF000000E155403E30C01100E1F6F0B0E0201B4
:101B00003F5D16E125EC73F0020106503D5D146E59
:101B100007503E59156E153404E214500008000EAB
:101B2000155406E30C01110E1F6F02010C0E3F6FDE
:101B3000040E3F5D01E00AD10C01206B216B030E06
:101B4000205D000E215901E301D120CCE9FF21CC19
:101B5000EAFF140EEA02F3CFEAFFE902F3CFE9FF4E
:101B6000F450EA26000EE926030EEA22100EE926BA
:101B7000000EEA22EE50ED1001E1E8D020CCE9FFA2
:101B800021CCEAFF140EEA02F3CFEAFFE902F3CF19
:101B9000E9FFF450EA26000EE926030EEA22100EB1
:101BA000E926000EEA22EECF14F0EFCF15F0020185
:101BB0004251141802E14351151801E0C2D09FECC4
:101BC00000F00A0EE66EE66A20CCE9FF21CCEAFFBF
:101BD000140EEA02F3CFEAFFE902F3CFE9FFF45073
:101BE000EA26000EE926030EEA22E9CF14F0EACF36
:101BF00015F014C0E6FF15C0E6FF180EE66E020EE3
:101C0000E66E34EC6DF0166E060EE15E165020CCDA
:101C1000E9FF21CCEAFF140EEA02F3CFEAFFE90262
:101C2000F3CFE9FFF450EA26000EE926030EEA227C
:101C30000A0EE926000EEA22EECF10F2EDCF11F2E5
:101C400020CCE9FF21CCEAFF140EEA02F3CFEAFF31
:101C5000E902F3CFE9FFF450EA26000EE926030E6D
:101C6000EA220C0EE926000EEA22EECF0AF2EECFAF
:101C70000BF2EECF0CF2EFCF0DF202010A2B0B2389
:101C80000C230D231A511825166E1B511921176E9E
:101C900016501025146E17501121156E145012197C
:101CA000426F15501319436F0C01120E1F6F020182
:101CB000060E3F6F20CCC5F221CCC6F20201020E07
:101CC000D880C557000EC657140EC603F3CFC6F210
:101CD000C503F3CFC5F2F450C6270201010EC46F4D
:101CE0000C0120250201C26F000E0C01212102010E
:101CF000C36F140EC303F3CFC3F2C203F3CFC2F218
:101D0000F450C327000EC227030EC3230201010EA5
:101D1000C16F140E086E096A20CC0DF021CC0EF0B4
:101D2000D6EC73F006C0BFF207C0C0F2000E02018D
:101D3000BF27030EC0231AEC22F00301386B396B66
:101D400005D00C01202B000E2123F9D60C011F51C8
:101D50000AE01D5102E0000E01D0010E0201AE6F3B
:101D60001FCCADF233DB020140B94ED0070E3F5D10
:101D70004AE112EC73F002013751065C146E3851DF
:101D80000758156E39510858166E3A510958176E92
:101D90000001800E171401E0D1D102014051070B60
:101DA000060815E14051080B01E0010E0C011F6F00
:101DB0001CCC50F253EC03F01CCC50F253EC03F06B
:101DC0000C011F5103E102010E0E3F6FB7D19FECD2
:101DD00000F00201020EAE6F0201100EAD6FF6DAD6
:101DE00012EC73F006C037F207C038F208C039F2BF
:101DF00009C03AF2740E02013727350E3823060E59
:101E00003923000E3A239AD112EC73F002013751B4
:101E1000065C146E38510758156E39510858166E05
:101E20003A510958176E0001800E171401E086D14F
:101E30009FEC00F002013F510C0A01E11ED1060A9D
:101E400001E10CD1030A01E103D1010A01E1F1D062
:101E50000F0A01E1DFD00C0A01E1DCD00D0A01E13B
:101E6000C4D0030A01E1AED0060A01E17BD0010A29
:101E700068E0030A20E0010A01E00ED1D1EC5AF03B
:101E8000000918E00201010E3F6F24A50BD00401E8
:101E90003D6F18C23AF419C23BF41AC23CF40DEC7F
:101EA0005BF008D00401396F18C237F419C238F456
:101EB000EDEC5AF0F1D00401220E3E6F0C0E3F6F94
:101EC00030EC5BF000093CE0DAEC5AF0000924E069
:101ED00022CC18F223CC19F224CC1AF225CC1BF216
:101EE0000201020E3F6F1A511825166E1B5119215F
:101EF000176E16501025146E17501121156E1450C0
:101F00001219426F15501319436F276B270E026F7A
:101F1000036B046B056B14D012EC73F006C037F240
:101F200007C038F208C039F209C03AF2740E020153
:101F30003727350E3823060E3923000E3A233F6B20
:101F4000ABD025EC73F006C03BF207C03CF20401B5
:101F5000180E1F6F020E206F24EC68F00201030EB2
:101F60003F6F9AD004011C0E236F020E246F0401F0
:101F7000180E216F020E226F68EC68F000091AE15A
:101F800025EC73F002013B51065C146E3C5107587E
:101F9000156E1450025D155003590BE2060E275DB5
:101FA00006E2272BD8900237033704370537020E95
:101FB0003F6F72D00C01020E1F6F1D6B0201050EE8
:101FC0003F6F6AD00C01020E1F6F010E1D6F040ED1
:101FD0000201275D09E3040E276F200E026FEF0E4A
:101FE000036F090E046F056B57D0020E275D06E2E2
:101FF0000C01120E1F6F010E1D6F0BD040A706D0F3
:102000000C01140E1F6F010E1E6F03D00C01020E87
:102010001F6F42D0050E275D06E20C01100E1F6FE8
:10202000010E1D6F05D0080E3F6F0C01110E1F6FC2
:1020300033D0050E275D06E20C01110E1F6F010E55
:102040001D6F05D00C01140E1F6F010E1E6F24D0E2
:102050000C01140E1F6F010E1E6F1ED0050E275DA2
:1020600006E20C01100E1F6F010E1D6F05D00C0152
:10207000140E1F6F010E1E6F0FD0050E275D06E2B6
:102080000C01110E1F6F010E1D6F05D00C01140EF7
:102090001F6F010E1E6F00D00C011F514AE01D5131
:1020A00042E00201272BD890023703370437053767
:1020B00031510E5D0C01206F020132510F590C019C
:1020C000216F020131510E5D32510F590BE229513E
:1020D0002B5D146E2C512A55156E14500C012027BF
:1020E0001550212320CC14F021CC15F0166A176A64
:1020F00014500201065F1550075B1650085B17501D
:10210000095B0C012051020114270C01215102012D
:10211000152331C20EF232C20FF20201AE6B1FCC98
:10212000ADF254D906D00201010EAE6F1FCCADF254
:102130004DD90C011E5102E031EC18F00C011C2BA2
:102140008BD4206B216B030E205D000E215901E31F
:1021500099D020CCE9FF21CCEAFF140EEA02F3CF9C
:10216000EAFFE902F3CFE9FFF450EA26000EE92680
:10217000030EEA22100EE926000EEA22EE50ED10C0
:1021800001E180D020CCE9FF21CCEAFF140EEA0265
:10219000F3CFEAFFE902F3CFE9FFF450EA26000E9D
:1021A000E926030EEA22120EE926000EEA22EECFFD
:1021B00016F0EFCF17F016C0E6FF17C0E6FF25ECCC
:1021C00073F0E552E7CF17F0E552E7CF16F016505F
:1021D000065C146E17500758156EDC0ED880145428
:1021E000010E15544AE220CCC5F221CCC6F2020100
:1021F000020ED880C557000EC657140EC603F3CF83
:10220000C6F2C503F3CFC5F2F450C6270201010E92
:10221000C46F0C0120250201C26F000E0C012121A8
:102220000201C36F140EC303F3CFC3F2C203F3CF93
:10223000C2F2F450C327000EC227030EC3230201CB
:10224000010EC16F140E086E096A20CC0DF021CC6E
:102250000EF0D6EC73F006C0BFF207C0C0F2000E5D
:102260000201BF27030EC0231AEC22F00301386BD2
:10227000396B0C012007000E215B0C01202B000E96
:10228000212361D71200A7C2E9FFA8C2EAFFEECF5F
:1022900014FCEECF15FCEECF16FCEFCF17FCA9C255
:1022A000E9FFAAC2EAFFEECF18FCEECF19FCEECF91
:1022B0001AFCEFCF1BFC0C011C6B060E1D6FABC292
:1022C0001EFCACC21FFC1ECC56F31FCC57F331ECE6
:1022D00059F0F3CF1EFCF4CF1FFC0C0E03015E6F10
:1022E0005F6B0301140E5C6F0C0E5D6F58EC59F0C0
:1022F000F3CF20FCF4CF21FC0C01201F211FABC227
:10230000C8F3ACC2C9F362EC62F0F3CF22FCF4CFA5
:1023100023FC0C012251201902E12351211904E070
:1023200089EC60F0010E51D00001F26BF36BC4EC4C
:1023300070F0140E0301D26FD36B0301000ED06F47
:102340000C0ED16FCCEC63F00201000EB36F0C0EDB
:10235000B46F56EC17F00C010C51F00BE842E84258
:10236000E842E842040DF350146E156A140E145E30
:10237000000E155A14C024FC2451146E156A145012
:102380000201AB5DAB6F1550AC59AC6F140EAB5F77
:10239000000EAC5BA7C2B1F2A8C2B2F20201000EFD
:1023A000AF6F0C0EB06FD8DA00090BE0ABC2B7F21A
:1023B000ACC2B8F20201000EB56F0C0EB66FFAECAB
:1023C00018F089EC60F0010E00D012009FEC00F0D4
:1023D0000201ADA102D04187AD91409B409D409F3D
:1023E0004193419541916CEC60F0000901E1FBD70C
:1023F000060E0201AD1504E00C016B6B6C6BFBD09B
:102400000E512F1902E10F51301904E10C016B6BD1
:102410006C6BD9D02F510E5D30510F593FE20E51E8
:102420002F5D0C016B6F02010F5130590C016C6F65
:102430006B510201145D0C016C510201155904E24B
:1024400014C26BFC15C26CFC0C016B510201255DC2
:102450000C016C510201265905E225C26BFC26C213
:102460006CFC41856BCCC5F26CCCC6F244C2C4F2A4
:102470000EC2C2F20FC2C3F20201C16B0201BF0E53
:10248000BF6F150EC06F1AEC22F00C016B510201E8
:102490000E270C016C5102010F2395D00E512B5DBC
:1024A0000C01696F02010F512C590C016A6F6951BF
:1024B00002012F25146E0C016A5102013021156EA4
:1024C0002951145C0C016B6F02012A5115580C0143
:1024D0006C6F6B510201145D0C016C5102011559B6
:1024E00004E214C26BFC15C26CFC0C016B510201BE
:1024F000255D0C016C510201265905E225C26BFCD9
:1025000026C26CFC41850C0169516B5D6A516C59A6
:1025100004E26BCC69FC6CCC6AFC69CCC5F26ACC79
:10252000C6F244C2C4F20EC2C2F20FC2C3F202012A
:10253000C16B0201BF0EBF6F150EC06F1AEC22F007
:102540000C0169516B5D696F6A516C596A6F695111
:102550006A1122E069CCC5F26ACCC6F244C2C4F268
:1025600029C2C2F22AC2C3F20201C16B02010E519A
:102570002B5D146E2C510F55156E166A176ABF0E1F
:102580001426150E1522000E1622172214C0BFF2B3
:1025900015C0C0F21AEC22F00C016B5102010E279B
:1025A0000C016C5102010F232B510E5D2C510F5960
:1025B0000AE329512B5D146E2C512A55156E1450C7
:1025C0000E5F15500F5B020141A715D014510C018D
:1025D0006B1904E1020115510C016C190CE00201A8
:1025E00025510C016B1904E1020126510C016C19F3
:1025F00002E00201AD810C016B516C1104E1030E8C
:102600000201AD1529E00C016B510201145F0C01B0
:102610006C510201155B0C016B516C1102E002015F
:10262000AD870201AEA107D0276BF20E026F9E0E9E
:10263000036F046B056B12EC73F006500201022568
:10264000376F07500321386F08500421396F095044
:1026500005213A6F408938D0AEA31BD0400EE96EF9
:10266000020EEA6EEF50070BE82AF36EF350070BE9
:10267000F36EF46EF80EEF14F310EF6EF4500607DD
:10268000000E075B085B095B010E0C016B6F6C6B46
:102690001BD040A919D0AEB108D0275106E02707BA
:1026A000D890053304330333023312EC73F0065031
:1026B00002010225376F07500321386F08500421AB
:1026C000396F095005213A6F12C247FC13C248FC0A
:1026D00010C249FC11C24AFC06C24BFC07C24CFCAA
:1026E00008C24DFC09C24EFC0AC24FFC0BC250FC92
:1026F0000CC251FC0DC252FC0C01549D549F5391CD
:10270000539353955397ADC254FC596B5A6B6B510D
:10271000020106270C016C5102010723000E082359
:102720000923ADA315D0ADB905D00C014F6B506B8B
:10273000516B526B020124A306D00C014B074C5B7A
:102740004D5B4E5B05D0062B07230823092324830A
:102750000201ADB124813551335D3651345914E352
:102760002B512D5D146E2E512C55156E3551335D48
:10277000166E34513655176E0C011650145C556F99
:1027800017501558566F0DD03351355D0C01556FEC
:102790000201345136590C01566F010E555F000E7F
:1027A000565BBFEC60F0F3CF45FCF4CF46FC0C0168
:1027B000400E455D000E465903E2456B466B04D062
:1027C000400E455F000E465B5551455D56514659DA
:1027D00004E245CC55FC46CC56FC0201470EB36FD3
:1027E0000C0EB46F63DB140E0C016B27000E6C2310
:1027F0005389539B538D539F0201ADA326D0040EE2
:102800000C016B27000E6C23020E5B6F040E5C6FD5
:10281000020E5D6F180E5E6F010E146E530EE96EA0
:102820000C0EEA6EEF50F00BE842E842E842E84254
:1028300014240F0BF36EF46EF346F346F346F3469F
:102840000F0EEF14F310EF6EF45000CF5FFC01CFCA
:1028500060FC02CF61FC03CF62FC18C263FC19C2AA
:1028600064FC1AC265FC1BC266FC0C01676B060E99
:10287000686F6BCC69FC6CCC6AFC69CC56F36ACC93
:1028800057F331EC59F0F3CF69FCF4CF6AFC0C0E2E
:1028900003015E6F5F6B03015F0E5C6F0C0E5D6F7B
:1028A00058EC59F0F3CF57FCF4CF58FC0C01571FEC
:1028B000581F0301970EC06F150EC16F07EC62F031
:1028C0006BCCF0F06CCCF1F00001060EEF6F000164
:1028D000180EED6F020EEE6F50EC70F0140E030147
:1028E000D76FD86B0301470ED56F0C0ED66F04EC73
:1028F00064F00201ADA30BD0040E0301D76FD86BB7
:1029000003015B0ED56F0C0ED66F04EC64F003016F
:10291000AB0EC26F150EC36F15EC62F06BCCC8F333
:102920006CCCC9F362EC62F0F3CF45FCF4CF46FC0B
:102930000301BB0EC06F150EC16F07EC62F0020EF3
:102940000301D76FD86B0301450ED56F0C0ED66F00
:1029500004EC64F0CBEF61F0AFC2E9FFB0C2EAFF74
:10296000020EE926000EEA22EE50ED1002E1000E02
:102970009CD20C01FE0E266FB1C2E9FFB2C2EAFF83
:10298000020EE926000EEA22EECF18F0EFCF19F082
:10299000B1C2E9FFB2C2EAFF1850EE24166E195018
:1029A000EE20176EAFC2E9FFB0C2EAFF1650EE2468
:1029B000146E1750EE20156EAFC2E9FFB0C2EAFFE9
:1029C000020EE926000EEA221450EE18276F155069
:1029D000EE18286F256B2551146E156A020E145CD3
:1029E000000E155867E225CC45F258EC00F00D0EAC
:1029F00002013F5D02E15BD024D0040E3F5D16E191
:102A0000AFC2E9FFB0C2EAFF020EE926000EEA22D9
:102A1000EECF14F0EFCF15F01450421902E115502B
:102A2000431902E125CC26FC42D00BD00C012751E2
:102A30000201421904E10C0128510201431901E08D
:102A400036D09FEC00F0AFC2E9FFB0C2EAFF020E41
:102A5000E926000EEA22EECF14F0EFCF15F00201C6
:102A60001251141802E11351151821E1AFC2E9FF08
:102A7000B0C2EAFFEECF16F0EFCF17F010511618E4
:102A800002E11151171813E1B1C2E9FFB2C2EAFF26
:102A9000EE50181909E1EE50191906E1EE501A1915
:102AA00003E1EE501B1900E102E1010EFED10C0121
:102AB000252B91D7FE0E265D39E026CC45F258EC49
:102AC00000F09FEC00F0FE0E0C01265D2FE027CCFD
:102AD00042F228CC43F20A0EE66EE66AB1C2E6FF85
:102AE000B2C2E6FF180EE66E020EE66E34EC6DF032
:102AF000146E060EE15E1450AFC2E9FFB0C2EAFFE9
:102B0000EECF10F2EDCF11F2AFC2E9FFB0C2EAFF93
:102B1000020EE926000EEA22EECF12F2EDCF13F2FA
:102B200029C20EF22AC20FF2010EBFD1AFC2E9FFD5
:102B3000B0C2EAFF0D0EE926000EEA22EF50020BAA
:102B400002E1000EB2D103013851391102E0000E4A
:102B5000ACD10C01296B2A6B030E295D000E2A599A
:102B600001E3BED029CCE9FF2ACCEAFF140EEA0229
:102B7000F3CFEAFFE902F3CFE9FFF450EA26000EB3
:102B8000E926030EEA22100EE926000EEA22EE5094
:102B9000ED1001E1A5D029CCE9FF2ACCEAFF140E03
:102BA000EA02F3CFEAFFE902F3CFE9FFF450EA26A5
:102BB000000EE926030EEA22100EE926000EEA2294
:102BC000EECF14F0EFCF15F0AFC2E9FFB0C2EAFFCD
:102BD000020EE926000EEA22EECF16F0EFCF17F034
:102BE0001650141802E11750151801E074D029CCC2
:102BF000E9FF2ACCEAFF140EEA02F3CFEAFFE9026A
:102C0000F3CFE9FFF450EA26000EE926030EEA228C
:102C10000A0EE926000EEA22EECF14F0EFCF15F0EF
:102C2000AFC2E9FFB0C2EAFFEECF16F0EFCF17F068
:102C30001650141802E11750151801E04CD0B1C21B
:102C4000E9FFB2C2EAFFEECF14F0EECF15F0EECFFF
:102C500016F0EFCF17F029CCE9FF2ACCEAFF140ECB
:102C6000EA02F3CFEAFFE902F3CFE9FFF450EA26E4
:102C7000000EE926030EEA22EE500001141809E1C5
:102C8000EE50151806E1EE50161803E1EE50171835
:102C900000E101E020D025EC73F006C014F007C07D
:102CA00015F029CCE9FF2ACCEAFF140EEA02F3CF93
:102CB000EAFFE902F3CFE9FFF450EA26000EE92625
:102CC000030EEA22120EE926000EEA2214C0EEFFDD
:102CD00015C0EDFFEAD00C01292B000E2A233CD7AA
:102CE000256B2551146E156A020E145C000E1558E2
:102CF00001E3D9D025CC45F258EC00F0020140A701
:102D0000CFD09FEC00F0AFC2E9FFB0C2EAFF020EE5
:102D1000E926000EEA22EECF14F0EFCF15F01450A2
:102D20000201121902E11550131901E0B9D00A0E7F
:102D3000E66EE66AB1C2E6FFB2C2E6FF29CCE9FF61
:102D40002ACCEAFF140EEA02F3CFEAFFE902F3CF3E
:102D5000E9FFF450EA26000EE926030EEA22E9CF45
:102D600014F0EACF15F014C0E6FF15C0E6FF34EC0E
:102D70006DF0166E060EE15E1650AFC2E9FFB0C2EE
:102D8000EAFFEECF14F0EFCF15F029CCE9FF2ACC03
:102D9000EAFF140EEA02F3CFEAFFE902F3CFE9FFFC
:102DA000F450EA26000EE926030EEA220A0EE9266E
:102DB000000EEA2214C0EEFF15C0EDFFAFC2E9FF1E
:102DC000B0C2EAFF040EE926000EEA22EECF14F0AC
:102DD000EECF15F0EECF16F0EFCF17F029CCE9FFCC
:102DE0002ACCEAFF140EEA02F3CFEAFFE902F3CF9E
:102DF000E9FFF450EA26000EE926030EEA220C0E43
:102E0000E926000EEA2214C0EEFF15C0EEFF16C040
:102E1000EEFF17C0EEFFAFC2E9FFB0C2EAFF020E3D
:102E2000E926000EEA22EECF14F0EFCF15F029CC00
:102E3000E9FF2ACCEAFF140EEA02F3CFEAFFE90227
:102E4000F3CFE9FFF450EA26000EE926030EEA224A
:102E5000100EE926000EEA2214C0EEFF15C0EDFFA9
:102E600025EC73F006C014F007C015F029CCE9FF7B
:102E70002ACCEAFF140EEA02F3CFEAFFE902F3CF0D
:102E8000E9FFF450EA26000EE926030EEA22120EAC
:102E9000E926000EEA2214C0EEFF15C0EDFF05D0B2
:102EA0000C01252B1ED7000E00D01200B3C2E9FF83
:102EB000B4C2EAFFEECF56F3EDCF57F331EC59F041
:102EC000F3CF14F0F4CF15F0B3C2E9FFB4C2EAFFB8
:102ED00014C0EEFF15C0EDFFB3C2E9FFB4C2EAFFB4
:102EE000020EE926000EEA22EECF56F3EDCF57F39D
:102EF00031EC59F0F3CF14F0F4CF15F0B3C2E9FF81
:102F0000B4C2EAFF020E14C0EBFF030E15C0EBFFC4
:102F1000B3C2E9FFB4C2EAFF040EE926000EEA22BA
:102F2000EECF58F3EECF59F3EECF5AF3EFCF5BF37A
:102F300041EC59F006C014F007C015F008C016F0B7
:102F400009C017F0B3C2E9FFB4C2EAFF040EE926D4
:102F5000000EEA2214C0EEFF15C0EEFF16C0EEFF11
:102F600017C0EEFFB3C2E9FFB4C2EAFF080EE926BC
:102F7000000EEA22EECF58F3EECF59F3EECF5AF31C
:102F8000EFCF5BF341EC59F006C014F007C015F029
:102F900008C016F009C017F0B3C2E9FFB4C2EAFFD7
:102FA000080EE926000EEA2214C0EEFF15C0EEFF5F
:102FB00016C0EEFF17C0EEFFB3C2E9FFB4C2EAFFCE
:102FC0000E0EE926000EEA22EECF56F3EDCF57F3B0
:102FD00031EC59F0F3CF14F0F4CF15F0B3C2E9FFA0
:102FE000B4C2EAFF0E0E14C0EBFF0F0E15C0EBFFCC
:102FF000B3C2E9FFB4C2EAFF100EE926000EEA22CE
:10300000EECF56F3EDCF57F331EC59F0F3CF14F088
:10301000F4CF15F0B3C2E9FFB4C2EAFF100E14C03A
:10302000EBFF110E15C0EBFFB3C2E9FFB4C2EAFF1C
:10303000120EE926000EEA22EECF56F3EDCF57F33B
:1030400031EC59F0F3CF14F0F4CF15F0B3C2E9FF2F
:10305000B4C2EAFF120E14C0EBFF130E15C0EBFF53
:1030600012009FEC00F012C242F213C243F229C2D6
:103070002FF22AC230F229C231F22AC232F22BC216
:1030800033F22CC234F22BC235F22CC236F20201DA
:103090004051080B02E0040E01D00D0E3F6F40912D
:1030A000409340954099409B409D409F4191419362
:1030B000419541974189249124932497249929C2C9
:1030C0000EF22AC20FF2A1EC55F0F3CF06F2F4CFC4
:1030D00007F2A1EC55F0F3CF08F2F4CF09F20201A8
:1030E00022692369010E146F156B12000C0E00018A
:1030F000F26FF36BC4EC70F0C9EC63F00C01416F3C
:10310000F00E4115E840E8403F0B146E156A140EAE
:10311000145E000E155A14C041FC415105E1180E11
:10312000F36E020EF46E65D0070E0301D26FD36BFF
:103130000301D06BD16BCCEC63F00C014151410722
:10314000000952E0C9EC63F00C01426F425101E109
:103150004BD0420501E1F1D7020E425D2CE1030E96
:10316000415D01E241D0436B446BC9EC63F00C015B
:10317000426F040E425D08E1C9EC63F00C01446F3C
:10318000C9EC63F00C01436F180E435D020E445905
:1031900001E22AD0B40ED8804355050E445506E20C
:1031A000B40EF36E050EF46E24D01DD043CCF3FFA5
:1031B00044CCF4FF1ED0020E415D01E215D0C9ECF3
:1031C00063F00C01426F4251415D01E20DD042516A
:1031D0000301D26FD36B0301D06BD16BCCEC63F0E6
:1031E0000C014251415FA9D7180EF36E020EF46E26
:1031F00000D01200B5C2E9FFB6C2EAFF0D0EE92603
:10320000000EEA22EFCF33FCB5C2E9FFB6C2EAFFF7
:10321000080EE926000EEA22EECF34FCEECF35FC94
:10322000EECF36FCEFCF37FCB5C2E9FFB6C2EAFFFE
:10323000040EE926000EEA22EECF38FCEECF39FC70
:10324000EECF3AFCEFCF3BFC02014091409340951A
:1032500040B913D012EC73F006C037F207C038F251
:1032600008C039F209C03AF2740E02013727350E50
:103270003823060E3923000E3A233F51050A48E051
:10328000010A08E0B7C23CFCB8C23DFC0C0133A106
:10329000CFD0CBD00C0133A503D0E3DEE2EF20F09A
:1032A00033A912D034CC06F235CC07F236CC08F272
:1032B00037CC09F20201AE6B0201040EAD6FE6ECF1
:1032C00011F0CFDEE2EF20F033A31FD038CC0AF2AA
:1032D00039CC0BF23ACC0CF23BCC0DF202010A2BAA
:1032E000000E0B230C230D2301DFF3CF25F2F4CFC7
:1032F00026F20201010EAE6F0201120EAD6FE6EC76
:1033000011F00201060E3F6F01D0ABDEE2EF20F0BC
:103310000C0133A502D0E2EF20F033A934D0340EF3
:10332000E96E0C0EEA6EEE500201061909E1EE504C
:10333000071906E1EE50081903E1EE50091900E102
:1033400022E006C238FC07C239FC08C23AFC09C2B6
:103350003BFC34CC06F235CC07F236CC08F237CC45
:1033600009F20201010EAE6F0201040EAD6FE6EC30
:1033700011F038CC06F239CC07F23ACC08F23BCC4B
:1033800009F2E2EF20F00C0133A34DD038CC0AF261
:1033900039CC0BF23ACC0CF23BCC0DF202010A2BE9
:1033A000000E0B230C230D23B5C2E9FFB6C2EAFFC2
:1033B0000E0EE926000EEA22EECF14F2EDCF15F242
:1033C00095DEF3CF25F2F4CF26F20C0133A920D0FD
:1033D0000201010EAE6F0201100EAD6FE6EC11F0AE
:1033E0000201070E3F6F12EC73F006C037F207C000
:1033F00038F208C039F209C03AF2740E02013727D8
:10340000350E3823060E3923000E3A2340990BD08F
:103410000201010EAE6F0201120EAD6FE6EC11F06B
:103420000201060E3F6FE2EF20F03C2B000E3D2321
:1034300033A303D03C2B000E3D2302013551335DF5
:103440003651345914E32B512D5D146E2E512C55E9
:10345000156E3551335D166E34513655176E0C01AD
:103460001650145C316F17501558326F0DD0335110
:10347000355D0C01316F0201345136590C01326F48
:10348000010E315F000E325B0A0EE96E020EEA6E2B
:10349000EE50385D2B6FEE5039592C6FEE503A5983
:1034A0002D6FEE503B592E6F2BCC2FFC2CCC30FCCB
:1034B0003E6B3C513D1101E17BD03151321101E1B4
:1034C00076D0800E2E1512E131CC14F032CC15F0EE
:1034D000166A176A14502B5D15502C5916502D5929
:1034E00017502E5903E2010E3E6F3DD03CCC14F034
:1034F0003DCC15F0166A176A2B0EE96E0C0EEA6EBB
:10350000EE501426EE501522EE501622EE501722E1
:103510001734000E171809E6D880000E1454000E58
:103520001554000E1654000E17541DE23C51315D27
:10353000186E32513D55196E1A6A1B6A19AE02D0C7
:103540001A681B681B502E19E8AE02D02E3508D021
:103550002B51185C2C5119582D511A582E511B58AB
:1035600002E3010E3E6F31CC14F032CC15F0166A36
:10357000176A2E511718E8AE02D0173408D014502D
:103580002B5D15502C5916502D5917502E590FE2FE
:103590002F513C25186E30513D21196E193404E22B
:1035A00018500008000E195402E2010E3E6F1CD0A4
:1035B0002B512C112D112E1103E1010E3E6F14D051
:1035C000800E2E1511E131CC14F032CC15F0166AB4
:1035D000176A14502B5D15502C5916502D59175041
:1035E0002E5902E2010E3E6F3E510CE133B508D078
:1035F0000201010EAE6F0201100EAD6FE6EC11F08C
:10360000E2EF20F0060E331503E02BDDE2EF20F0B1
:1036100033B902D0E2EF20F002013F510C0A01E180
:103620009CD20B0A40E00F0A3EE0010A3CE0020A8D
:103630003AE0010A38E00C0A01E0ADD2340EE96E3E
:103640000C0EEA6EEE50061909E1EE50071906E17C
:10365000EE50081903E1EE50091900E122E006C21C
:1036600038FC07C239FC08C23AFC09C23BFC34CC26
:1036700006F235CC07F236CC08F237CC09F202015B
:10368000010EAE6F0201040EAD6FE6EC11F038CC06
:1036900006F239CC07F23ACC08F23BCC09F2E2EF61
:1036A00020F0070E3F6F0E512F5D0C01296F0201B4
:1036B0000F5130590C012A6F800E2A150CE00201BF
:1036C00029512B5D146E2C512A55156E14500C0186
:1036D000292715502A2329CC14F02ACC15F0166A74
:1036E000176A060EE96E020EEA6EEE501424256F7C
:1036F000EE501520266FEE501620276FEE50172043
:10370000286F250EE96E0C0EEA6EEE50345D256FC3
:10371000EE503559266FEE503659276FEE50375917
:10372000286F2835000E281909E6D880000E255587
:10373000000E2655000E2755000E28551DE20201E9
:103740002451010B0AE0010E0C01251905E1265157
:1037500003E1275101E128510AE00201AE6B0201A9
:10376000100EAD6FE6EC11F0E2EF20F005D034075B
:10377000000E355B365B375B020131510E5D146E16
:103780000F513255156E166A176A15AE02D01668BB
:103790001768060EE96E020EEA6E1450EE5C0C011C
:1037A000256F1550EE58266F1650EE58276F17509C
:1037B000EE58286F020131510E5D32510F5911E25E
:1037C00029512B5D146E2C512A55156E166A176AF5
:1037D00014500C01255F1550265B1650275B1750BF
:1037E000285B250EE96E0C0EEA6EEE500C01345D7E
:1037F000256FEE503559266FEE503659276FEE5033
:103800003759286F2835000E281909E6D880000E90
:103810002555000E2655000E2755000E285501E3AC
:1038200097D0020129512B5D146E2C512A55156E2B
:10383000166A176A0C012551145C26511558275138
:1038400016582851175801E283D002012497249971
:10385000419131C229FC32C22AFC0C0125510201DE
:1038600031270C012651020132230C01295102019A
:103870000E5D0C012A5102010F591BE331510E5DFF
:1038800032510F5915E20E51315D146E32510F5500
:10389000156E0001145002010627000115500201A7
:1038A0000723000E0823092331C20EF232C20FF2A1
:1038B0002FD029512B5D146E2C512A55156E0E51A7
:1038C00014240C01296F02010F5115200C012A6FDD
:1038D000020131510C01295D020132510C012A59BA
:1038E00017E229510201315D146E32510C012A5543
:1038F000156E000114500201062700011550020147
:103900000723000E0823092331C20EF232C20FF240
:1039100002012B51315D2C5132590AE329512B5DA3
:10392000146E2C512A55156E1450315F1550325BB0
:103930002B510E5D2C510F590AE329512B5D146E4A
:103940002C512A55156E14500E5F15500F5B3FD049
:1039500002010E51311902E10F51321938E024A74A
:1039600035D024A932D031510E5D146E0F5132552D
:10397000156E166A176A15AE02D0166817681450CD
:10398000065F1550075B1650085B1750095B3151F5
:103990000E5D32510F5914E229512B5D146E2C51DA
:1039A0002A55156E166A176A15AE02D01668176882
:1039B0001450065F1550075B1650085B1750095BE3
:1039C00031C20EF232C20FF24185248924872F5171
:1039D000311902E1305132192FE141B715D012EC03
:1039E00073F006C037F207C038F208C039F209C0D8
:1039F0003AF2740E02013727350E3823060E3923AA
:103A0000000E3A23409918D0060EE96E020EEA6EB7
:103A1000EE500C01341909E1EE50351906E1EE5073
:103A2000361903E1EE50371900E106E10201245195
:103A3000010B02E040994197340EE96E0C0EEA6EDC
:103A4000EE500201065D146EEE500759156EEE50F1
:103A50000859166EEE500959176EB5C2E9FFB6C285
:103A6000EAFF0E0EE926000EEA220C011450EE5C6D
:103A70003F6F1550EE58406F02011451151106E1C9
:103A80000C013F51401102E0020141833FCC14F28E
:103A900040CC15F2080E02013F5D2DE1060EE96EE5
:103AA000020EEA6EEE500C01341909E1EE503519A0
:103AB00006E1EE50361903E1EE50371900E11AE144
:103AC00002012451010B16E012EC73F006C037F22C
:103AD00007C038F208C039F209C03AF2BA0E020142
:103AE00037271A0E3823030E3923000E3A23408954
:103AF000090E3F6F31D0090E3F5D16E10C0133B165
:103B000012D034CC06F235CC07F236CC08F237CCE2
:103B100009F20201AE6B0201140EAD6FE6EC11F07A
:103B200031EC18F04FD318D00A0E3F5D15E1060EA8
:103B3000E96E020EEA6EEE500C01341909E1EE5006
:103B4000351906E1EE50361903E1EE50371900E160
:103B500002E131EC18F036D31FD006C214F007C2D0
:103B600015F008C216F009C217F0142A000E15222B
:103B70001622172214500C01341909E11550351979
:103B800006E11650361903E11750371900E102E13A
:103B900031EC18F017D300D00C0133BB13D30B0E4C
:103BA00002013F5D01E10ED30A0E3F5D01E10AD340
:103BB0000C0E3F5D01E106D3B751B81101E14ED2C1
:103BC0000C01303504E22F510008000E305501E29F
:103BD000E8D0B5C2E9FFB6C2EAFF0C0EE926000E36
:103BE000EA22EF50F00BE842E842E842E842040DD6
:103BF000F350146E156A2F51145C0001F26F0C0122
:103C0000305115580001F36FC4EC70F00C012F51C6
:103C10000201B7270C0130510201B823B7510C0142
:103C2000315D0201B8510C01325904E231CCB7F2D6
:103C300032CCB8F20201B7510A27B8510B23000E5B
:103C40000C230D233351B725146E3451B821156E52
:103C500014502D5D15502E5946E233512D5D0C0147
:103C6000296F020134512E590C012A6F010E2927A8
:103C7000000E2A2329CCC5F22ACCC6F20201C46B5D
:103C80000201C269C36944C2C1F233C2BFF234C285
:103C9000C0F2D0DB0C0129510201B75D0201C56FF2
:103CA0000C012A510201B8590201C66F0201C46B0E
:103CB0000201C269C36944C2C1F22BC2BFF22CC265
:103CC000C0F2B8DB0C0129510201B75D146EB85186
:103CD0000C012A55156E02012B511424336F2C51FF
:103CE0001520346F15D0B7C2C5F2B8C2C6F20201B2
:103CF000C46B0201C269C36944C2C1F233C2BFF2DC
:103D000034C2C0F297DB0201B7513327B8513423D4
:103D1000221D01E1231D44E0B751225FB851235B0E
:103D2000165122250C01296F0201175123210C0184
:103D30002A6F800E2A1504E002012269236930D01F
:103D40000201233504E222510008000E235528E326
:103D50000C01295102010A270C012A5102010B23EF
:103D6000000E0C230D230C012951020133270C01F5
:103D70002A510201342333512D5D34512E590EE264
:103D80002B512D5D146E2E512C55156E010E1426DF
:103D9000000E15221450335F1550345B22692369DD
:103DA0005DD1303504E22F510008000E305501E39B
:103DB00055D10201B7510C012F25146E0201B851E3
:103DC0000C013021156E1450315D1550325909E245
:103DD0002F51315D0201B76F0C0130513259020190
:103DE000B86FB5C2E9FFB6C2EAFF0C0EE926000EB5
:103DF000EA22EF50F00BE842E842E842E842040DC4
:103E0000F3500001F26FF36BC4EC70F00201335118
:103E10000C012F25166E020134510C013021176E52
:103E200016500201B725146E1750B821156E1450A4
:103E30002D5D15502E596EE233512D5D146E2E51AD
:103E40003455156E010E1426000E15220C012F514B
:103E5000145C296F305115582A6F800E2A1531E1F4
:103E600029CCC5F22ACCC6F20201C46B0201C26998
:103E7000C36944C2C1F2020133510C012F25020172
:103E8000BF6F020134510C0130210201C06FD2DA40
:103E90000C0129510201B75D0201C56F0C012A51C5
:103EA0000201B8590201C66F0201C46B0201C26966
:103EB000C36944C2C1F22BC2BFF22CC2C0F2BADA4B
:103EC00028D0B7C2C5F2B8C2C6F20201C46B020163
:103ED000C269C36944C2C1F2020133510C012F25EA
:103EE000146E020134510C013021156E02012B5168
:103EF0002D5D166E2E512C55176E010E1626000ED6
:103F0000172202011650145CBF6F17501558C06F6E
:103F100091DA18D0B7C2C5F2B8C2C6F20201C46BBA
:103F20000201C269C36944C2C1F2020133510C01EA
:103F30002F250201BF6F020134510C013021020113
:103F4000C06F78DA0201221D01E1231D09E12FCCA7
:103F500022F230CC23F2B7C216F2B8C217F27ED0EA
:103F600022510C012F5D020123510C0130593DE219
:103F70002F510201B725146E0C0130510201B821F6
:103F8000156E22511625166E23511721176E1450E7
:103F9000165C155017580FE30C012F510201B7257D
:103FA000186E0C0130510201B821196E2251185CB3
:103FB0002351195805E2B7C216F2B8C217F210D051
:103FC00022511625146E23511721156E0C012F5105
:103FD000145C0201166F0C01305115580201176F65
:103FE0002FCC22F230CC23F239D02F510201B72549
:103FF000146E0C0130510201B821156E22511625A4
:10400000166E23511721176E1450165C1550175851
:1040100025E222511625146E23511721156E0C012D
:104020002F51145C3051155819E32F510201B72557
:10403000186E0C0130510201B821196E2251185C22
:10404000166E23511958176E1651165C146E1751BF
:104050001758156E14501627155017230C013C5194
:104060003D1124E0070E02013F5D04E033C235F24A
:1040700034C236F240AF0BD00201010EAE6F020126
:10408000100EAD6FE6EC11F09FEC00F00FD0408FFA
:1040900040BD0CD0408D25EC73F006C03DF207C04A
:1040A0003EF20F0E02013D27000E3E230C0133A10C
:1040B00089D00AC214F00BC215F00CC216F00DC262
:1040C00017F0142A000E1522162217223CCC18F0E5
:1040D0003DCC19F01A6A1B6A380EE96E0C0EEA6EB6
:1040E000EE501826EE501922EE501A22EE501B22E6
:1040F0001450181809E11550191806E116501A182D
:1041000003E117501B1800E15DE102010A2B000ECC
:104110000B230C230D233F51090A41E0010A1EE045
:104120000F0A0EE0010A01E044D00C0E3F6F0201BD
:10413000010EAE6F0201110EAD6FE6EC11F042D030
:104140000B0E3F6F25EC73F006C03DF207C03EF248
:104150001F0E02013D27000E3E232CD0060EE96EF5
:10416000020EEA6EEE500C01341909E1EE503519D9
:1041700006E1EE50361903E1EE50371900E10BE18C
:104180000201AE6B0201100EAD6FE6EC11F031ECE6
:1041900018F018D003D002010A0E3F6F0BD00201B5
:1041A000AE6B0201100EAD6FE6EC11F031EC18F0C1
:1041B00009D000D00201010EAE6F0201100EAD6FEA
:1041C000E6EC11F012000201B951146E156A020EEC
:1041D000145C000E155802E3000E2BD1B9C245F253
:1041E00058EC00F00201BA51BB1103E1010EBA6FA5
:1041F000BB6B29512D5D0C01006F02012A512E5914
:104200000C01016F010E005F000E015B0201BA514B
:10421000BC25146EBB51BD21156E0C011450005D00
:104220001550015902E2000E04D19FEC00F0030E7C
:104230000201BE1502E1030EBE13BCC204FCBDC2E6
:1042400005FCBA51BC25146EBB51BD21156E14502E
:104250000C01005F1550015B0201BEA314D0BEA18A
:104260000DD000CC14F001CC15F0D89015321432DA
:1042700014500C0104271550052305D00C010051E2
:10428000042701510523020129510C010425006F67
:1042900002012A510C010521016F010E0027000EB9
:1042A000012333C202FC34C203FC0201221D01E1DE
:1042B000231D22E022511625146E23511721156E5D
:1042C00014500C01022715500323025102012D5DE9
:1042D0000C01035102012E590FE22B512D5D146E7A
:1042E0002E512C55156E010E1426000E1522145059
:1042F0000C01025F1550035B0C0102510201355D98
:104300000C0103510201365917E20C010051020160
:10431000355D0C010151020136590DE2BEA503D0F5
:10432000000E87D008D000CC35F201CC36F200CC9C
:1043300033F201CC34F226D035510C01025D02017A
:1043400036510C01035916E2005102012B5D0C019C
:10435000015102012C590DE2BEA503D0000E69D017
:1043600008D000CC35F201CC36F200CC33F201CCCF
:1043700034F208D000CC35F201CC36F200CC33F266
:1043800001CC34F2020135510C01025D02013651BB
:104390000C01035930E2040E0201BE152CE02B5132
:1043A0000C01025D0201C56F02012C510C01035981
:1043B0000201C66F44C2C4F22BC2C2F22CC2C3F2C5
:1043C00044C2C1F200CCBFF201CCC0F233D802012A
:1043D0003551335D365134590EE20C010051020162
:1043E0002B5D146E2C510C010155156E14500201F9
:1043F000335F1550345B00CC2BF201CC2CF229C278
:104400000EF22AC20FF229C231F22AC232F229C2B6
:104410002FF22AC230F2070E02013F5D08E10201CD
:10442000010EAE6F0201100EAD6FE6EC11F0010E41
:1044300000D012000201C45131E0010A01E05DD058
:10444000C15116E0010A01E028D0C5C2E6FFC6C28C
:10445000E6FFC2C2E6FFC3C2E6FFBFC2E6FFC0C2BC
:10446000E6FF34EC6DF0146E060EE15E145015D0CC
:10447000BF1D01E1C01D06E0BFC2C0F3C0C2C1F351
:1044800007EC62F0C5C2D7F3C6C2D8F3C2C2D5F3F7
:10449000C3C2D6F304EC64F000D02FD0C15118E0B1
:1044A000010A01E029D0C21D01E1C31D06E0C2C21C
:1044B000C2F3C3C2C3F315EC62F0C5C2D2F3C6C2E5
:1044C000D3F3BFC2D0F3C0C2D1F3CCEC63F014D0AD
:1044D000C5C2CEF3C6C2CFF3C2C2CCF3C3C2CDF3C2
:1044E000BFC2CAF3C0C2CBF3EEEC62F0C2EC63F021
:1044F000000901E1FBD700D000D012000201C95130
:1045000018E0010A01E069D0CDC2E6FFCEC2E6FFA5
:10451000CAC2E6FFCBC2E6FFCCC2E6FFC7C2E6FFD7
:10452000C8C2E6FF5FEC6DF0146E070EE15E14503A
:1045300054D0C71D01E1C81D06E0C7C2C0F3C8C200
:10454000C1F307EC62F0100E0C01106F116B020149
:10455000CD51CE1141E00C0110510201CD5D0C0195
:1045600011510201CE5904E2CDC210FCCEC211FCA1
:1045700010CCE6FF11CCE6FFCAC2E6FFCBC2E6FFD5
:10458000CCC2E6FF000EE66E0C0EE66E5FEC6DF040
:10459000146E070EE15E145010CCD7F311CCD8F393
:1045A0000301000ED56F0C0ED66F04EC64F010CC36
:1045B00014F011CC15F0166A14500201CA271550D8
:1045C000CB231650CC230C0110510201CD5F0C01FE
:0C45D00011510201CE5BBBD700D01200DD
:0445DC00030E0F01BA
:1045E0003D1905E13E5103E13F5101E140512BE00E
:1045F000020E3D1905E13E5103E13F5101E14051F9
:104600001FE0010E3D1905E13E5103E13F5101E17B
:10461000405113E03D5105E13E5103E13F5101E1BD
:10462000405101E01AD00F014D0E5B6FCD0E5C6F53
:10463000000E5D6FBDEC33F02BD003EC75F028D08D
:104640001CEC75F025D00F01420E5B6FCD0E5C6F38
:10465000000E5D6FBDEC33F01BD0040E02016C6FD9
:104660006D6B02013D0E696FCD0E6A6F000E6B6FB0
:104670000001E351E96EEA6AD890E936EA36DF0EC6
:10468000E926000EEA22EE52EFCF68F2BEEC05F00A
:1046900000D0120002017E0E626F0001E351E96E4C
:1046A000EA6AD890E936EA36DF0EE926000EEA22F9
:1046B000EE52EFCF61F26CEC04F000D0120000017A
:1046C000E36B020EE35D5AE2E351E96EEA6AD890C9
:1046D000E936EA36DF0EE926000EEA22EF6A020129
:1046E000080E4D6F500E02014B6F4C6B02014A6B6E
:1046F0000201466B476B486B496B4DEC02F0E66E6E
:104700000001E351E96EEA6AD890E936EA36DF0E35
:10471000E926000EEA22EE52E552E750EF6E746988
:104720007569E3517F0DF3CF14F0F4CF15F0166ADD
:10473000176AFE0E14261E0E1522000E16221722D0
:1047400014C0C0F315C0C1F307EC62F0F3CF00FC56
:10475000F4CF01FC7F0E0301D76FD86B0301600E0D
:10476000D56F000ED66F04EC64F000CCC0F301CC22
:10477000C1F307EC62F00001E32BA3D7E36B120057
:104780000C01AD6B020EAD5D01E385D0AD51E96E5C
:10479000EA6AD890E936EA36DF0EE926000EEA2208
:1047A000EE52EF50FE0801E173D0AD51E96EEA6AB6
:1047B000D890E936EA36DF0EE926000EEA22EE52FC
:1047C000EFCF4EF225EC03F000093BE0ADCC41FF0A
:1047D00063D80001E351E96EEA6AD890E936EA3617
:1047E000DF0EE926000EEA22EF6AFF0E745D06E096
:1047F00074C05EFEA7EC37F000017469FF0E755DB2
:1048000006E075C05EFEA7EC37F000017569020195
:10481000040EBE6F0201BC6BBD6B010E0201BA6FCC
:10482000BB6B0001E351E96EEA6AD890E936EA36DB
:10483000DF0EE926000EEA22EE52EFCFB9F2E3ECEA
:1048400020F00C01AD51E96EEA6AD890E936EA36FB
:10485000DF0EE926000EEA22EF5016E1AD51E96EB7
:10486000EA6AD890E936EA36DF0EE926000EEA2237
:10487000EE52EFCF77F22FEC07F0F3CF14F0F4CF36
:1048800015F01450151004E0ADCC41FF05D863D8E5
:104890000C01AD2B77D712000001E3510F01415DF0
:1048A00001E158D00001E3517F0DF3CF14F0F4CFB4
:1048B00015F0166A176AFE0E14261E0E1522000E3B
:1048C0001622172214C0C0F315C0C1F307EC62F022
:1048D000F3CF00FCF4CF01FC7F0E0301D76FD86B40
:1048E0000301600ED56F000ED66F04EC64F000CCAF
:1048F000C0F301CCC1F307EC62F00F0141517F0D11
:10490000F3CF14F0F4CF15F0166A176AFE0E1426D2
:104910001E0E1522000E1622172214C0C2F315C057
:10492000C3F315EC62F0F3CF00FCF4CF01FC7F0E73
:104930000301D26FD36B0301600ED06F000ED16FF5
:10494000CCEC63F000CCC2F301CCC3F315EC62F005
:1049500041CFE3F012000C01010E916F0001E35111
:10496000E96EEA6AD890E936EA36DF0EE926000EEB
:10497000EA22EF500B0A02E1B4EF2EF0010A02E145
:1049800077EF2EF0030A02E142EF2EF0010A02E176
:104990001EEF2EF00F0A02E101EF2CF0010A02E1F6
:1049A000CBEF2BF0030A02E1D6EF2AF0010A02E175
:1049B000C3EF2AF0070A02E192EF2AF0010A01E1AF
:1049C000E3D3030A67E0010A02E0E2EF2EF0E351CD
:1049D000E96EEA6AD890E936EA36DF0EE926000E7B
:1049E000EA22EE52EFCF77F22FEC07F0F3CF8BFCF9
:1049F000F4CF8CFC0C018B518C114AE000017A0E33
:104A0000706F000E716FE351E96EEA6AD890E93673
:104A1000EA36DF0EE926000EEA22010EEF6E776914
:104A2000766B12EC73F006C068F007C069F008C03E
:104A30006AF009C06BF08A0E00016827F00E692346
:104A40001B0E6A23000E6B236C696D696E696F69BA
:104A5000606B616B626B636BDE6B0201050EBE6F98
:104A60000201BC6BBD6B010E0201BA6FBB6B000192
:104A7000E351E96EEA6AD890E936EA36DF0EE926B4
:104A8000000EEA22EE52EFCFB9F2E3EC20F002D0B2
:104A9000E2EF2EF00201A66B0201A46BA56B0201EE
:104AA000A26BA36B02010A0EA16F0001E351E96E34
:104AB000EA6AD890E936EA36DF0EE926000EEA22E5
:104AC000EE52EFCFA0F212EC0DF0F3CF14F0F4CFD2
:104AD00015F00001141C01E1151C65E10001E35112
:104AE000E96EEA6AD890E936EA36DF0EE926000E6A
:104AF000EA22EE52EFCF80F276EC08F0F3CF14F01A
:104B0000F4CF15F01450151011E10001050E786F67
:104B1000E351E96EEA6AD890E936EA36DF0EE92613
:104B2000000EEA22070EEF6E0C01916B12EC73F08F
:104B300000016851065C146E69510758156E6A5180
:104B40000858166E6B510958176E1734000E171857
:104B500009E6D880000E1454000E1554000E1654A9
:104B6000000E17541EE2E351E96EEA6AD890E93666
:104B7000EA36DF0EE926000EEA22EE52EFCF50F2BF
:104B800053EC03F00001E351E96EEA6AD890E9368C
:104B9000EA36DF0EE926000EEA220B0EEF6E0C015C
:104BA000916BE2EF2EF012EC73F006C068F007C0D4
:104BB00069F008C06AF009C06BF08A0E000168272E
:104BC000F00E69231B0E6A23000E6B230201A66BF5
:104BD0000201A46BA56B0201A26BA36B0201200E64
:104BE000A16F0001E351E96EEA6AD890E936EA362E
:104BF000DF0EE926000EEA22EE52EFCFA0F212EC11
:104C00000DF0F3CF8BFCF4CF8CFC0C01050ED8809B
:104C10008B55000E8C5503E2050E8B6F8C6B010ECD
:104C20008B2502017E6F000E0C018C2102017F6F2B
:104C300002017A0E7C6F000E7D6F0001E351E96E78
:104C4000EA6AD890E936EA36DF0EE926000EEA2253
:104C5000EE52EFCF7BF2C3EC07F0030EE66EE66A8E
:104C6000660EE66EC90EE66E000EE66E7A0EE66E13
:104C7000000EE66E15EC6DF0146E070EE15E14503A
:104C8000000903E10001786B2CD0040EE66EE66AA1
:104C9000610EE66EC90EE66E000EE66E7A0EE66EE8
:104CA000000EE66E15EC6DF0146E070EE15E14500A
:104CB000000904E10001010E786F13D00001070E16
:104CC000786FE351E96EEA6AD890E936EA36DF0E8A
:104CD000E926000EEA22070EEF6E0C01916BE2EF5F
:104CE0002EF00201A66B0201A46BA56B0201A26B60
:104CF000A36B0201200EA16F0001E351E96EEA6A85
:104D0000D890E936EA36DF0EE926000EEA22EE52A6
:104D1000EFCFA0F212EC0DF0F3CF8BFCF4CF8CFCB4
:104D20000201A66B8BCCA4F28CCCA5F20201A26B83
:104D3000A36B02013F0EA16F0001E351E96EEA6A25
:104D4000D890E936EA36DF0EE926000EEA22EE5266
:104D5000EFCFA0F212EC0DF0F3CF8DFCF4CF8EFC70
:104D60000C018D518B5D8E518C5901E204D08DCC9C
:104D70008BFC8ECC8CFC590ED8808B55000E8C553C
:104D800013E20001050E786FE351E96EEA6AD890EC
:104D9000E936EA36DF0EE926000EEA22070EEF6E4C
:104DA0000C01916BE2EF2EF08BCC7EF28CCC7FF27B
:104DB00002017A0E7C6F000E7D6F0001E351E96EF7
:104DC000EA6AD890E936EA36DF0EE926000EEA22D2
:104DD000EE52EFCF7BF2C3EC07F0F3CF8DFCF4CFB4
:104DE0008EFC7A0E0C018D25E96E000E8E21EA6E86
:104DF000EF6A0F017A0E436F000E446F63EC30F0E0
:104E00007A0EE66E000EE66EEBEC6DF0E552E552C2
:104E1000F3CF8DFCF4CF8EFC8DCCE9FF8ECCEAFF76
:104E2000E906000EEA5A7A0EE926000EEA22EF5051
:104E30002F0809E00E017B0E576F000E586F8DECA6
:104E400034F00001746FFF0E0001745D4CE18DCCF5
:104E5000E9FF8ECCEAFFE906000EEA5A7A0EE9264F
:104E6000000EEA22EF502F080EE00C018DCCE9FF76
:104E70008ECCEAFF8D2B000E8E237A0EE926000ED3
:104E8000EA222F0EEF6E570EE66EC90EE66E000E8A
:104E9000E66E7A0E0C018D25146E000E8E21156EB5
:104EA00014C0E6FF15C0E6FFD2EC6DF0166E050EDD
:104EB000E15E1650570EE66EC90EE66E000EE66E07
:104EC000F9EC6DF0E552E552E55207500C018D27E3
:104ED00008508E230E017B0E576F000E586F8DEC1D
:104EE00034F00001746F7A0E0C018D25926F000E64
:104EF0008E21936F010E925F000E935B7A0E9219D2
:104F000002E1000E93190CE092CCE9FF93CCEAFF8A
:104F1000EF502E0801E104D09207000E935BEED70C
:104F2000922B000E93230001796B0B0EE76E79191B
:104F3000E8AE02D0E73402D0E750795D42E21B0EC2
:104F4000146EE90E156E000E166E79C017F0186A11
:104F5000196A17AE02D018681968030E0C6E0D6A34
:104F60000E6A17C007F018C008F019C009F0F4EC79
:104F700073F004C017F005C018F006C019F0145003
:104F80001724F36E15501820F46E16501920F86E81
:104F9000F4CFF7FFF3CFF6FF0900F5CF53F3090085
:104FA000F5CF54F30800F5CF55F392CC51F393CCE1
:104FB00052F3DDEC58F0000901E103D00001792B38
:104FC000B4D7FF0E0001745D18E074C074FE17ECD6
:104FD0003CF0F350020B11E074C07FFE45EC3EF054
:104FE000F3CF5CFEF4CF5DFE010E0E015C27000ED8
:104FF0005D231FEC37F00001756F0201A66B020103
:10500000A46BA56B0201A26BA36B0201200EA16F22
:105010000001E351E96EEA6AD890E936EA36DF0E1C
:10502000E926000EEA22EE52EFCFA0F212EC0DF0CC
:10503000F3CF8BFCF4CF8CFC0C018B518C115BE01B
:105040000001010E766F02018F0E796F0C0E7A6FE0
:105050000001E351E96EEA6AD890E936EA36DF0EDC
:10506000E926000EEA22EE52EFCF78F26DEC07F05F
:105070000C018B07000E8C5B620E8B5D000E8C5951
:1050800013E30001050E786FE351E96EEA6AD890E8
:10509000E936EA36DF0EE926000EEA22070EEF6E49
:1050A0000C01916BE2EF2EF08BCC7EF28CCC7FF278
:1050B00002017A0E7C6F000E7D6F0001E351E96EF4
:1050C000EA6AD890E936EA36DF0EE926000EEA22CF
:1050D000EE52EFCF7BF2C3EC07F0F35000017027E4
:1050E000F450712370C0E9FF71C0EAFF702B000E0D
:1050F0007123260EEF6E0201A66B0201A46BA56B55
:105100000201A26BA36B02010A0EA16F0001E35121
:10511000E96EEA6AD890E936EA36DF0EE926000E33
:10512000EA22EE52EFCFA0F212EC0DF0F3CF8BFC9F
:10513000F4CF8CFC010E0C018B2502017E6F000E5A
:105140000C018C2102017F6F02017C6B7D6B0001E1
:10515000E351E96EEA6AD890E936EA36DF0EE926CD
:10516000000EEA22EE52EFCF7BF2C3EC07F0000113
:10517000E351E96EEA6AD890E936EA36DF0EE926AD
:10518000000EEA22020EEF6E0201A66B0201A46B72
:10519000A56B0201A26BA36B02010A0EA16F0001B5
:1051A000E351E96EEA6AD890E936EA36DF0EE9267D
:1051B000000EEA22EE52EFCFA0F212EC0DF0F3CF88
:1051C0008BFCF4CF8CFC0C018B1D01E18C1D64E188
:1051D0000001E351E96EEA6AD890E936EA36DF0E5B
:1051E000E926000EEA22EE52EFCF80F276EC08F0CC
:1051F000F3CF14F0F4CF15F01450151011E10001A5
:10520000050E786FE351E96EEA6AD890E936EA361E
:10521000DF0EE926000EEA22070EEF6E0C01916BFD
:1052200012EC73F000016851065C146E6951075866
:10523000156E6A510858166E6B510958176E17345F
:10524000000E171809E6D880000E1454000E1554ED
:10525000000E1654000E17541EE2E351E96EEA6A7E
:10526000D890E936EA36DF0EE926000EEA22EE5241
:10527000EFCF50F253EC03F00001E351E96EEA6A1C
:10528000D890E936EA36DF0EE926000EEA220B0E48
:10529000EF6E0C01916B44D112EC73F006C068F014
:1052A00007C069F008C06AF009C06BF08A0E0001FF
:1052B0006827F00E69231B0E6A23000E6B230C0176
:1052C000010E8B1901E18C5127E1020E02017E6F64
:1052D0007F6B02017C6B7D6B0001E351E96EEA6A32
:1052E000D890E936EA36DF0EE926000EEA22EE52C1
:1052F000EFCF7BF2C3EC07F00001E351E96EEA6AFD
:10530000D890E936EA36DF0EE926000EEA22030ECF
:10531000EF6E0C01916B04D10201A66B8BCCA4F251
:105320008CCCA5F20201A26BA36B02013A0EA16F15
:105330000001E351E96EEA6AD890E936EA36DF0EF9
:10534000E926000EEA22EE52EFCFA0F212EC0DF0A9
:10535000F3CF8DFCF4CF8EFC020E0C018D27000ED6
:105360008E23916B100ED8808D55000E8E551DE248
:10537000010E8B2502017E6F000E0C018C210201B3
:105380007F6F02017C6B7D6B0001E351E96EEA6A7D
:10539000D890E936EA36DF0EE926000EEA22EE5210
:1053A000EFCF7BF2C3EC07F0EFD68DCC7EF28ECC44
:1053B0007FF20201940E7C6F0C0E7D6F0001E351B1
:1053C000E96EEA6AD890E936EA36DF0EE926000E81
:1053D000EA22EE52EFCF7BF2C3EC07F08DCCE9FF6F
:1053E0008ECCEAFFE906000EEA5A940EE9260C0E6E
:1053F000EA22EF6A0C018D518B5F8E518C5B906BB2
:105400009051146E156A030E145C000E155849E293
:10541000810E146EE90E156E000E166E90CC17F00C
:10542000186A196A030E0C6E0D6A0E6A17C007F02F
:1054300018C008F019C009F0F4EC73F004C017F0BC
:1054400005C018F006C019F014501724F36E15505B
:105450001820F46E16501920F86EF4CFF7FFF3CF32
:10546000F6FF0900F5CFE6FF0900F5CFE6FF0800DB
:10547000F5CFE6FF940EE66E0C0EE66EBCEC6DF01A
:105480001A6E050EE15E1A50000908E190CC42FF49
:10549000F1EC2FF00C01010E916F03D00C01902B59
:1054A000AFD791511FE00201A66B0201A46BA56B5F
:1054B0000201A26BA36B02010A0EA16F0001E3516E
:1054C000E96EEA6AD890E936EA36DF0EE926000E80
:1054D000EA22EE52EFCFA0F212EC0DF0F3CF8BFCEC
:1054E000F4CF8CFC010E0C018B2502017E6F000EA7
:1054F0000C018C2102017F6F02017C6B7D6B00012E
:10550000E351E96EEA6AD890E936EA36DF0EE92619
:10551000000EEA22EE52EFCF7BF2C3EC07F034D656
:10552000E2EF2EF070C0E9FF71C0EAFFEF6A0F01F1
:105530007A0E436F000E446F63EC30F0F3CF70F0DF
:10554000F4CF71F00001E351E96EEA6AD890E936D0
:10555000EA36DF0EE926000EEA22040EEF6E7651DF
:105560000CE1E351E96EEA6AD890E936EA36DF0EDB
:10557000E926000EEA22050EEF6E0C01916B000188
:10558000766BE2EF2EF0FDEC74F0020802E1E2EF40
:105590002EF00001E351E96EEA6AD890E936EA3666
:1055A000DF0EE926000EEA22050EEF6EE351E96EEA
:1055B000EA6AD890E936EA36DF0EE926000EEA22DA
:1055C000EE52EFCF77F22FEC07F0F3CF14F0F4CFD9
:1055D00015F0166A176A145000016C1909E115508C
:1055E0006D1906E116506E1903E117506F1900E1AD
:1055F0003CE112EC73F000016851065C146E6951D5
:105600000758156E6A510858166E6B510958176E77
:105610001734000E171809E6D880000E1454000E37
:105620001554000E1654000E17541FE2E351E96E94
:10563000EA6AD890E936EA36DF0EE926000EEA2259
:10564000EE52EFCF50F253EC03F00001E351E96E5C
:10565000EA6AD890E936EA36DF0EE926000EEA2239
:105660000B0EEF6E0C01916BADD3780501E086D087
:1056700000EC75F00C018F6F020E8F5D1DE10001D3
:10568000E351E96EEA6AD890E936EA36DF0EE92698
:10569000000EEA22EE52EFCF77F22FEC07F0F3CFB5
:1056A0006CF0F4CF6DF00001010E6C5F000E6D5BCD
:1056B0006E6B6F6B87D362D08F0560E10001E351A1
:1056C000E96EEA6AD890E936EA36DF0EE926000E7E
:1056D000EA22EE52EFCF77F22FEC07F0F3CF6CF027
:1056E000F4CF6DF000016E6B6F6B12EC73F006C0BF
:1056F00068F007C069F008C06AF009C06BF08A0E54
:1057000000016827F00E69231B0E6A23000E6B232D
:10571000600EE96E000EEA6EEE506C5DEE506D5953
:10572000EE506E59EE506F5917E2E351E96EEA6A96
:10573000D890E936EA36DF0EE926000EEA22EE526C
:10574000EFCF80F276EC08F0F3CF14F0F4CF15F041
:105750001450151001E036D30001060E786FE351A6
:10576000E96EEA6AD890E936EA36DF0EE926000EDD
:10577000EA22070EEF6E0C01916B24D30001E35176
:10578000E96EEA6AD890E936EA36DF0EE926000EBD
:10579000EA22060EEF6EFF0E745D11E1040E786FC3
:1057A000E351E96EEA6AD890E936EA36DF0EE92677
:1057B000000EEA22070EEF6E0C01916B03D3606BB3
:1057C000616B626B636BFF0E755D05E16469656912
:1057D0006669676909D00E01640E686F000E696F13
:1057E00075C067FE8EEC39F00001E351E96EEA6A9C
:1057F000D890E936EA36DF0EE926000EEA22070ED7
:10580000EF6E0201020EBE6F0201BC6BBD6B010E9A
:105810000201BA6FBB6B0001E351E96EEA6AD890EE
:10582000E936EA36DF0EE926000EEA22EE52EFCF25
:10583000B9F2E3EC20F0630E146EE90E156E000E63
:10584000166E78C017F0186A196A17AE02D0186879
:105850001968030E0C6E0D6A0E6A17C007F018C0A7
:1058600008F019C009F0F4EC73F004C017F005C09B
:1058700018F006C019F014501724F36E15501820B4
:10588000F46E16501920F86EF4CFF7FFF3CFF6FF41
:105890000900F5CF72F20900F5CF73F20800F5CFD9
:1058A00074F20001E351E96EEA6AD890E936EA360B
:1058B000DF0EE926000EEA22EE52EFCF71F2B3ECD2
:1058C00006F0080E0001785D58E102017A0E6F6F54
:1058D000000E706F0001E351E96EEA6AD890E93674
:1058E000EA36DF0EE926000EEA22EE52EFCF6EF224
:1058F00093EC06F00201440E726FC90E736F000E36
:10590000746F0001E351E96EEA6AD890E936EA362D
:10591000DF0EE926000EEA22EE52EFCF71F2B3EC71
:1059200006F002017A0E6F6F000E706F0001E351F6
:10593000E96EEA6AD890E936EA36DF0EE926000E0B
:10594000EA22EE52EFCF6EF293EC06F00201180E4F
:10595000726FE90E736F000E746F0001E351E96E10
:10596000EA6AD890E936EA36DF0EE926000EEA2226
:10597000EE52EFCF71F2B3EC06F0000178510FE078
:1059800078050DE0E351E96EEA6AD890E936EA3627
:10599000DF0EE926000EEA220B0EEF6E13D20B0E7D
:1059A000795D74E00201350E726FC90E736F000EDF
:1059B000746F0001E351E96EEA6AD890E936EA367D
:1059C000DF0EE926000EEA22EE52EFCF71F2B3ECC1
:1059D00006F03F0E146EE90E156E000E166E79C0BD
:1059E00017F0186A196A17AE02D018681968030E02
:1059F0000C6E0D6A0E6A17C007F018C008F019C0C7
:105A000009F0F4EC73F004C017F005C018F006C0FC
:105A100019F014501724F36E15501820F46E165018
:105A20001920F86EF4CFF7FFF3CFF6FF0900F5CF9A
:105A300072F20900F5CF73F20800F5CF74F200019D
:105A4000E351E96EEA6AD890E936EA36DF0EE926D4
:105A5000000EEA22EE52EFCF71F2B3EC06F0020133
:105A6000180E726FE90E736F000E746F0001E35130
:105A7000E96EEA6AD890E936EA36DF0EE926000ECA
:105A8000EA22EE52EFCF71F2B3EC06F074C074FE6E
:105A900017EC3CF0F350010B17E002011C0E726F83
:105AA000C90E736F000E746F0001E351E96EEA6A6C
